:020000040800F2
:1000000000C0002001060008DD050008DF0500082B
:10001000E1050008E3050008E50500080000000010
:10002000000000000000000000000000011B0008AC
:10003000E705000800000000A11B0008E905000812
:100040004906000849060008490600084906000854
:100050004906000849060008490600084906000844
:100060004906000849060008490600084906000834
:100070004906000849060008490600084906000824
:100080004906000849060008490600084906000814
:100090004906000849060008490600084906000804
:1000A00049060008490600084906000849060008F4
:1000B00049060008490600084906000849060008E4
:1000C00049060008490600084906000849060008D4
:1000D00049060008490600084906000849060008C4
:1000E00049060008490600084906000849060008B4
:1000F00049060008490600084906000849060008A4
:100100004906000849060008490600084906000893
:100110004906000849060008490600084906000883
:100120004906000849060008490600084906000873
:1001300000000000000000000000000000000000BF
:1001400000000000000000000000000000000000AF
:10015000000000000000000000000000000000009F
:10016000000000000000000000000000000000008F
:10017000000000000000000000000000000000007F
:10018000000000000000000000000000000000006F
:10019000000000000000000000000000000000005F
:1001A000000000000000000000000000000000004F
:1001B000000000000000000000000000000000003F
:1001C000000000000000000000000000000000002F
:1001D000000000000000000000000000000000001F
:0401E0005FF8E0F1F3
:1001F000844641EA000313F0030349D1403A23D374
:100200000B6803604B6843608B688360CB68C36096
:100210000B6903614B6943618B698361CB69C3617E
:100220000B6A03624B6A43628B6A8362CB6AC36266
:100230000B6B03634B6B43638B6B8363CB6BC3634E
:1002400040304031403ADBD230320BD30B68036090
:100250004B6843608B688360CB68C360103010319B
:10026000103AF3D20C3205D351F8043B40F8043B6A
:10027000043AF9D2043208D0D2071CBF11F8013B6E
:1002800000F8013B01D30B8803806046704700BF34
:10029000082A13D38B07B1D010F00303AED0C3F1FB
:1002A0000403D21ADB071CBF11F8013B00F8013B25
:1002B000A4D331F8023B20F8023B9FE7043AD9D39C
:1002C000013A11F8013B00F8013BF9D20B780370B9
:1002D0004B7843708B788370604670470348044BBB
:1002E000834202D0034B03B118477047100000202F
:1002F00010000020000000000548064B1B1AD90F13
:1003000001EBA301491002D0034B03B1184770471A
:1003100010000020100000200000000010B5064C66
:10032000237843B9FFF7DAFF044B13B10448AFF366
:1003300000800123237010BD100000200000000089
:100340000C35000808B5054B1BB105490548AFF34E
:100350000080BDE80840FFF7CFBF00BF00000000ED
:10036000140000200C3500082DE9F04188B000236E
:10037000049305930693079303F1804303F5043335
:100380009A6942F020029A619A6902F02002009272
:10039000009A9A6942F008029A619A6902F008028A
:1003A0000192019A9A6942F010029A619A6902F0E8
:1003B00010020292029A9A6942F004029A619B69C1
:1003C00003F004030393039BDFF8708001224FF4D2
:1003D0000341404600F002FB194F01224FF47071B7
:1003E000384600F0FBFA174E01224FF48071304678
:1003F00000F0F4FA4FF403430493012405940694A7
:100400000325079504A9404600F0C8F94FF470731E
:10041000049305940694079504A9384600F0BEF9A4
:100420004FF48073049305940694079504A930460D
:1004300000F0B4F908B0BDE8F08100BF000C014045
:10044000001001400008014070B584B000F06AFF60
:10045000002402941023019348F2304300934FF696
:10046000E0731E4A1E21502000F09CFE264607E045
:100470001B4B0093F0231A460021084600F0B4FEFF
:10048000184D00224FF48071284600F0A7FA4FF46F
:10049000FA7001F06FFA01224FF48071284600F0E3
:1004A0009DFA4FF4FA7001F065FA0134012CE7DD92
:1004B000013606F0010448BF6442002CD8D0012C5C
:1004C00001D00024DCE7084B0093F0231A460021FA
:1004D000084600F089FE0024D2E700BF243500085A
:1004E000902B0208000C01409069000872B6FEE7EC
:1004F00000B591B02822002106A802F0B5FF002324
:1005000001930293039304930593012206924FF4FF
:10051000803307930A9202220D920E934FF4E01358
:100520000F9306A800F076FA80B90F2301930221F9
:100530000291002303934FF480620492059301A873
:1005400000F0A8FC20B911B05DF804FBFFF7CEFF66
:10055000FFF7CCFF08B500F09FF8FFF7C9FFFFF7E2
:1005600003FF01F049F9054A0021054801F08CF923
:10057000044B186001F062F9FEE700BF3C3500084B
:10058000490400082C00002000B583B0114B9A6983
:1005900042F001029A619A6902F001020092009A07
:1005A000DA6942F08052DA61DB6903F0805301932B
:1005B000019B00220F216FF0010000F0A3F8064A12
:1005C000536823F0E06343F00073536003B05DF8B9
:1005D00004FB00BF0010024000000140FEE7FEE700
:1005E000FEE7FEE7FEE7704708B500F067F802F0A7
:1005F000A7FC012800D108BD01F0F4FAFBE7704721
:100600000C480D490D4A002302E0D458C45004336D
:10061000C4188C42F9D30A4A0A4C002301E0136043
:100620000432A242FBD3FFF7EAFF02F0F9FEFFF724
:1006300091FF7047000000201000002098ED030893
:10064000100000207C190020FEE7000010B50446D1
:100650000E4B1A784FF47A73B3FBF2F30C4A10681E
:10066000B0FBF3F000F086F868B90F2C01D9012037
:100670000AE0002221464FF0FF3000F043F8054B1E
:100680001C60002000E0012010BD00BF040000201D
:10069000000000200800002008B5074A136843F056
:1006A00010031360032000F01BF80F20FFF7CEFFAC
:1006B000FFF76AFF002008BD00200240034A1168CE
:1006C000034B1B780B441360704700BF30000020C1
:1006D00004000020014B1868704700BF3000002064
:1006E000074AD36823F4E0631B041B0C000200F4E8
:1006F000E060034343F0BF6343F40033D3607047CB
:1007000000ED00E000B5194BDB68C3F30223C3F131
:10071000070CBCF1040F28BF4FF0040C03F1040ECA
:10072000BEF1060F18D9033B4FF0FF3E0EFA0CFC4A
:1007300021EA0C0199400EFA03FE22EA0E020A4356
:1007400000280BDB1201D2B200F1604000F56140DD
:1007500080F800235DF804FB0023E5E700F00F00BC
:100760001201D2B2024B1A54F4E700BF00ED00E0D0
:1007700014ED00E00138B0F1807F0BD24FF0E023A0
:100780005861054AF02182F8231000209861072261
:100790001A6170470120704700ED00E070B582B02B
:1007A0000024A446B0E0874DAB4210D007D9864D57
:1007B000AB420CD005F58035AB4208D013E0A5F56F
:1007C0008015AB4203D005F57025AB4207D18B688D
:1007D000002B62D0012B5BD04261082403E0A5F519
:1007E0008015AB42F3D0BEF1FF0F58D80646BEF1DC
:1007F000FF0F56D84FEA8C0233680F25954023EA45
:10080000050304FA02F2134333604B6813F0805F70
:1008100078D06E4B9A6942F001029A619B6903F0AD
:1008200001030193019B4FEA9C02951C684B53F80E
:1008300025600CF00305AD000F23AB4026EA03064C
:10084000644B984233D003F58063984200F098805F
:1008500003F58063984200F0958003F58063984229
:1008600000F0928003F58063984200F08F8003F5DA
:100870008063984219D006231AE0CC68B3E7CC68AD
:100880000434B0E7CC680834ADE7CC680C34AAE790
:1008900002610824A7E70024A5E70424A3E7061DB6
:1008A000A5E7ACF108029200A6E7052300E00023CB
:1008B000AB4033430232464D45F822304B6813F4C7
:1008C000803F65D0444A136843EA0E0313604B68C7
:1008D00013F4003F62D0404A536843EA0E0353606A
:1008E0004B6813F4801F5FD03B4A936843EA0E03C2
:1008F00093604B6813F4001F5CD0374AD36843EA17
:100900000E03D3600CF1010C0B6833FA0CF257D0D4
:10091000012202FA0CF203EA020E32EA0303F1D1D9
:100920004B68122B3FF63FAF122B3FF65CAF01A591
:1009300055F823F0CF0700087B0800088508000859
:1009400097080008E7070008E7070008E70700081E
:10095000E7070008E7070008E7070008E7070008BF
:10096000E7070008E7070008E7070008E7070008AF
:10097000E7070008E70700087F0800088B08000861
:10098000012395E7022393E7032391E704238FE7ED
:10099000114A136823EA0E03136098E70E4A53685E
:1009A00023EA0E0353609BE70B4A936823EA0E0386
:1009B00093609EE7084AD36823EA0E03D360A1E759
:1009C00002B070BD00002210000031100010024083
:1009D0000000014000080140000401400AB101612B
:1009E000704709040161704782B0084B1B68084AD0
:1009F000A2FB03235B0A00FB03F3019300BF019BEF
:100A00005A1E0192002BF9D102B07047000000205D
:100A1000D34D6210002800F0F18170B582B0044619
:100A2000036813F0010F2CD0994B5B6803F00C03A3
:100A3000042B1DD0964B5B6803F00C03082B12D0DF
:100A40006368B3F5803F41D0002B55D103F180435B
:100A500003F504331A6822F480321A601A6822F40B
:100A600080221A6037E08A4B5B6813F4803FE7D03E
:100A7000874B1B6813F4003F03D06368002B00F022
:100A8000BF81236813F0020F75D0814B5B6813F0B0
:100A90000C0F5FD07E4B5B6803F00C03082B54D027
:100AA0002369002B00F08A807A4B01221A60FFF73D
:100AB00011FE0546764B1B6813F0020F75D1FFF748
:100AC00009FE401B0228F5D903209EE1704A1368F5
:100AD00043F480331360636843B3FFF7FBFD0546BF
:100AE0006B4B1B6813F4003FCBD1FFF7F3FD401BAA
:100AF0006428F5D9032088E1B3F5A02F09D0644B11
:100B00001A6822F480321A601A6822F480221A606D
:100B1000E1E703F18043A3F53C331A6842F48022F5
:100B20001A601A6842F480321A60D4E7FFF7D2FDE7
:100B30000546574B1B6813F4003FA2D0FFF7CAFDD0
:100B4000401B6428F5D903205FE1514B5B6813F427
:100B5000803FA5D14E4B1B6813F0020F03D02369D1
:100B6000012B40F04F814A4A136823F0F803616972
:100B700043EAC1031360236813F0080F33D0A3695D
:100B8000002B5CD0434B0122C3F88024FFF7A2FD69
:100B900005463F4B5B6A13F0020F21D1FFF79AFD28
:100BA000401B0228F5D903202FE1394A136823F0AE
:100BB000F803616943EAC1031360DCE7354B0022A7
:100BC0001A60FFF787FD0546314B1B6813F0020FD3
:100BD000D1D0FFF77FFD401B0228F5D9032014E197
:100BE0000120FFF701FF236813F0040F00F0968047
:100BF000274BDB6913F0805F34D1254BDA6942F073
:100C00008052DA61DB6903F080530193019B012577
:100C1000214B1B6813F4807F26D0E368012B3DD065
:100C2000002B53D103F1804303F504331A6A22F0F9
:100C300001021A621A6A22F004021A6233E0154BAA
:100C40000022C3F88024FFF745FD0546104B5B6A80
:100C500013F0020FC7D0FFF73DFD401B0228F5D966
:100C60000320D2E00025D3E70B4A136843F48073D6
:100C70001360FFF72FFD0646074B1B6813F4807FB8
:100C8000CBD1FFF727FD801B6428F5D90320BCE0FA
:100C90000010024000004242007000405F4A136AA8
:100CA00043F001031362E36833B3FFF713FD064615
:100CB0005A4B1B6A13F0020F2FD1FFF70BFD801B5D
:100CC00041F288339842F3D903209EE0052B09D0E6
:100CD000524B1A6A22F001021A621A6A22F00402C6
:100CE0001A62E0E74D4B1A6A42F004021A621A6A6D
:100CF00042F001021A62D6E7FFF7ECFC0646474BCA
:100D00001B6A13F0020F08D0FFF7E4FC801B41F2CE
:100D100088339842F3D9032077E0E5B9E369002BE3
:100D200072D03E4A526802F00C02082A56D0022BBA
:100D300017D03B4B00221A66FFF7CCFC0446374B1A
:100D40001B6813F0007F47D0FFF7C4FC001B02288C
:100D5000F5D9032059E0314AD36923F08053D36198
:100D6000DCE72F4B00221A66FFF7B4FC05462B4B3D
:100D70001B6813F0007F06D0FFF7ACFC401B022875
:100D8000F5D9032041E0236AB3F5803F1AD0234907
:100D90004B6823F47413226A606A024313434B6066
:100DA0001F4B01221A66FFF795FC04461B4B1B687C
:100DB00013F0007F0ED1FFF78DFC001B0228F5D940
:100DC000032022E0154A536823F40033A1680B4343
:100DD0005360DCE7002018E0002016E0012B16D05D
:100DE0000E4B5B6803F48031226A914211D103F407
:100DF0007013626A93420ED1002006E00120704712
:100E0000012002E0012000E0002002B070BD0120BE
:100E1000FBE70120F9E70120F7E700BF00100240DF
:100E20000000424286B0174B0FCB0DF1180C0CE9B5
:100E30000F0040F20123ADF80430134B5B6803F060
:100E40000C02082A02D0114806B07047C3F383424F
:100E500018326A4412F8100C13F4803F0DD00A4B7C
:100E60005B68C3F3404318336B4413F8143C074AE0
:100E700002FB00F0B0FBF3F0E6E7054B03FB00F0EC
:100E8000E2E700BF703500080010024000127A004F
:100E900000093D00002800F0A08070B50D46044612
:100EA000524B1B6803F007038B420BD24F4A136867
:100EB00023F007030B431360136803F007038B420F
:100EC00040F08D80236813F0020F17D013F0040F49
:100ED00004D0474A536843F4E0635360236813F037
:100EE000080F04D0424A536843F460535360404AA9
:100EF000536823F0F003A1680B435360236813F099
:100F0000010F31D06368012B20D0022B25D0384A45
:100F1000126812F0020F64D035494A6822F00302C9
:100F200013434B60FFF7D6FB0646314B5B6803F07B
:100F30000C036268B3EB820F16D0FFF7CBFB801B6C
:100F400041F288339842F0D9032045E0284A1268DC
:100F500012F4003FE0D101203EE0254A126812F071
:100F6000007FD9D1012037E0204B1B6803F0070335
:100F7000AB420AD91D4A136823F007032B431360C1
:100F8000136803F00703AB422DD1236813F0040F5D
:100F900006D0174A536823F4E063E1680B435360BB
:100FA000236813F0080F07D0114A536823F46053E5
:100FB000216943EAC1035360FFF734FF0C4B5B68C0
:100FC000C3F303130B4AD35CD8400B4B18600B4B95
:100FD0001868FFF73BFB002070BD0120704701201F
:100FE000FAE70120F8E70120F6E700BF0020024001
:100FF00000100240603500080000002008000020BA
:1010000010B50B461446024600F070F9204600F079
:101010004FF910BD2DE9F04F87B0044604910093BD
:10102000BDF8403001939DF844B09DF848A04FEAC8
:101030005B071BF00E0318BF012303EB1B130BFB15
:1010400003F30293203AD3B2059300EB5B0292B212
:101050000BEB01039BB2013B013A9BB292B200F051
:1010600045F926464FF000094D46CDF80CB0A34691
:1010700050E0059B03EB4302464B03EB820313F85E
:101080000980002424E0444B059A03EB021313F873
:101090000980F6E7059B03EB4302404B03EB021389
:1010A00013F80980EDE73E4B059A03EB821313F822
:1010B0000980E6E7019800F0FBF80135EDB2B5FBD9
:1010C000F7F307FB135313F0FF035DD00134E4B2D1
:1010D000072C1BD8BAF1000F08D148FA04F313F01B
:1010E000010FE7D0009800F0E3F8E6E748FA04F3D0
:1010F00013F0010F42D10136B6B2A6EB0B03BB428F
:10110000E4D1049B01339BB204935E4609F10109CB
:101110001FFA89F9029B994538D2039B0C3B142B8B
:1011200034D801A252F823F0731000088D11000882
:101130008D1100088D110008871000088D1100081E
:101140008D1100088D1100088D1100088D11000807
:101150008D1100088D110008951000088D110008F0
:101160008D1100088D1100088D1100088D110008E7
:101170008D1100088D110008A7100008009A04992D
:101180003046FFF73DFFB6E71D46BFE707B0BDE8B5
:10119000F08F00BF84350008F8390008E83F0008E8
:1011A000B85100082DE9F04784B00446884615463A
:1011B0001F46BDF830A09DF834609DF838900DE0D2
:1011C000CDF808900196CDF800A03B464146204658
:1011D000FFF720FF04EB5604A4B201352A78002A59
:1011E000EED104B0BDE8F0872DE9F047924698466D
:1011F000089F821892B2CB189BB2013B013A9BB276
:1012000092B200F073F80025A94611E06E0017F8BD
:10121000150000F049F80136B85D00F045F80135D9
:101220000134A4B24445F1D309F101091FFA89F947
:10123000D14501D20024F5E7BDE8F08738B5044672
:10124000002240211648FFF7C9FB00250FE00022CD
:101250004FF400711248FFF7C1FB01224FF4807177
:101260001048FFF7BBFB6400E4B20135EDB2072D77
:101270000FD800224FF480710A48FFF7AFFB14F03B
:10128000800FE4D001224FF400710548FFF7A6FB60
:10129000E3E7012240210248FFF7A0FB38BD00BF71
:1012A000001001400008014008B5FFF7C7FF08BD66
:1012B00010B50446000AFFF7C1FFE0B2FFF7BEFF1A
:1012C00010BD000038B50446074D00228021284695
:1012D000FFF784FB2046FFF7B1FF0122802128465B
:1012E000FFF77CFB38BD00BF00100140F8B5074692
:1012F0000D4616461C462A20FFF7E4FF3846FFF746
:10130000D7FF3046FFF7D4FF2B20FFF7DBFF28463F
:10131000FFF7CEFF2046FFF7CBFF2C20FFF7D2FFD1
:10132000F8BD000038B501224FF48071FC48FFF78A
:1013300055FB01224FF47071FA48FFF74FFBFA4C4E
:1013400001224FF400412046FFF748FBF74D0022F1
:101350004FF480712846FFF741FB642000F00AFB40
:1013600001224FF480712846FFF738FB642000F01B
:1013700001FB01224FF400412046FFF72FFB6420C0
:1013800000F0F8FAEF20FFF79DFFEB20FFF79AFF40
:101390001420FFF789FFFE20FFF794FFEF20FFF7EF
:1013A00091FFEB20FFF78EFF1420FFF77DFF8420D5
:1013B000FFF788FF4020FFF777FF8520FFF782FFC8
:1013C000FF20FFF771FF8620FFF77CFFFF20FFF76C
:1013D0006BFF8720FFF776FFFF20FFF765FF882070
:1013E000FFF770FF0A20FFF75FFF8920FFF76AFF12
:1013F0002120FFF759FF8A20FFF764FF0020FFF745
:1014000053FF8B20FFF75EFF8020FFF74DFF8C20FE
:10141000FFF758FF0120FFF747FF8D20FFF752FF2E
:101420000120FFF741FF8E20FFF74CFFFF20FFF761
:101430003BFF8F20FFF746FFFF20FFF735FFB62069
:10144000FFF740FF0020FFF72FFF2020FFF72CFFC2
:101450003620FFF737FF0820FFF726FF3A20FFF777
:1014600031FF0520FFF720FF9020FFF72BFF08201A
:10147000FFF71AFF0820FFF717FF0820FFF714FFF8
:101480000820FFF711FFBD20FFF71CFF0620FFF724
:101490000BFFBC20FFF716FF0020FFF705FFFF2022
:1014A000FFF710FF6020FFF7FFFE0120FFF7FCFEB3
:1014B0000420FFF7F9FEC320FFF704FF1320FFF716
:1014C000F3FEC420FFF7FEFE1320FFF7EDFEC92058
:1014D000FFF7F8FE2220FFF7E7FEBE20FFF7F2FE3F
:1014E0001120FFF7E1FEE120FFF7ECFE1020FFF7EF
:1014F000DBFE0E20FFF7D8FEDF20FFF7E3FE212002
:10150000FFF7D2FE0C20FFF7CFFE0220FFF7CCFE44
:10151000F020FFF7D7FE4520FFF7C6FE0920FFF7B2
:10152000C3FE0820FFF7C0FE0820FFF7BDFE2620FF
:10153000FFF7BAFE2A20FFF7B7FEF120FFF7C2FE41
:101540004320FFF7B1FE7020FFF7AEFE7220FFF7D9
:10155000ABFE3620FFF7A8FE3720FFF7A5FE6F2071
:10156000FFF7A2FEF220FFF7ADFE4520FFF79CFE3D
:101570000920FFF799FE0820FFF796FE0820FFF7E5
:1015800093FE2620FFF790FE2A20FFF78DFEF32022
:10159000FFF798FE4320FFF787FE7020FFF784FED9
:1015A0007220FFF781FE3620FFF77EFE3720FFF71F
:1015B0007BFE6F20FFF778FEED20FFF783FE1B20F8
:1015C000FFF772FE0B20FFF76FFEAE20FFF77AFEEB
:1015D0007720FFF769FECD20FFF774FE6320FFF749
:1015E00063FE7020FFF76EFE0720FFF75DFE072009
:1015F000FFF75AFE0420FFF757FE0E20FFF754FEB8
:101600000F20FFF751FE0920FFF74EFE0720FFF7DE
:101610004BFE0820FFF748FE0320FFF745FEE820B9
:10162000FFF750FE3420FFF73FFE6220FFF74AFE2F
:101630001820FFF739FE0D20FFF736FE7120FFF767
:1016400033FEED20FFF730FE7020FFF72DFE7020F7
:10165000FFF72AFE1820FFF727FE0F20FFF724FED2
:101660007120FFF721FEEF20FFF71EFE7020FFF72D
:101670001BFE7020FFF718FE6320FFF723FE1820E3
:10168000FFF712FE1120FFF70FFE7120FFF70CFE8F
:10169000F120FFF709FE7020FFF706FE7020FFF72C
:1016A00003FE1820FFF700FE1320FFF7FDFD712059
:1016B000FFF7FAFDF320FFF7F7FD7020FFF7F4FDC9
:1016C0007020FFF7F1FD6420FFF7FCFD2820FFF7F5
:1016D000EBFD2920FFF7E8FDF120FFF7E5FD0120F4
:1016E000FFF7E2FDF120FFF7DFFD0020FFF7DCFD53
:1016F0000720FFF7D9FD6620FFF7E4FD3C20FFF748
:10170000D3FD0020FFF7D0FDCD20FFF7CDFD6720F2
:10171000FFF7CAFD4520FFF7C7FD452008E000BFE1
:101720000008014000140140000C0140001001407D
:10173000FFF7BAFD1020FFF7B7FD0020FFF7B4FD5B
:101740000020FFF7B1FD0020FFF7AEFD6720FFF797
:10175000B9FD0020FFF7A8FD3C20FFF7A5FD002004
:10176000FFF7A2FD0020FFF79FFD0020FFF79CFD83
:101770000120FFF799FD5420FFF796FD1020FFF799
:1017800093FD3220FFF790FD9820FFF78DFD742028
:10179000FFF798FD1020FFF787FD8520FFF784FDF8
:1017A0008020FFF781FD0020FFF77EFD0020FFF77E
:1017B0007BFD4E20FFF778FD0020FFF775FD982098
:1017C000FFF780FD3E20FFF76FFD0720FFF76CFD60
:1017D0003520FFF777FD2120FFF774FD1120FFF77B
:1017E00071FD782000F0C6F82920FFF76BFD14206A
:1017F00000F0C0F838BD00BFEFF3058393B9EFF3F5
:10180000108393B90C4B1868022804D080B90A4B96
:1018100001221A607047EFF31183002BF6D06FF0AE
:10182000050070476FF0050070476FF005007047C6
:101830004FF0FF30704700BF9002002008B5EFF373
:101840000583B3B9EFF31083B3B90E4B1B68022BBA
:1018500008D0012B13D10B4B02221A6001F0CEF8F5
:10186000002008BDEFF31182002AF2D06FF00500CE
:10187000F7E76FF00500F4E76FF00500F1E74FF0D0
:10188000FF30EEE790020020F0B587B0002404940A
:10189000EFF30584002C43D1EFF31083002B3FD1ED
:1018A000334B1B68022B16D0002839D000238DF84B
:1018B000173062B3156895B1936903B918235C1E9C
:1018C000372C51D8546814F0010F4FD156694EB1DE
:1018D0004FEA960C08E0EFF311830BBBE4E70DF140
:1018E0001705E9E74FF0800C94682CB1D7685B2F9F
:1018F00002D9176907B1B6B914B14FF0FF340CE043
:10190000D46894B914699CB14FF0FF3405E0002409
:1019100018234FF0800C0DF11705012C0AD0ACB143
:10192000049807B0F0BD0124F7E74FF0FF34F4E767
:101930000024F2E7146992680292019400930B4626
:101940006246294600F0ECFF0490E9E704AA019200
:1019500000930B461FFA8CF2294601F01BF8012870
:10196000DED000230493DBE70020DAE70020D8E78D
:101970009002002008B5EFF30583A3B9EFF31083BD
:10198000A3B90C4B1B68022B02D040B9002008BD44
:10199000EFF31183002BF8D06FF00500F7E701F0AB
:1019A00091F90020F3E76FF00500F0E76FF0050014
:1019B000EDE700BF90020020034B0360034B0B6078
:1019C00080231360704700BF3402002034000020E1
:1019D000034B0360034B0B604FF48073136070473D
:1019E000940600209402002000F1080343604FF0A9
:1019F000FF328260C36003610023036070470023ED
:101A00000361704743684B609A688A6051609960CF
:101A10000861036801330360704730B40D68B5F1A5
:101A2000FF3F11D000F108031C465B681A68AA4208
:101A3000FAD963684B6099608C60616008610368E3
:101A40000133036030BC70470469F2E70369416801
:101A500082688A60416851605A68824206D00022DA
:101A600002611A68013A1A601868704782685A6001
:101A7000F5E7000082B0002301930D4B1B68B3F122
:101A8000FF3F08D04FF0500383F31188BFF36F8FEF
:101A9000BFF34F8FFEE74FF0500383F31188BFF37E
:101AA0006F8FBFF34F8F019B002BFCD002B07047AC
:101AB0000C00002006480068006880F3088862B6C1
:101AC00061B6BFF34F8FBFF36F8F00DF00BF000021
:101AD00008ED00E04FF0807340F8043C21F0010174
:101AE00040F8081C034B40F80C3C40F8202C4038D0
:101AF000704700BF751A00080000000000000000D9
:101B0000074B19680868B0E8F00F80F30988BFF345
:101B10006F8F4FF0000080F311884EF00D0E70476C
:101B2000501300204FF0500383F31188BFF36F8FE1
:101B3000BFF34F8F0B4A136801331360012B00D0A2
:101B400070474FF0E023D3F8043D13F0FF0FF7D0B8
:101B50004FF0500383F31188BFF36F8FBFF34F8FA4
:101B6000FEE700BF0C000020094B1B6843B94FF093
:101B7000500383F31188BFF36F8FBFF34F8FFEE7DE
:101B8000013B034A13600BB983F31188704700BF10
:101B90000C00002000000000000000000000000019
:101BA000EFF30980BFF36F8F0D4B1A6820E9F00F38
:101BB00010602DE908404FF0500080F3118801F0CB
:101BC000A7F84FF0000080F31188BDE808401968BD
:101BD0000868B0E8F00F80F30988BFF36F8F704793
:101BE0005013002008B54FF0500383F31188BFF362
:101BF0006F8FBFF34F8F00F05DFF28B14FF0E023F0
:101C00004FF08052C3F8042D002383F3118808BDE0
:101C10004FF0E022002313619361054B1B680549D7
:101C2000A1FB03139B09013B536107231361704719
:101C300000000020D34D621010B582B02A4B1A78F4
:101C4000D2B20192FF221A701B78DBB28DF80330FA
:101C50009DF8033003F05003244A1370244B0722ED
:101C60001A6009E0224A1368013B13609DF80330B3
:101C70005B00DBB28DF803309DF8033013F0800F6A
:101C8000F0D11B4B1B68032B08D04FF0500383F39C
:101C90001188BFF36F8FBFF34F8FFEE71B02144A0B
:101CA000136003F4E0631360019BDBB20E4A137010
:101CB0004FF0E023D3F8202D42F47002C3F8202D1A
:101CC000D3F8202D42F07042C3F8202DFFF7A0FF7B
:101CD0000024084B1C60FFF7EDFE01F019F8FFF738
:101CE000C9FE204602B010BD00E400E0F00600206E
:101CF000F40600200C000020EFF305830F2B0FD912
:101D0000114A9B5CDBB2114A12789A4208D94FF013
:101D1000500383F31188BFF36F8FBFF34F8FFEE73C
:101D20004FF0E023D3F80C3D03F4E063084A126857
:101D3000934208D94FF0500383F31188BFF36F8F9C
:101D4000BFF34F8FFEE77047F0E300E0F00600209E
:101D5000F4060020124A12F0070F1ED0D11D21F008
:101D60000701C1F5406313440A460E480260002192
:101D700041601344083B23F007030B48036059609C
:101D80001960991A51601360084B1960084B19606B
:101D9000084B4FF000421A6070474FF44063E4E78D
:101DA000FC06002008130020F80600200413002081
:101DB00000130020FC120020154B1A461B688342BA
:101DC000FBD3516802EB010C844509D0416800EB5C
:101DD000010C634509D00360904218D01060704731
:101DE0004068014451601046F0E710B4094C246883
:101DF000A3420AD05B681944416013681B68036002
:101E0000904200D0106010BC70470460F8E7704743
:101E100008130020F806002070B5054600F03CFECF
:101E2000344B1B68A3B1344B1B681D424AD135B1FA
:101E3000083515F0070F02D025F007050835002DED
:101E400042D02E4B1B68AB424DD32D4A146804E0A0
:101E5000FFF780FFE7E722461C466368AB4202D2E9
:101E60002368002BF7D1234B1B68A3423DD0166893
:101E700008362368136063685B1B102B10D9601948
:101E800010F0070F08D04FF0500383F31188BFF311
:101E90006F8FBFF34F8FFEE743606560FFF78CFFE6
:101EA000626816490B689B1A0B60164909688B42D9
:101EB00001D214490B60104B1B681343636000236D
:101EC000236002E0002600E0002600F07FFE16F00E
:101ED000070F0CD04FF0500383F31188BFF36F8FBF
:101EE000BFF34F8FFEE70026EFE70026EDE7304611
:101EF00070BD00BFF8060020FC1200200013002077
:101F0000081300200413002080B338B50446A0F164
:101F1000080550F8043C164A1268134208D14FF0E5
:101F2000500383F31188BFF36F8FBFF34F8FFEE72A
:101F300050F8081C41B14FF0500383F31188BFF3F0
:101F40006F8FBFF34F8FFEE723EA020340F8043C94
:101F500000F0A2FD54F8041C064A13680B441360F9
:101F60002846FFF729FF00F031FE38BD704700BF5B
:101F7000FC1200200013002010B50446FFF7D2FD2C
:101F8000A26BE36B9A4204D00024FFF7EDFD2046DC
:101F900010BD0124F9E710B50446FFF7C3FDA36B9C
:101FA00023B90124FFF7E0FD204610BD0024F9E726
:101FB00070B504461546866B026C5AB903681BB1AE
:101FC00000200136A66370BD406800F0C9FF002301
:101FD0006360F6E76DB98068FEF70AF9226CA368C2
:101FE0001344A3606268934219D32368A360284610
:101FF000E7E7C068FEF7FCF8226C5142E3689B1AE1
:10200000E3602268934202D263680B44E360022DCE
:1020100001D00020D5E726B1013E0020D1E72846B7
:10202000CFE70020CDE708B50346026C62B1084651
:10203000D9681144D960D3F804C0614501D3196847
:10204000D960D968FEF7D4F808BD38B50546FFF762
:1020500069FD95F8454064B201E0013C64B2002C92
:102060000ADD6B6A43B105F1240000F0CFFE0028C1
:10207000F3D000F05FFFF0E7FF2385F84530FFF76E
:1020800073FDFFF74FFD95F8444064B201E0013C59
:1020900064B2002C0ADD2B6943B105F1100000F099
:1020A000B5FE0028F3D000F045FFF0E7FF2385F8E8
:1020B0004430FFF759FD38BD38B5E0B10D46044650
:1020C000FFF730FD2368E26B216C01FB023060609A
:1020D0000020A063A360013A02FB0133E360FF2309
:1020E00084F8443084F84530FDB9236963B9FFF7BB
:1020F0003BFD012038BD4FF0500383F31188BFF33F
:102100006F8FBFF34F8FFEE704F1100000F07EFEEB
:102110000028ECD04FF0E0234FF08052C3F8042D9C
:10212000BFF34F8FBFF36F8FE1E704F11000FFF7AC
:102130005BFC04F12400FFF757FCD8E738B51D46D7
:10214000049C0B4649B92460E063236401212046C6
:10215000FFF7B2FF84F84C5038BD2260F4E740B975
:102160004FF0500383F31188BFF36F8FBFF34F8F8E
:10217000FEE710B584B01C46844653B192B189B9CC
:102180004FF0500383F31188BFF36F8FBFF34F8F6E
:10219000FEE74FF0500383F31188BFF36F8FBFF357
:1021A0004F8FFEE76AB150230393039B502B13D04C
:1021B0004FF0500383F31188BFF36F8FBFF34F8F3E
:1021C000FEE70029EFD04FF0500383F31188BFF3EF
:1021D0006F8FBFF34F8FFEE7012384F846300094E2
:1021E0009DF818306046FFF7A9FF204604B010BDE7
:1021F000F0B585B0019288B10F461D460446B1B1D5
:10220000022D20D1E36B012B1DD04FF0500383F33F
:102210001188BFF36F8FBFF34F8FFEE74FF050036E
:1022200083F31188BFF36F8FBFF34F8FFEE7036C0B
:10223000002BE5D04FF0500383F31188BFF36F8F6D
:10224000BFF34F8FFEE700F07BFE064658B9019BB7
:10225000002B48D04FF0500383F31188BFF36F8FEA
:10226000BFF34F8FFEE700263DE02A463946204661
:10227000FFF79EFE636A7BB948B14FF0E0234FF051
:102280008052C3F8042DBFF34F8FBFF36F8FFFF75A
:102290006BFC012005B0F0BD04F1240000F0B6FD98
:1022A0000028F4D04FF0E0234FF08052C3F8042D03
:1022B000BFF34F8FBFF36F8FE9E7FFF755FC0020A7
:1022C000E8E702A800F0E8FD012619E0002384F801
:1022D000443021E0002384F8453023E02046FFF716
:1022E000B4FE00F073FCFFF71DFCA26BE36B9A4297
:1022F000BBD3022DB9D0019B002BDED0002EE0D045
:10230000FFF732FC00F0C8FBFFF70CFC94F8442008
:1023100052B2B2F1FF3FD9D094F8452052B2B2F197
:10232000FF3FD7D0FFF720FC01A902A800F0C0FDB5
:10233000D8B92046FFF720FE0028CFD0019904F13C
:10234000100000F02FFD2046FFF77FFE00F03EFC5E
:102350000028C8D14FF0E0234FF08052C3F8042D7D
:10236000BFF34F8FBFF36F8FBDE72046FFF76DFEC2
:1023700000F02CFC00208DE72DE9F84390B10F46CA
:1023800016461C460546B1B1022C20D1EB6B012B41
:102390001DD04FF0500383F31188BFF36F8FBFF34D
:1023A0004F8FFEE74FF0500383F31188BFF36F8F19
:1023B000BFF34F8FFEE7036C002BE5D04FF05003C7
:1023C00083F31188BFF36F8FBFF34F8FFEE7FFF7E3
:1023D00093FCEFF311884FF0500383F31188BFF3A0
:1023E0006F8FBFF34F8FAA6BEB6B9A4206D3022C11
:1023F00004D0002088F31188BDE8F88395F8459053
:102400004FFA89F9224639462846FFF7D1FDB9F13E
:10241000FF3F06D009F101035BB285F8453001208A
:10242000E8E76B6A0BB90120E4E705F1240000F04E
:10243000EDFC18B126B101203060DBE70120D9E7BF
:102440000120D7E7F0B585B0019290B10F46044660
:10245000C1B100F075FD064600BB019B002B5ED0AC
:102460004FF0500383F31188BFF36F8FBFF34F8F8B
:10247000FEE74FF0500383F31188BFF36F8FBFF374
:102480004F8FFEE7036C002BE3D04FF0500383F334
:102490001188BFF36F8FBFF34F8FFEE700263EE03A
:1024A00039462046FFF7BFFD013DA563236923B9E7
:1024B000FFF75AFB012005B0F0BD04F1100000F059
:1024C000A5FC0028F4D04FF0E0234FF08052C3F871
:1024D000042DBFF34F8FBFF36F8FE9E7FFF744FB86
:1024E0000020E8E702A800F0D7FC012621E0002345
:1024F00084F8443029E0002384F845302BE020465E
:10250000FFF7A3FD00F062FB09E02046FFF79DFD09
:1025100000F05CFB2046FFF73EFD00283FD1FFF7AF
:1025200001FBA56B002DBBD1019B002BD6D0002E4B
:10253000D8D0FFF719FB00F0AFFAFFF7F3FA94F8E1
:1025400044305BB2B3F1FF3FD1D094F845305BB279
:10255000B3F1FF3FCFD0FFF707FB01A902A800F0BE
:10256000A7FC0028D1D12046FFF715FD0028C6D0D2
:10257000019904F1240000F015FC2046FFF765FDE9
:1025800000F024FB0028CAD14FF0E0234FF0805226
:10259000C3F8042DBFF34F8FBFF36F8FBFE7002049
:1025A00089E700000023072B0CD8074A52F8332094
:1025B0000AB10133F7E7044A42F8331002EBC302D1
:1025C00050607047704700BF1013002070B504467C
:1025D0000D461646FFF7A6FA94F844305BB2B3F105
:1025E000FF3F0DD094F845305BB2B3F1FF3F0BD005
:1025F000FFF7BAFAA36B5BB12046FFF726FD70BD6B
:10260000002384F84430EDE7002384F84530EFE7F9
:102610003246294604F1240000F0DCFBECE7000020
:10262000084B1B681B6823B9074B4FF0FF321A6039
:102630007047044B1B68DB68DB685A68024B1A6002
:10264000704700BF54130020001800202DE9F04708
:1026500080460D4617469946089EDDF824A00A9C40
:102660009200A521206B00F0FFFE236B07F1804252
:10267000013A03EB820727F007074FF0000CBCF18B
:102680000F0F09D815F80C3004EB0C0282F8343027
:1026900013B10CF1010CF2E7002384F84330372E1C
:1026A00000D93726E662E66400252565201DFFF780
:1026B000A6F904F11800FFF7A2F92461C6F1380663
:1026C000A6616462656584F858504A4641463846BA
:1026D000FFF700FA2060BAF1000F01D0CAF80040FD
:1026E000BDE8F08738B5002407E004EB84029300CE
:1026F0000E481844FFF778F90134372CF5D90C4D02
:102700002846FFF771F90B4C2046FFF76DF90A4890
:10271000FFF76AF90948FFF767F90948FFF764F915
:10272000084B1D60084B1C6038BD00BF5C130020C7
:10273000D4170020E81700200818002034180020C3
:1027400020180020541300205813002010B5044610
:10275000FFF7E8F9224A136801331360214B1B6825
:102760005BB1214B1B686BB91E4B1B68DA6AE36ACD
:102770009A4207D81B4B1C6004E01A4B1C6013687C
:10278000012B29D0194A1368013313606364E06A8E
:10279000174B1B68984201D9154B186000EB80005D
:1027A000211D144B03EB8000FFF72CF9FFF7DCF938
:1027B0000D4B1B687BB10B4B1B68DA6AE36A9A42CC
:1027C00009D24FF0E0234FF08052C3F8042DBFF33D
:1027D0004F8FBFF36F8F10BDFFF784FFD2E700BFAD
:1027E000BC170020501300201C180020CC1700201C
:1027F000D01700205C13002010B5044690F8593023
:1028000063B1012B11D0022B0ED04FF0500383F394
:102810001188BFF36F8FBFF34F8FFEE7006BFFF799
:1028200073FB2046FFF770FB10BDFFF76DFBFBE766
:102830000F4B1B68D3B110B5FFF774F90D4BDB6874
:10284000DC68201DFFF702F90B4A1368013B136097
:10285000074A1368013B1360FFF786F92046FFF72C
:10286000CBFF034B1B68002BE6D110BD704700BFA8
:10287000C017002034180020BC17002008B5FFF74F
:10288000D7FF074B1B68012BF9D94FF0E0234FF01E
:102890008052C3F8042DBFF34F8FBFF36F8FEEE765
:1028A0005C13002070B504460D46174B1E68174B8D
:1028B00018680430FFF7CAF8B4F1FF3F0DD0344474
:1028C000124B1B685C60A64210D9114B18680F4B65
:1028D00019680431FFF7A1F870BD002DEFD00B4B44
:1028E000196804310B48FFF78DF8F5E70A4B1868B3
:1028F000064B19680431FFF790F8084B1B68A34298
:10290000EAD9064B1C60E7E7481800205013002066
:102910005813002020180020541300200018002015
:1029200030B587B00B9C7CB10C9DB5B15C2504958E
:10293000049D5C2D1AD04FF0500383F31188BFF330
:102940006F8FBFF34F8FFEE74FF0500383F3118873
:10295000BFF36F8FBFF34F8FFEE74FF0500383F34A
:102960001188BFF36F8FBFF34F8FFEE70C9D2C6371
:10297000022485F8594000240394029505AC019483
:102980000A9C0094FFF762FE0C98FFF7DFFE0598A3
:1029900007B030BD2DE9F04385B0074688461446A0
:1029A0001E469000FFF738FA00B381465C20FFF71F
:1029B00033FA0546B0B1C0F83090E5B1002385F890
:1029C0005930039302950D9B01930C9B0093334662
:1029D000224641463846FFF739FE2846FFF7B6FE45
:1029E000012005E04846FFF78FFAE6E74FF0FF3099
:1029F00005B0BDE8F0834FF0FF30F9E710B588B0BF
:102A000000240594069407AA06A905A8FEF7D4FF9A
:102A1000059B0293069B019300942346079A18494D
:102A20001848FFF77DFF184B186040B100F04CFBD1
:102A3000012806D0B0F1FF3F18D008B010BD00202B
:102A4000F6E74FF0500383F31188BFF36F8FBFF3A6
:102A50004F8F0E4B4FF0FF321A600D4B01221A6060
:102A60000C4B00221A60FFF7E7F8E6E74FF050033F
:102A700083F31188BFF36F8FBFF34F8FFEE700BF63
:102A8000786900087D280008FC1700200018002045
:102A90001C18002048180020024A136801331360F4
:102AA000704700BFC8170020014B1868704700BF6F
:102AB00048180020F8B53A4B1B68002B64D1394BFD
:102AC0001D6801351D60C5B9374B1B681B6843B1D4
:102AD0004FF0500383F31188BFF36F8FBFF34F8F15
:102AE000FEE7314A1168314B186810601960304AAE
:102AF000136801331360FFF793FD2E4B1B68AB4245
:102B000038D900272C4B1B68DB6A03EB83039A0040
:102B10002A4B9B58012B3CD901273AE00127224B35
:102B20001B681B6843B3204B1B68DB68DC68636869
:102B30009D4226D3261D3046FEF788FFA36A1BB1AF
:102B400004F11800FEF782FFE36A1D4A12689342FF
:102B500001D91B4A136003EB83039A0031461748DF
:102B60001044FEF74FFFE26A134B1B68DB6A9A4280
:102B7000D4D2D4E70027D2E70E4B4FF0FF321A60D1
:102B8000C0E70C4A1360BDE70E4A136801331360B7
:102B900000270D4B1B6803B101273846F8BD00BF65
:102BA000C817002048180020541300205813002094
:102BB0000418002000180020501300205C1300208F
:102BC000D0170020C41700204C18002038B5354B12
:102BD0001B6843B94FF0500383F31188BFF36F8F25
:102BE000BFF34F8FFEE7FEF79DFF2E4B1A68013AA9
:102BF0001A601B68002B4FD12B4B1B680BB90024AC
:102C00004BE00024294B1B681BB3284BDB68DC68B6
:102C100004F11800FEF71AFF251D2846FEF716FFDF
:102C2000E06A234B1B68984201D9214B186000EBE6
:102C3000800029461F4B03EB8000FEF7E3FEE26AAB
:102C40001D4B1B68DB6A9A42DCD31C4B01221A60C5
:102C5000D8E70CB1FFF7E4FC194B1C6884B9174B9B
:102C60001C68D4B14FF0E0234FF08052C3F8042D1C
:102C7000BFF34F8FBFF36F8F01240EE0013C07D0ED
:102C8000FFF718FF0028F9D00C4B01221A60F5E776
:102C90000B4B00221A60E2E70024FEF765FF204696
:102CA00038BD00BFC8170020BC170020081800203E
:102CB000D01700205C130020501300204C18002077
:102CC000C417002010B5A8B10446104B1B6843B1CF
:102CD0004FF0500383F31188BFF36F8FBFF34F8F13
:102CE000FEE7FFF7D9FE00212046FFF7DBFDFFF7E7
:102CF0006DFF48B94FF0E0234FF08052C3F8042D28
:102D0000BFF34F8FBFF36F8F10BD00BFC8170020F8
:102D10001F4B1B681BB11F4B01221A6070471D4BD4
:102D200000221A601C4B1B6803EB83018A001B49BD
:102D30008A585AB90BB1013BF6E74FF0500383F3C1
:102D40001188BFF36F8FBFF34F8FFEE703EB830054
:102D500082000A4450684068506003EB830C4FEADD
:102D60008C020832114488420BD003EB830291009D
:102D70000A4A0A445268D168094A1160064A136037
:102D80007047406862469100044A0A445060ECE78C
:102D9000C81700204C180020D01700205C1300201A
:102DA0005013002058B110B50C46094A116818316B
:102DB000FEF733FE01212046FFF774FD10BD4FF0F2
:102DC000500383F31188BFF36F8FBFF34F8FFEE77C
:102DD0005013002038B570B10D4614460A4A1168E8
:102DE0001831FEF70FFE0CB14FF0FF352146284693
:102DF000FFF758FD38BD4FF0500383F31188BFF340
:102E00006F8FBFF34F8FFEE75013002038B5C368B4
:102E1000DC6824B304F118052846FEF717FE184BAA
:102E20001B682BBB251D2846FEF710FEE06A154BDC
:102E30001B68984201D9134B186000EB80002946AB
:102E4000114B03EB8000FEF7DDFDE26A0F4B1B68C0
:102E5000DB6A9A4211D901200D4B186038BD4FF042
:102E6000500383F31188BFF36F8FBFF34F8FFEE7DB
:102E700029460848FEF7C6FDE7E70020EEE700BF59
:102E8000C8170020D01700205C130020501300202A
:102E90004C18002008180020034B1B680360034BEC
:102EA0001B684360704700BF0418002048180020CA
:102EB000D8B170B50C46054601B3FEF733FE1B4B87
:102EC00019686B68C81A2268B2F1FF3F27D0184E04
:102ED0003668D5F800C0B44501D08B4224D982426F
:102EE00015D80023236001241AE04FF0500383F328
:102EF0001188BFF36F8FBFF34F8FFEE74FF0500382
:102F000083F31188BFF36F8FBFF34F8FFEE75B1A18
:102F1000134423602846FFF7BFFF002400E000248D
:102F2000FEF722FE204670BD0124F9E74818002074
:102F300004180020014B01221A6070474C18002031
:102F4000054B1B6833B1054B1B680BB10020704764
:102F500002207047012070471C180020C81700206D
:102F600000283BD038B504461E4B1B68834208D06E
:102F70004FF0500383F31188BFF36F8FBFF34F8F70
:102F8000FEE7036D43B94FF0500383F31188BFF39D
:102F90006F8FBFF34F8FFEE7013B0365C16AC26CC1
:102FA00091421DD00BB1002038BD051D2846FEF70B
:102FB0004DFDE06CE062C0F13803A3610A4B1B6871
:102FC000984201D9084B186000EB80002946074B56
:102FD00003EB8000FEF716FD0120E5E700207047B7
:102FE0000020E1E750130020D01700205C130020E0
:102FF000064B1A681368B3FA83F35B09036013B9CD
:10300000D368186870470020704700BF5018002030
:1030100008B54160006191420CD8D21A83699A4286
:1030200001D3012008BD011D094B1868FEF7F5FC0E
:103030000020F7E79A4201D2994206D2011D054BC2
:103040001868FEF7EAFC0020ECE70120EAE700BF81
:10305000541800205018002030B583B0FEF762FDF0
:10306000114B1B681BB1FEF77FFD03B030BD0F4D48
:103070002846FEF7B9FC0E4C2046FEF7B5FC0D4B7A
:103080001D600D4B1C60002300930C4B0C4A10215B
:103090000A20FFF764F8044B18600028E3D00949C0
:1030A000FFF780FADFE700BF74190020F81800204E
:1030B0000C1900205018002054180020241900205A
:1030C000581800208069000810B588B0FFF7C4FFC9
:1030D000124B1B68CBB100240594069407AA06A9DD
:1030E00005A8FEF775FC059B0293069B019302233E
:1030F00000932346079A0A490A48FFF711FC0A4B36
:10310000186010B1012008B010BD4FF0500383F3D8
:103110001188BFF36F8FBFF34F8FFEE77419002044
:10312000886900080934000878190020B8B19C4665
:1031300003461848006858B300B585B00091019265
:10314000029305291CDCFFF7FBFE022810D00023A8
:103150001A4669460F480068FFF74AF815E04FF035
:10316000500383F31188BFF36F8FBFF34F8FFEE7D8
:103170000023069A694607480068FFF739F804E01B
:10318000002362466946FFF7F7F805B05DF804FBD7
:10319000002070477419002070B582B01A4B1B686C
:1031A0001A6852B3DB681E68DC68251D2846FEF7E6
:1031B0004DFC636A20469847E369012BEED1A36971
:1031C00033449E4207D26360246129460E4B18683F
:1031D000FEF723FCE2E7002100910B463246204631
:1031E000FFF7A4FF0028D9D14FF0500383F31188D3
:1031F000BFF36F8FBFF34F8FFEE7044A1068024999
:103200000860136002B070BD5018002054180020F0
:1032100038B50546FFF748FC0446074B1B68834258
:1032200005D800232B60044B1C60204638BDFFF7F7
:10323000B3FF01232B60F6E72019002070B582B0A0
:1032400006460D4614490968C968CC68201DFEF77A
:10325000FDFBE169012904D0636A2046984702B06A
:1032600070BDA16933462A4631442046FFF7D0FE9F
:103270000028F1D0002100910B4632462046FFF78E
:1032800055FF0028E8D14FF0500383F31188BFF3B6
:103290006F8FBFF34F8FFEE75018002070B582B0DC
:1032A00006460C46FFF7F8FB01A8FFF7B1FF019BAC
:1032B0002BBB05460CB9B0421AD22CB1124B1B687D
:1032C0001C68B4FA84F464092246711B0F4B186819
:1032D000FFF77CF9FFF77AFC98B94FF0E0234FF045
:1032E0008052C3F8042DBFF34F8FBFF36F8F08E0F8
:1032F000FFF76CFC29463046FFF7A0FF01E0FFF71F
:1033000065FC02B070BD00BF541800207419002085
:1033100010B588B002E0049B002B0FDA002204A94C
:10332000384B1868FFF78EF8002869D0049B002BF3
:10333000F1DA07990698059B9847ECE7069C6369C4
:1033400013B1201DFEF782FB03A8FFF761FF049B6A
:10335000092BE3D801A252F823F000BF85330008FF
:1033600085330008853300081D330008CB3300087F
:10337000F133000885330008853300081D33000849
:10338000CB330008059BA169024619442046FFF78C
:103390003FFE0028C2D0636A20469847E369012BAC
:1033A000BCD1A269002100910B4605980244204639
:1033B000FFF7BCFE0028B1D14FF0500383F3118812
:1033C000BFF36F8FBFF34F8FFEE70599A16131B156
:1033D0000346024601442046FFF71AFE9EE74FF0DF
:1033E000500383F31188BFF36F8FBFF34F8FFEE756
:1033F00094F82C30002B91D12046FEF785FD8DE707
:1034000008B010BD7419002000B583B001A8FFF703
:10341000EFFD0199FFF742FFFFF77AFFF6E70000A3
:1034200070B50D4E0D4D761BB61006D0002455F824
:10343000043B01349847A642F9D1094E094D00F0EA
:1034400065F8761BB61006D0002455F8043B01340D
:103450009847A642F9D170BD90ED030890ED03089E
:1034600094ED030890ED0308830730B548D0541E4F
:10347000002A3FD00346CAB201E0013C3AD303F828
:10348000012B9D07F9D1032C2DD9CDB245EA052595
:103490000F2C45EA054536D9A4F1100222F00F0C95
:1034A00003F1200EE6444FEA121C03F1100242E938
:1034B000045542E9025510327245F8D10CF101026F
:1034C00014F00C0F03EB021204F00F0C13D0ACF14C
:1034D000040323F003030433134442F8045B9342D0
:1034E000FBD10CF003042CB1C9B21C4403F8011B3E
:1034F0009C42FBD130BD64461346002CF4D1F9E761
:1035000003461446BFE71A46A446E0E7F8B500BFF5
:10351000F8BC08BC9E467047F8B500BFF8BC08BCB4
:043520009E4670470C
:1035240048454C4C4F20574F524C440073746172C1
:10353400745461736B000000303500080000000013
:103544000000000000000000000000000002000075
:10355400180000000000000000000000000000004F
:103564000000000001020304060708090203040521
:10357400060708090A0B0C0D0E0F101000000000BE
:10358400000000000000000000000000000004042F
:10359400040404000004000014140A0000000000E5
:1035A4000000000000000A0A1F0A0A1F0A0A00009D
:1035B40000040E1505060C14150E04000000121567
:1035C4000D152E2C2A1200000000040A0A361515C7
:1035D40029160000020201000000000000000000A3
:1035E4001008080404040404080810000204040871
:1035F400080808080404020000000004150E0E1553
:103604000400000000000008083E08080000000054
:1036140000000000000000000202010000000000A1
:10362400003F000000000000000000000000000057
:103634000002000000201010080804040202010027
:1036440000000E1111111111110E000000000406EA
:1036540004040404040E000000000E111108040206
:10366400011F000000000E11100C1010110E0000BC
:103674000000080C0C0A091F081C000000001F01B0
:10368400010F1110110E000000000C12010D131196
:10369400110E000000001E100808040404040000B9
:1036A40000000E11110E1111110E000000000E1178
:1036B40011191610090600000000000004000000A3
:1036C40000040000000000000004000000040400E6
:1036D40000001008040202040810000000000000AA
:1036E4003F003F0000000000000002040810100822
:1036F4000402000000000E1111080404000400007C
:1037040000001C22292D2D1D221C00000000040491
:103714000C0A0A1E1233000000000F12120E1212BD
:10372400120F000000001E1101010101110E000022
:1037340000000F1212121212120F000000001F12CA
:103744000A0E0A02121F000000001F120A0E0A02CB
:103754000207000000001C1201013911120C0000C4
:1037640000003312121E12121233000000001F0454
:1037740004040404041F000000003E0808080808AC
:1037840008080907000037120A060A121237000057
:103794000000070202020202223F000000003B1B5D
:1037A4001B1B15151535000000003B1216161A1ABE
:1037B4001217000000000E1111111111110E00005A
:1037C40000000F12120E02020207000000000E1188
:1037D40011111117190E180000000F12120E0A12FF
:1037E4001237000000001E1101060810110F00001E
:1037F40000001F1504040404040E0000000033122A
:1038040012121212120C000000003312120A0A0CD7
:10381400040400000000151515150E0A0A0A00001C
:1038240000001B0A0A04040A0A1B000000001B0A09
:103834000A0A0404040E000000001F09080404021C
:10384400121F00001C0404040404040404041C00E7
:103854000002020404040808081010000E080808F6
:103864000808080808080E00040A00000000000008
:103874000000000000000000000000000000003F05
:10388400020400000000000000000000000000002E
:10389400000C121C123C000000030202020E121261
:1038A400120E000000000000001C1202120C0000A6
:1038B40000181010101C1212123C0000000000002E
:1038C400000C121E021C000000182404041E040430
:1038D400041E000000000000003C120C021C221C0C
:1038E40000030202020E1212123700000004040048
:1038F40000060404040E000000080800000C080878
:103904000808080700030202021A0A060A13000044
:103914000007040404040404041F00000000000061
:10392400000F15151515000000000000000F1212FD
:103934001237000000000000000C1212120C0000EC
:1039440000000000000F1212120E02070000000017
:10395400001C1212121C103800000000001B06028A
:103964000207000000000000001E020C101E0000F0
:1039740000000004041E0404041C000000000000F5
:10398400001B1212123C000000000000001B0A0A77
:1039940004040000000000000015150E0A0A0000CF
:1039A40000000000001B0A040A1B000000000000C5
:1039B400003312120C08040300000000001E080467
:1039C400041E000018080808080C08080808180055
:1039D4000808080808080808080808080604040471
:1039E4000408040404040600160900000000000092
:1039F40000000000000000000000000000000000C3
:103A0400000000000000000808080808080800007A
:103A14001818000000486C24120000000000000088
:103A2400000000000000002424247F1212127F12E0
:103A3400121200000000081C2A2A0A0C1828282A3E
:103A44002A1C080800000022251515152A5854546C
:103A5400542200000000000C1212120A76252911CB
:103A6400916E000000060604030000000000000040
:103A74000000000000402010100808080808081082
:103A84001020400000020408081010101010100844
:103A9400080402000000000008086B1C1C6B0808E6
:103AA4000000000000000000080808087F0808085B
:103AB40008000000000000000000000000000000FA
:103AC400060604030000000000000000FE000000E1
:103AD40000000000000000000000000000000000E2
:103AE4000606000000008040402020101008080452
:103AF40004020200000000182442424242424242B0
:103B040024180000000000080E0808080808080827
:103B1400083E00000000003C4242422020100804FD
:103B2400427E00000000003C4242201820404042F7
:103B3400221C0000000000203028242422227E20A1
:103B4400207800000000007E0202021A2640404253
:103B5400221C0000000000382402021A26424242BD
:103B6400241800000000007E222210100808080813
:103B7400080800000000003C42424224182442424B
:103B8400423C000000000018244242426458404075
:103B9400241C0000000000000000181800000000B1
:103BA40018180000000000000000000800000000D9
:103BB4000008080400000040201008040204081053
:103BC400204000000000000000007F0000007F0093
:103BD400000000000000000204081020402010082B
:103BE400040200000000003C424246402010100045
:103BF400181800000000001C225A555555552D4236
:103C0400221C00000000000808181414243C22425E
:103C140042E700000000001F2222221E22424242EC
:103C2400221F00000000007C424201010101014208
:103C3400221C00000000001F224242424242424233
:103C4400221F00000000003F4212121E1212024204
:103C5400423F00000000003F4212121E12120202F4
:103C6400020700000000003C222201010171212210
:103C7400221C0000000000E7424242427E424242CF
:103C840042E700000000003E080808080808080889
:103C9400083E00000000007C1010101010101010DE
:103CA4001010110F0000007722120A0E0A121222BD
:103CB4002277000000000007020202020202020250
:103CC400427F000000000077363636362A2A2A2A38
:103CD4002A6B0000000000E346464A4A52525262F0
:103CE400624700000000001C224141414141414122
:103CF400221C00000000003F424242423E020202F7
:103D0400020700000000001C2241414141414D5383
:103D1400321C60000000003F4242423E1212222246
:103D240042C700000000007C4242020418204042C6
:103D3400423E00000000007F4908080808080808FF
:103D4400081C0000000000E7424242424242424254
:103D5400423C0000000000E74242222424141418CC
:103D6400080800000000006B4949494955553622AE
:103D740022220000000000E74224241818182424FA
:103D840042E7000000000077222214140808080803
:103D9400081C00000000007E2120101008040442CA
:103DA400423F0000007808080808080808080808C6
:103DB4000808780000000202040408080810102013
:103DC40020204040001E1010101010101010101071
:103DD40010101E0000384400000000000000000025
:103DE40000000000000000000000000000000000CF
:103DF400000000FF000608000000000000000000B2
:103E040000000000000000000000003C4278444232
:103E140042FC0000000000030202021A2642424251
:103E2400261A0000000000000000003844020202CC
:103E34004438000000000060404040784442424260
:103E440064D80000000000000000003C427E020232
:103E5400423C0000000000F08808087E08080808BA
:103E6400083E0000000000000000007C22221C022A
:103E74003C42423C000000030202023A46424242F3
:103E840042E700000000000C0C00000E08080808BF
:103E9400083E0000000000303000003820202020C0
:103EA4002020221E0000000302020272120A1612CF
:103EB400227700000000000E080808080808080817
:103EC400083E0000000000000000007F92929292E1
:103ED40092B70000000000000000003B464242424E
:103EE40042E70000000000000000003C4242424261
:103EF400423C0000000000000000001B2642424239
:103F0400221E0207000000000000007844424242E2
:103F1400447840E000000000000000774C040404F2
:103F2400041F0000000000000000007C42023C402E
:103F3400423E0000000000000008083E080808088F
:103F440008300000000000000000006342424242CA
:103F540062DC000000000000000000E7422424149A
:103F64000808000000000000000000EB4949555516
:103F74002222000000000000000000762418181817
:103F8400246E000000000000000000E74224241416
:103F940018080807000000000000007E221008082E
:103FA400447E000000C0202020202010202020205B
:103FB4002020C0001010101010101010101010103D
:103FC400101010100006080808080810080808084F
:103FD400080806000C32C2000000000000000000C7
:103FE40000000000000000000000000000000000CD
:103FF40000000000000000000000000000000000BD
:1040040000000000000000000000000000000000AC
:1040140000000000000000000000000060006000DC
:10402400600060006000600060004000200020002C
:10403400200000000000000060006000600000003C
:1040440000000000000000006006600630039801D4
:104054008800440000000000000000000000000090
:10406400000000000000000000000000000000004C
:104074000000000000000000000000001002100218
:1040840010021002FE07FE070802080108010801D9
:104094000801FE07FE0704010401040104010000F5
:1040A4000000000000000000000040004000F0019B
:1040B40058034C03CC034C0058007000E000C001CE
:1040C400C00140034C035C034C034801F000400072
:1040D4004000000000000000000000000E010A0182
:1040E400910091009100510051003A00AE03A002EA
:1040F4005004500448044804480484028403000023
:1041040000000000000000000000000038006C0007
:104114006C006C006C006C002C0098071C011A01E8
:10412400330133016301E300C308C6093C070000FF
:1041340000000000000000000C001C001000100033
:10414400080004000000000000000000000000005F
:10415400000000000000000000000000000000005B
:1041640000000000000000000004000200018000C4
:10417400800040004000200020002000200020009B
:104184002000200040004000800080000001000268
:1041940000040000000000000200040008001000F9
:1041A400100020002000400040004000400040007B
:1041B400400040002000200010001000080004000F
:1041C40002000000000000000000000000000000E9
:1041D4004000C0004000460C4E0FD001F0015E0FBD
:1041E400460C4000400040000000000000000000B9
:1041F40000000000000000000000000000000000BB
:10420400000040004000400040004000FE0F40001D
:10421400400040004000400000000000000000009A
:10422400000000000000000000000000000000008A
:10423400000000000000000000000000000000007A
:1042440000000000000000000C001C001000100022
:10425400080004000000000000000000000000004E
:10426400000000000000000000000000FE07000045
:10427400000000000000000000000000000000003A
:10428400000000000000000000000000000000002A
:10429400000000000000000000000000000000001A
:1042A40000000000000000001C001C001C000000B6
:1042B40000000000000000000004000600020003EB
:1042C40000010001800080004000400060002000E8
:1042D400200010001000080008000C000400060074
:1042E4000200000000000000000000000000F000D8
:1042F40098010C030C0306060606060606060606C7
:104304000606060606060C030C039801F0000000DE
:104314000000000000000000000000000000400059
:104324007C0060006000600060006000600060006D
:10433400600060006000600060006000FC0300003A
:104344000000000000000000000000000000F80071
:104354008401020306030603000300018001C00078
:10436400600020001000080204020602FE030000A0
:1043740000000000000000000000000000007800C1
:10438400C6008601860180018001C00070008001A2
:10439400000100030003060306038601F800000081
:1043A4000000000000000000000000000000800188
:1043B4008001C001A001A00190018801880184014D
:1043C4008201FE0F8001800180018001E00700006E
:1043D4000000000000000000000000000000FC03DA
:1043E40004000400040004000400F4008C0104032D
:1043F400000300030603060382018401F8000000A1
:104404000000000000000000000000000000E001C7
:1044140018030C030C0004000600E60116030E0644
:1044240006060606060604060C021803F000000041
:104434000000000000000000000000000000F80779
:104444000C06040204010001000180008000400009
:1044540040004000600060006000600060000000F8
:104464000000000000000000000000000000F8014F
:104474000C030606060606060C021C03F000C8011F
:104484000C0306060606060606060C03F0010000E9
:104494000000000000000000000000000000F00028
:1044A4000C010C03060206060606060606078C0621
:1044B40078060006000300030C018C01780000005C
:1044C40000000000000000000000000000000000E8
:1044D4000000000000000000E000E000E000000038
:1044E4000000000000000000E000E000E000000028
:1044F40000000000000000000000000000000000B8
:1045040000000000000000006000600000000000E7
:104514000000000000000000000060006000400097
:104524002000200000000000000000000004000241
:104534000001800040002000100008000400080072
:104544001000200040008000000100020004000070
:104554000000000000000000000000000000000057
:104564000000000000000000FE0700000000000042
:10457400FE07000000000000000000000000000032
:10458400000000000000000000000000040008001B
:10459400100020004000800000010002000400021E
:1045A400000180004000200010000800040000000A
:1045B4000000000000000000000000000000E00314
:1045C4001806040C040C0C0C0C0C000780014000B1
:1045D4004000400000000000E000E000E0000000B7
:1045E400000000000000000000000000E0001803CC
:1045F4000C02CC0564056605A605B604B604B6042B
:10460400B604B602E4010C040C021803F000000026
:104614000000000000000000000000000000600036
:1046240060005000D00090009000880088010801CC
:10463400F801040304030402020202060F0F00003F
:104644000000000000000000000000000000FE0068
:104654008C030C030C030C030C038C01FC000C03F3
:104664000C020C060C060C060C060C03FE010000E2
:104674000000000000000000000000000000E00353
:1046840018030C060C0404040600060006000600C9
:104694000600060006040C040C021803F0000000D7
:1046A40000000000000000000000000000007F0087
:1046B4008C010C030C030C060C060C060C060C06F1
:1046C4000C060C060C060C030C038C017F00000086
:1046D4000000000000000000000000000000FF03D4
:1046E400060306040604060086008600FE00860013
:1046F400860086000600060406040602FF03000086
:104704000000000000000000000000000000FF03A3
:10471400060306040604060086008600FE008600E2
:104724008600860006000600060006001F00000042
:104734000000000000000000000000000000F00085
:1047440018010C020C020402060006000600060012
:10475400C60F060306030C030C031803F000000045
:1047640000000000000000000000000000000F0F27
:10477400060606060606060606060606FE070606DC
:104784000606060606060606060606060F0F0000BF
:104794000000000000000000000000000000FC0316
:1047A4006000600060006000600060006000600005
:1047B400600060006000600060006000FC030000B6
:1047C4000000000000000000000000000000F807E6
:1047D400C000C000C000C000C000C000C000C000D5
:1047E400C000C000C000C000C000C000C000C600BF
:1047F40066003C0000000000000000000000CF0341
:104804008601C60046002600160036002E006E0003
:104814004600C60086008601060106038F070000D5
:1048240000000000000000000000000000001F0065
:104834000600060006000600060006000600060044
:10484400060006000600060406040602FF03000034
:104854000000000000000000000000000000070746
:10486400860386038E038E034E034E034A035A03C4
:104874005A033A0332033203320312038707000058
:1048840000000000000000000000000000008E0F87
:104894000C021C021C02340234026402640244024C
:1048A400C402840284038403040304031F0200007B
:1048B4000000000000000000000000000000F00004
:1048C40098010C030C0206060606060606060606F2
:1048D4000606060606060C020C039801F00000000A
:1048E4000000000000000000000000000000FF00C5
:1048F4000603060606060606060606068603FE00E8
:104904000600060006000600060006001F00000060
:104914000000000000000000000000000000F000A3
:1049240098010C030C020606060606060606060691
:104934000606060676064C02CC039801F0008007B2
:104944000003000000000000000000000000FF0160
:10495400060306060606060606060603FE004600CD
:10496400C600860086010603060306060F0E000035
:104974000000000000000000000000000000F80239
:104984000C030602060206000E003C00F800E003D9
:10499400800300070206020606060C03F00100006D
:1049A4000000000000000000000000000000FE07FE
:1049B40062046108610860006000600060006000DB
:1049C400600060006000600060006000F8010000AA
:1049D40000000000000000000000000000001E07AE
:1049E4000C020C020C020C020C020C020C020C0253
:1049F4000C020C020C020C020C021801F000000064
:104A040000000000000000000000000000000F078C
:104A14000602040104010C010C01880088009800BE
:104A2400980050005000700030002000200000006A
:104A34000000000000000000000000000000F70E6D
:104A4400620442044604460464026402E402E4028A
:104A54009C029C019801980188018800880000004C
:104A640000000000000000000000000000009E079D
:104A74000C01080118019000B000600020006000E3
:104A84006000D00090008801080104038E07000034
:104A940000000000000000000000000000000F0FF4
:104AA400060404020C0208011801B800B0007000EA
:104AB400600060006000600060006000F8010000B9
:104AC4000000000000000000000000000000FC07DF
:104AD4000C02060302018001800040004000200017
:104AE40020001000180008040C040402FE03000057
:104AF4000000000000000000E0032000200020006F
:104B040020002000200020002000200020002000A1
:104B14002000200020002000200020002000200091
:104B2400E003000000000000000000000400040096
:104B340008000800100010001000200020004000B1
:104B44004000C0008000800000010001000200025B
:104B540000020004000000007C004000400040000F
:104B64004000400040004000400040004000400041
:104B74004000400040004000400040004000400031
:104B84007C000000000060009000080100000000AC
:104B94000000000000000000000000000000000011
:104BA4000000000000000000000000000000000001
:104BB40000000000000000000000000000000000F1
:104BC40000000000000000000000000000000000E1
:104BD40000000000000000000000000000000000D1
:104BE4000000FF0F0000000018006000000000003B
:104BF40000000000000000000000000000000000B1
:104C040000000000000000000000000000000000A0
:104C14000000000000000000000000000000000090
:104C24000000000000000000F0010C030C0300036E
:104C3400E0031C030E03060306038E0B7C0E000028
:104C440000000000000000000000000008000E004A
:104C54000C000C000C000C00CC013C031C060C06E0
:104C64000C060C060C060C060C021C03E4010000E6
:104C74000000000000000000000000000000000030
:104C84000000000000000000F0008C018C0186018F
:104C940006000600060006020C020C01F0000000EB
:104CA4000000000000000000000000000002C0033B
:104CB400000300030003000378038C030C030603C2
:104CC400060306030603060304038C0778010000A9
:104CD40000000000000000000000000000000000D0
:104CE4000000000000000000E001180308020C06A8
:104CF4000C06FC070C000C0018041802E00100006C
:104D04000000000000000000000000000000C003DC
:104D14006006300630003000FE0130003000300004
:104D2400300030003000300030003000FC01000062
:104D3400000000000000000000000000000000006F
:104D44000000000000000000F007D8068C018C0170
:104D54008C019801F8000C00FC00CC030603060348
:104D64008E03F800000000000000000008000E00A0
:104D74000C000C000C000C00EC011C030C030C03D5
:104D84000C030C030C030C030C030C039E07000020
:104D940000000000000000000000000000006000AF
:104DA40060000000000040007C00600060006000C3
:104DB400600060006000600060006000FC030000B0
:104DC4000000000000000000000000000000C0011E
:104DD400C001000000000001F00180018001800199
:104DE40080018001800180018001800180018001B7
:104DF400CC007C00000000000000000008000E0051
:104E04000C000C000C000C008C038C008C004C007B
:104E14006C005C008C008C010C010C039E070000EC
:104E240000000000000000000000000040007C00C2
:104E3400600060006000600060006000600060006E
:104E4400600060006000600060006000FC0300001F
:104E5400000000000000000000000000000000004E
:104E640000000000000000003707EE066606660634
:104E7400660666066606660666066606FF0F000098
:104E8400000000000000000000000000000000001E
:104E94000000000000000000EE011C030C030C03E2
:104EA4000C030C030C030C030C030C039E070000FF
:104EB40000000000000000000000000000000000EE
:104EC4000000000000000000F00098010C0306063A
:104ED40006060606060606060C030C03F000000090
:104EE40000000000000000000000000000000000BE
:104EF4000000000000000000EE011C030C060C067C
:104F04000C060C060C060C060C031C03EC010C002E
:104F14000C003E0000000000000000000000000043
:104F2400000000000000000078028C030C0306035C
:104F3400060306030603060304038C037803000335
:104F44000003C00700000000000000000000000093
:104F540000000000000000009F03580638061800F7
:104F6400180018001800180018001800FF000000AE
:104F7400000000000000000000000000000000002D
:104F84000000000000000000F0031C030C020C02EF
:104F94003800F000C003040304038C03FC01000088
:104FA40000000000000000000000000000000000FD
:104FB4002000200030003000FE01300030003000BE
:104FC400300030003000300030023002E0010000D8
:104FD40000000000000000000000000000000000CD
:104FE40000000000000008028E030C030C030C03F5
:104FF4000C030C030C030C030C039C077801000046
:10500400000000000000000000000000000000009C
:1050140000000000000000001E070C020801080147
:1050240018019000B000B000600060002000000093
:10503400000000000000000000000000000000006C
:105044000000000000000000F70E62044604640241
:105054006402EC029C019801980198010800000088
:10506400000000000000000000000000000000003C
:105074000000000000000000BC0718011001B0008F
:1050840060006000E0009000080108039E07000033
:10509400000000000000000000000000000000000C
:1050A40000000000000000009E070801080108013C
:1050B40090009000B00060006000600020002000BC
:1050C40024001C000000000000000000000000009C
:1050D4000000000000000000FC018401C400440042
:1050E400600020003000180208020C03FC010000DC
:1050F4000000000000000000000380008000800029
:10510400800080008000800080004000200040007B
:10511400800080008000800080008000800080008B
:1051240000030000400040004000400040004000F8
:10513400400040004000400040004000400040006B
:10514400400040004000400040004000400040005B
:1051540040004000000000000C001000100010008F
:10516400100010001000100010002000400020006B
:1051740010001000100010001000100010001000AB
:105184000C00000000001C002204C2048003000084
:10519400000000000000000000000000000000000B
:1051A40000000000000000000000000000000000FB
:1051B40000000000000000000000000000000000EB
:1051C40000000000000000000000000000000000DB
:1051D40000000000000000000000000000000000CB
:1051E40000000000000000000000000000000000BB
:1051F4000000000000000000000000000000C001EA
:10520400C001C001C001C001C001C0018000800014
:10521400800080008000800080000000000000000A
:1052240000008001C003C0038001000000000000F2
:1052340000000000000000000000E01CE01CF01E64
:10524400700E3807180308018400000000000000F5
:10525400000000000000000000000000000000004A
:10526400000000000000000000000000000000003A
:10527400000000000000000000000000000000002A
:1052840020102010201020102010FE7FFE7F100818
:10529400100810081008100810081008FE7FFE7F80
:1052A40008040804080408040804000000000000BE
:1052B40000000000000000000000000000010001E8
:1052C400C0076019103118311839183938017001C4
:1052D400E001C0038007000F001D003900311C31BC
:1052E4001C310C310C11180DE00700010001000104
:1052F40000000000000000000000000000000000AA
:105304001C1036186308630C6304630463026302AD
:105314006301361D9C3780228063406340632063B1
:105324002063306310221836081C000000000000BF
:105334000000000000000000000000000000000069
:10534400F00098018C018C018C018C018C00CC0044
:105354007800183E1C083608320863046304C3044A
:10536400C303834306438E26781C0000000000001C
:10537400000000000000000000001C003C003C0095
:105384003000300010000C00060000000000000097
:105394000000000000000000000000000000000009
:1053A40000000000000000000000000000000000F9
:1053B4000000000000000000000000400020001079
:1053C4000008000C00040006000300030003800131
:1053D400800180018001800180018001800100033F
:1053E4000003000300060006000C00080010002063
:1053F400004000000000000000000200040008005B
:105404001000300020006000C000C000C000800117
:105414008001800180018001800180018001C00041
:10542400C000C000600060003000100008000400EC
:105434000200000000000000000000000000000066
:105444000000000000018003800300011C713C790E
:10545400783DC0070001C007783D3C791C7100010C
:1054640080038003800100000000000000000000B1
:105474000000000000000000000000000000000028
:105484000000000000000001000100010001000113
:1054940000010001FC7F0001000100010001000186
:1054A40000010001000000000000000000000000F6
:1054B40000000000000000000000000000000000E8
:1054C40000000000000000000000000000000000D8
:1054D40000000000000000000000000000000000C8
:1054E400000000001C003C003C00300030001000B4
:1054F4000C00060000000000000000000000000096
:105504000000000000000000000000000000000097
:1055140000000000FE7F000000000000000000000A
:105524000000000000000000000000000000000077
:105534000000000000000000000000000000000067
:105544000000000000000000000000000000000057
:105554000000000000000000000000000000000047
:10556400000018003C003C0018000000000000008F
:105574000000000000000000000000400060002067
:105584000030001000180008000C0004000600029F
:105594000003000180018000C00040006000200082
:1055A40030001000180008000C000400060002007F
:1055B40000000000000000000000000000000000E7
:1055C400C007600C30181830183018200C600C60BC
:1055D4000C600C600C600C600C600C600C6018209B
:1055E400183018303018600CC007000000000000AC
:1055F40000000000000000000000000000000000A7
:1056040000018001F8018001800180018001800196
:10561400800180018001800180018001800180017E
:10562400800180018001C003F81F00000000000019
:105634000000000000000000000000000000000066
:10564400E007101C0818043004300C300C30003013
:10565400001800080004000200018000400020201F
:10566400102008200430FC1FFC1F00000000000074
:105674000000000000000000000000000000000026
:10568400E003180E0C0C0C180C180C180018000C65
:105694000006C003000E00180010003000300C306B
:1056A4000C300C100C18180CE00300000000000073
:1056B40000000000000000000000000000000000E6
:1056C400000C000E000E000F800E800E400E600EC7
:1056D400200E100E100E080E040E040EFE7F000E97
:1056E400000E000E000E000E000EC07F0000000031
:1056F40000000000000000000000000000000000A6
:10570400F03FF03F10001000100008000800C80728
:10571400280C1818081000300030003000300C300D
:105724000C3004180418080CF003000000000000FA
:105734000000000000000000000000000000000065
:10574400800FC010203010301800180008000C0022
:105754008C0F6C183C301C600C600C600C600C608E
:105764001860182030306018C007000000000000E6
:105774000000000000000000000000000000000025
:10578400F83FF83F1C100C0804080404000400024D
:105794000002000100010001800080008000C000C0
:1057A400C000C000C000C000C00000000000000035
:1057B40000000000000000000000000000000000E5
:1057C400E007300C18180C300C300C301C30381832
:1057D4007008E007B007180E0C1C063806300630B7
:1057E400063006300C18180CE0030000000000001E
:1057F40000000000000000000000000000000000A5
:10580400E00318040C080C180610063006300630A5
:10581400063006380C3C1836F031003000180018F9
:1058240000180C0C0C060C03F00100000000000032
:105834000000000000000000000000000000000064
:1058440000000000000000000000000000008001D3
:10585400C003C0038001000000000000000000003D
:1058640000008001C003C0038001000000000000AC
:105874000000000000000000000000000000000024
:105884000000000000000000000000000000C00054
:10589400C000000000000000000000000000000044
:1058A400000000000000C000C00080008000400034
:1058B4004000000000000000000000000000002084
:1058C400001000080004000600038001C00060000E
:1058D400300018000C00180030006000C000800187
:1058E400000300060004000800100020000000006F
:1058F40000000000000000000000000000000000A4
:105904000000000000000000000000000000FE7F16
:1059140000000000000000000000FE7F0000000006
:105924000000000000000000000000000000000073
:10593400000000000000000000000000000004005F
:105944000800100020006000C00080010003000671
:10595400000C001800300018000C00060003800141
:10596400C0006000200010000800040000000000D7
:105974000000000000000000000000000000C0075C
:105984003018083008600C601C601C601C6000301B
:10599400001C0006000180008000800080000000E0
:1059A40000008001C003C00380010000000000006B
:1059B40000000000000000000000000000000000E3
:1059C400C0076018103018200C2F8C4D864CC64C24
:1059D400C64C664C66446644662666266615CC1C30
:1059E4000C40082018303018C007000000000000E8
:1059F40000000000000000000000000000000001A2
:105A0400C001C001C0014001600320032003200342
:105A14003006100610061006F80F080C080C080CC7
:105A24000C0C0418041806181F7C00000000000069
:105A34000000000000000000000000000000000062
:105A4400FE07181C18381830183018301830181879
:105A5400180CF80718181830182018601860186007
:105A64001860186018301818FE0F000000000000BD
:105A74000000000000000000000000000000000022
:105A8400C0276038103018200C400C400400060079
:105A940006000600060006000600060006000C408C
:105AA4000C400C2018303018C00700000000000023
:105AB40000000000000000000000000000000000E2
:105AC400FE03180E181818301830183018601860B3
:105AD4001860186018601860186018601860183032
