:020000040800F2
:10000000D0F900200D020008070D00089F06000827
:10001000050D0008ED050008ED10000800000000C7
:10002000000000000000000000000000A90D000812
:10003000EF050008000000006D0D00087D0E0008AF
:1000400027020008270200082702000827020008EC
:1000500027020008270200082702000827020008DC
:1000600027020008270200082702000827020008CC
:1000700027020008270200082702000827020008BC
:1000800027020008270200082702000827020008AC
:10009000270200082702000827020008270200089C
:1000A000270200082702000827020008270200088C
:1000B0002702000827020008D10E000827020008C6
:1000C000270200082702000827020008270200086C
:1000D000270200083D100008270200082702000838
:1000E000270200082702000827020008270200084C
:1000F000270200082702000827020008270200083C
:10010000270200082702000827020008270200082B
:10011000270200082702000827020008270200081B
:10012000270200082702000827020008270200080B
:1001300000F002F800F05AF80AA090E8000C82449F
:100140008344AAF10107DA4501D100F04FF8AFF27C
:10015000090EBAE80F0013F0010F18BFFB1A43F0A5
:1001600001031847F8880200188902000A444FF07A
:10017000000C10F8013B13F0070408BF10F8014B06
:100180001D1108BF10F8015B641E05D010F8016B4B
:10019000641E01F8016BF9D113F0080F1EBF10F8AF
:1001A000014BAD1C0C1B09D16D1E58BF01F801CBD2
:1001B000FAD505E014F8016B01F8016B6D1EF9D555
:1001C0009142D6D37047000000230024002500266A
:1001D000103A28BF78C1FBD8520728BF30C148BFAA
:1001E0000B6070471FB51FBD10B510BD00F0CCF9F6
:1001F0001146FFF7F7FF1FF08BFC00F0EAF903B49C
:10020000FFF7F2FF03BC02F04DFD000009488047F4
:1002100009480047FEE7FEE7FEE7FEE7FEE7FEE7E8
:10022000FEE7FEE7FEE7FEE704480549054A064B00
:1002300070470000810E000831010008D0D900206D
:10024000D0F90020D0E90020D0E90020704753EA1F
:10025000020C00F069802DE9F04B4FF00006002BF6
:100260001FBFB3FA83F503FA05F424FA05F65E40DE
:1002700012BF1643B2FA82F502FA05F4C5F1200561
:100280001EBF22FA05FC44EA0C04203556EA044C51
:100290004FEA144418BF641C4FF000084FF00009E7
:1002A000904271EB030C39D3002919BFB1FA81F7E1
:1002B00001FA07F6B0FA80F700FA07F6C7F120074F
:1002C0001EBF20FA07FC46EA0C062037B6FBF4FCFA
:1002D000A7EB0507103F07F01F0BCBF120060CFA28
:1002E0000BFB2CFA06F644BFB3460026202FA4BF12
:1002F0005E464FF0000B5BEA060C08BF4FF0010BA7
:1003000019EB0B09ABFB027C48EB0608C01B06FB94
:1003100002CC0BFB03CC71EB0C01C1E70B46024690
:1003200041464846BDE8F08B13B54FF000004FF052
:100330000001AFF30080BDE81C40704740EA0103B4
:10034000024630B59B0710D14FF0013400E008C2DF
:1003500008C91D1B9D4315EAC41FF8D013F0FF0107
:1003600002F8011B0DD01B0AF8E711F8013B002B26
:1003700002F8013B05D011F8013B002B02F8013BCC
:10038000F3D130BD10B5431C02E010F8011B71B170
:100390008107FAD14FF0013202C88C1A8C4314EA5B
:1003A000C211F9D0C01A0A0603D0C01E10BDC01A6F
:1003B00010BD0A0401D0801E10BD0902FCD0401EF1
:1003C00010BD032A40F2308010F0030C00F01580BD
:1003D00011F8013BBCF1020F624498BF11F801CB48
:1003E00000F8013B38BF11F8013BA2F1040298BFAD
:1003F00000F801CB38BF00F8013B11F0030300F017
:100400002580083AC0F0088051F8043B083A51F8BA
:1004100004CBA0E80810F5E7121D5CBF51F8043BBF
:1004200040F8043BAFF30080D20724BF11F8013B32
:1004300011F801CB48BF11F8012B24BF00F8013B94
:1004400000F801CB48BF00F8012B704710B5203AE7
:10045000C0F00B80B1E81850203AA0E81850B1E87D
:100460001850A0E81850BFF4F5AF5FEA027C24BF33
:10047000B1E81850A0E8185044BF18C918C0BDE82A
:1004800010405FEA827C24BF51F8043B40F8043BF3
:1004900008BF7047D20728BF31F8023B48BF11F8A8
:1004A000012B28BF20F8023B48BF00F8012B704702
:1004B0004FF0000200B5134694469646203922BFFD
:1004C000A0E80C50A0E80C50B1F12001BFF4F7AF48
:1004D000090728BFA0E80C5048BF0CC05DF804EB2A
:1004E000890028BF40F8042B08BF704748BF20F898
:1004F000022B11F0804F18BF00F8012B704700004D
:100500004FF0013C50F8042B51F8043B9A4221D1A2
:10051000A2EB0C03934313EACC1317D150F8042B2E
:1005200051F8043B9A4215D1A2EB0C03934313EA12
:10053000CC130BD150F8042B51F8043B9A4209D14B
:10054000A2EB0C03934313EACC13DBD04FF0000073
:10055000704700BFD01A01BAB1FA81F101F0180159
:1005600022FA01F0CB40C1F12001DBB2C0B2C01AC7
:100570002CFA01F3D11A914311EAC311E6D1704765
:100580007047704770477047754600F02BF8AE46CD
:1005900005006946534620F00700854618B020B58F
:1005A000FFF742FEBDE820404FF000064FF0000785
:1005B0004FF000084FF0000B21F00701AC46ACE80B
:1005C000C009ACE8C009ACE8C009ACE8C0098D4678
:1005D000704710B50446AFF300802046BDE81040D8
:1005E000FFF70DBE0048704770D90020FEE7704746
:1005F0002DE9F0410022CC7804F00F03E40601D588
:100600008C7823430C784FF00F0714F0FF0F4FF056
:10061000010C1CD005680CFA02F40E882640A64294
:1006200011D1960007FA06F825EA080503FA06F83C
:1006300048EA0505CE78282E02D0482E02D002E0E6
:10064000446100E00461521C082AE4D305600A8872
:10065000FF2A1ED94568002202F108060CFA06F4AA
:100660000E882640A64210D1960007FA06F825EA21
:10067000080503FA06F848EA0505CE78282E00D1C9
:100680004461CE78482E00D10461521C082AE3D37D
:100690004560BDE8F0814161704701617047FEE748
:1006A0002DE9F04107460C4615461E462A2000F06B
:1006B000BDFA384600F0ADFA284600F0AAFA2B2021
:1006C00000F0B4FA204600F0A4FA304600F0A1FA97
:1006D000BDE8F0412C2000F0A9BA10B514460B4635
:1006E0000246FFF7DDFF2046BDE8104000F091BA5A
:1006F000F8B501214FF4B07000F048FB4FF480567C
:10070000ADF8006010248DF8034003258DF80250E9
:10071000154F69463846FFF76BFF31463846FFF7FD
:10072000BCFF48F23206ADF800608DF803408DF84A
:1007300002500E4F69463846FFF75AFF3146384699
:10074000FFF7ABFF4FF4A066ADF800608DF80340F3
:100750008DF80250064C69462046FFF749FF3146A6
:100760002046FFF79AFFF8BD002001400014014029
:100770000018014010B5FFF7BBFFFF4C10212046C9
:10078000FFF789FF642004F01DFB10212046FFF7CE
:1007900084FF642004F016FBA115F848FFF77DFFE5
:1007A000642004F00FFBEF2000F040FAEB2000F093
:1007B0003DFA142000F037FAFE2000F037FAEF205F
:1007C00000F034FAEB2000F031FA142000F02BFA9C
:1007D000842000F02BFA402000F025FA852000F05C
:1007E00025FAFF2000F01FFA862000F01FFAFF20F4
:1007F00000F019FA872000F019FAFF2000F013FA30
:10080000882000F013FA0A2000F00DFA892000F089
:100810000DFA212000F007FA8A2000F007FA0020E4
:1008200000F001FA8B2000F001FA802000F0FBF9C3
:100830008C2000F0FBF9012000F0F5F98D2000F08C
:10084000F5F9012000F0EFF98E2000F0EFF9FF201C
:1008500000F0E9F98F2000F0E9F9FF2000F0E3F95A
:10086000B62000F0E3F9002000F0DDF9202000F0D0
:10087000DAF9362000F0DAF9082000F0D4F93A204D
:1008800000F0D4F9052000F0CEF9902000F0CEF968
:10089000082000F0C8F9082000F0C5F9082000F091
:1008A000C2F9082000F0BFF9BD2000F0BFF9062012
:1008B00000F0B9F9BC2000F0B9F9002000F0B3F95C
:1008C000FF2000F0B3F9602000F0ADF9012000F046
:1008D000AAF9042000F0A7F9C32000F0A7F913201B
:1008E00000F0A1F9C42000F0A1F9132000F09BF959
:1008F000C92000F09BF9222000F095F9BE2000F0FD
:1009000095F9112000F08FF9E12000F08FF9102007
:1009100000F089F90E2000F086F9DF2000F086F95A
:10092000212000F080F90C2000F07DF9022000F079
:100930007AF9F02000F07AF9452000F074F90920E6
:1009400000F071F9082000F06EF9082000F06BF952
:10095000262000F068F92A2000F065F9F12000F067
:1009600065F9432000F05FF9702000F05CF9722017
:1009700000F059F9362000F056F9372000F053F90D
:100980006F2000F050F9F22000F050F9452000F0FF
:100990004AF9092000F047F9082000F044F908203E
:1009A00000F041F9262000F03EF92A2000F03BF942
:1009B000F32000F03BF9432000F035F9702000F0FF
:1009C00032F9722000F02FF9362000F02CF9372090
:1009D00000F029F96F2000F026F9ED2000F026F94B
:1009E0001B2000F020F90B2000F01DF9AE2000F0D4
:1009F0001DF9772000F017F9CD2000F017F96320DA
:100A000000F011F9702000F011F9072000F00BF947
:100A1000072000F008F9042000F005F90E2000F08E
:100A200002F90F2000F0FFF8092000F0FCF8072081
:100A300000F0F9F8082000F0F6F8032000F0F3F8D1
:100A4000E82000F0F3F8342000F0EDF8622000F028
:100A5000EDF8182000F0E7F80D2000F0E4F8712020
:100A600000F0E1F8ED2000F0DEF8702000F0DBF897
:100A7000702000F0D8F8182000F0D5F80F2000F012
:100A8000D2F8712000F0CFF8EF2000F0CCF8702001
:100A900000F0C9F8702000F0C6F8632000F0C6F836
:100AA000182000F0C0F8112000F0BDF8712000F00F
:100AB000BAF8F12000F0B7F8702000F0B4F8702018
:100AC00000F0B1F8182000F0AEF8132000F0ABF8F9
:100AD000712000F0A8F8F32000F0A5F8702000F0D5
:100AE000A2F8702000F09FF8642000F09FF8282002
:100AF00000F099F8292000F096F8F12000F093F822
:100B0000012000F090F8F12000F08DF8002000F0B6
:100B10008AF8072000F087F8662000F087F83C206C
:100B200000F081F8002000F07EF8CD2000F07BF886
:100B3000672000F078F8452000F075F8452000F0B7
:100B400072F8102000F06FF8002000F06CF8002020
:100B500000F069F8002000F066F8672000F066F801
:100B6000002000F060F83C2000F05DF8002000F06C
:100B70005AF8002004E00000001401400018014071
:100B800000F051F8002000F04EF8012000F04BF882
:100B9000542000F048F8102000F045F8322000F012
:100BA00042F8982000F03FF8742000F03FF8102041
:100BB00000F039F8852000F036F8802000F033F896
:100BC000002000F030F8002000F02DF84E2000F05A
:100BD0002AF8002000F027F8982000F027F83E209F
:100BE00000F021F8072000F01EF8352000F01EF874
:100BF000212000F01BF8112000F018F8782004F0F4
:100C0000E1F8292000F012F8BDE81040142004F0AB
:100C1000D9B810B50446200A00F01CF8E0B2BDE8CF
:100C2000104000F017B800F015B8000070B5064687
:100C3000074D4FF4004421462846FFF72CFD30466F
:100C400000F008F821462846BDE87040FFF725BDB2
:100C5000001401402DE9F0410546DFF850800221E3
:100C60004046FFF718FD0024114F4FF480563146DF
:100C70003846FFF710FD280604D520214046FFF72F
:100C80000CFD03E020214046FFF705FD31463846C4
:100C9000FFF703FD6806050E641CE4B2082CE6D3DA
:100CA0004046BDE8F0410221FFF7F7BC00140140C7
:100CB0000020014038B50121482000F067F82024C9
:100CC000ADF8004010208DF8030003208DF80200DD
:100CD0000A4D69462846FFF78BFC20212846FFF77E
:100CE000DCFCADF80040064C69462046FFF780FC6E
:100CF00020212046FFF7D1FC38BD0000000C014048
:100D000000180140FEE7704770B50F23C278012636
:100D10000178002A1ED0144A126802F4E062C2F57B
:100D2000E062120AC2F10404D3404578A5408278FB
:100D30001A402A43120101F1E02181F800240078D1
:100D400000F01F018E404009800000F1E020C0F853
:100D5000006170BD01F01F0086404809800000F16D
:100D6000E020C0F8806170BD0CED00E0704700002D
:100D7000054A002903D0D1690143D1617047D16987
:100D80008143D1617047000000100240054A0029EC
:100D900003D09169014391617047916981439161E9
:100DA0007047000000100240704700F001B80000DA
:100DB0000CB50022019200922748016841F480316D
:100DC00001604FF4A063016801F4003100910199C2
:100DD000491C0191009911B901999942F3D1016817
:100DE000890302D50121009100E0009200990129B8
:100DF00030D11A490A6842F010020A600A6822F0EB
:100E000003020A600A6842F002020A604168416017
:100E100041684160416841F480614160416821F46A
:100E20007C114160416841F4E8114160016841F082
:100E30008071016001688901FCD5416821F00301DE
:100E40004160416841F0020141604168C1F38101A4
:100E50000229FAD10CBD000000100240002002401F
:100E60004FF0E021042804D0086920F00400086154
:100E70007047086940F0040008617047704700003F
:100E800010B50F48016841F00101016041680D4A49
:100E90001140416001680C4A11400160016821F471
:100EA00080210160416821F4FE0141604FF41F017F
:100EB0008160FFF77AFF05494FF00060086010BDC0
:100EC000001002400000FFF8FFFFF6FE08ED00E012
:100ED00010B5074C0121204600F04BF810B101205D
:100EE0001EF096F82046BDE81040012100F032B80F
:100EF000000800407FB504460D4601210420FFF79D
:100F000037FFADF80840ADF804500024ADF80A40B2
:100F1000ADF806400E4D01A9284600F041F8012227
:100F20001146284600F031F81E218DF800108DF88A
:100F3000014004218DF8021001218DF8031068464C
:100F4000FFF7E2FE0121284600F007F87FBD000010
:100F500000080040C94301827047002904D001887D
:100F600041F0010101807047018821F001010180F9
:100F7000704702460020138A0B4092890A40002BDA
:100F800002D0002A00D001207047002A03D08289B5
:100F90000A438281704782898A43828170470000B8
:100FA00030B502881B4C1C4DA0420DD0A8420BD07E
:100FB000B0F1804F08D0194B984205D0184B984299
:100FC00002D0184B984203D122F070034A881A438A
:100FD000154B984206D0154B984203D022F440732B
:100FE000CA881A4302808A8882850A880285A042BC
:100FF0000AD0A84208D00E4A904205D00D4A90422D
:1010000002D00D4A904201D1097A018601218182E4
:1010100030BD0000002C01400034014000040040BD
:1010200000080040000C0040001000400014004088
:1010300000400140004401400048014070B5164C9A
:1010400040F22551204600F02DF800280ED0204611
:1010500000F048F8C1B2114A1088030406D44404D1
:101060004FF0000307D50A2901D0138070BD40F46A
:101070000040108070BD0D290AD0094DC0F30D0449
:101080002955401C80B21080C728F3D9138070BD49
:1010900040F48040108070BD0038014028000020DE
:1010A0002002002070B5002440F66A12C1F34213FA
:1010B00001F01F05012606FA05F2012B0CD0022BC8
:1010C0000DD0838A1340090A8E40008830400BB14E
:1010D00000B10124204670BD83891340F3E7038AE1
:1010E0001340F0E78088C0F308007047FEE770B552
:1010F000044600256FF02F0608E02068411C21609F
:10110000007805EB850106EB410145182068007861
:1011100000F004F80028F0D1284670BD30380928C6
:1011200001D80120704700207047000010B5402111
:10113000074801F04BF800221E2106481DF0C2FFAF
:10114000054CA06002F0A8F90020207010BD00003E
:101150007C04002041350008A401002070B5B1F9DD
:101160000040B2F900309C4200DD23460380B1F913
:101170000240B2F90250AC4200DC2C464480B1F986
:101180000460B2F90450AE4200DA35468580B1F908
:101190000610B2F90620914200DB1146C180012001
:1011A000AB4201DC8C4200DD002070BDF8B5044686
:1011B0000D4616460020B4F90010B5F90020914202
:1011C00012DBB4F90220B5F902309A420CDBB4F913
:1011D0000420B5F904309A4206DCB4F90620B5F9CA
:1011E00006309A4200DC012088B38EB3ADF80010BF
:1011F0006088ADF8020032466946284600F0ACF837
:1012000038B3A088ADF800006088ADF8020032461F
:101210006946284600F0A0F810B32088ADF8000019
:10122000E088ADF8020032466946284600F094F89E
:10123000C0B1A088ADF80000E088ADF802003246E9
:101240006946284600F088F870B10120F8BD01E039
:1012500002E003E00020F9E70120F7E70020F5E7CE
:101260000020F3E70020F1E70020EFE7B0F90020CD
:10127000B1F904309A4213DCB0F90420B1F900301E
:101280009A420DDBB0F90220B1F906309A4207DC30
:10129000B0F90600B1F90210884201DB0120704765
:1012A00000207047F8B504460D461646B4F9040010
:1012B000B5F90010884211DBB4F90600B5F9021047
:1012C00088420BDBB4F90000B5F90410884205DC54
:1012D000B4F90210B5F90620914201DD0120F8BDF4
:1012E00066B1ADF800006088ADF80200324669468C
:1012F000284600F031F818B10020F8BD0020F8BDF4
:10130000A088ADF800006088ADF80200324669465A
:10131000284600F021F808B10020F8BD2088ADF87B
:101320000000E088ADF8020032466946284600F029
:1013300013F808B10020F8BDA088ADF80000E088DF
:10134000ADF8020032466946284600F005F808B1BB
:101350000020F8BD0120F8BD2DE9FC4105460F46EF
:1013600014460020B7F90010B5F9002091420EDBB9
:10137000B5F9042091420ADCB7F90210B5F9022050
:10138000914204DBB5F90620914200DC012020B136
:10139000002C04DC0120BDE8FC810020FBE728468E
:1013A0000EF0BFF800EBD070461028460EF074F82F
:1013B00000EBD0704010864200DA3046844200DDF7
:1013C00004462888ADF8000028882044ADF80400C1
:1013D0006888ADF8020068882044ADF80600002255
:1013E00039466846FFF7B8FF70B1BDF804002044E5
:1013F000ADF80400BDF806002044ADF806003946FB
:1014000068461BF06EF8C6E7E888001BADF80200DE
:10141000E888ADF80600002239466846FFF79CFFD1
:1014200070B1BDF804002044ADF80400BDF802001E
:10143000001BADF80200394668461BF052F8AAE7D7
:10144000A888001BADF80000A888ADF804000022B1
:1014500039466846FFF780FF70B1BDF80000001BF9
:10146000ADF80000BDF80200001BADF802003946DF
:1014700068461BF036F88EE76888ADF80200688889
:101480002044ADF80600002239466846FFF764FFA5
:1014900070B1BDF80000001BADF80000BDF80600FB
:1014A0002044ADF80600394668461BF01AF872E78A
:1014B000012070E710B5B1F90030B2F90040A34245
:1014C00000DB23460380B1F90230B2F90240A342A7
:1014D00000DB23464380B1F90440B2F904309C425A
:1014E00000DD23468380B1F90610B2F9062091424F
:1014F00000DC1146C18010BD2DE9F0418AB00746DD
:101500001DF07CFD054600260996AC4C17B1F86825
:10151000606002E010F048FA6060606800691AF0EC
:101520006DFF6068406908B11AF068FF6068C069C3
:101530001AF064FF6068006A1AF060FF6068016971
:10154000F1B31BF00BFA1BF07DF96068B0F8501195
:1015500099B30168097C890715D510F08CFA401EF3
:1015600007B2606810F036FA401E03B2002211463E
:1015700007A800970EF007F8606807A90268926B49
:10158000516004F01BFC60684FF48071303016F03D
:101590002BFB6068202100F5987016F025FB606831
:1015A000A0F8506128461DF01DFD09906068006894
:1015B000436A13B122680999984716F05BF900E075
:1015C00009E000F045F900F019F9DFF8F481D8F8E6
:1015D00014502DB143E0A0F850610AB0BDE8F0818D
:1015E00015F025FF15F00EF8054600227F2128464C
:1015F0001AF03DFE0FF0A6FB014608900022284697
:101600001AF023FE0FF01CFE014608900022284627
:101610001AF08AFE0022032128461AF079FE0022E1
:10162000032128461AF062FE0022032128461AF000
:1016300063FE0022032128461AF064FE00220321E3
:1016400028461AF06BFE5FA1284615F06BFE0023BA
:101650001A460621284616F0BAFEC8F81450D8F8E3
:1016600000001DF0BFFC4FF49677B84210D22068FE
:1016700041F28831884240D9D8F8040009990844D9
:10168000C8F80400D8F80800401CC8F8080034E086
:101690001DF0B4FCC8F8000060684FF47A7140682F
:1016A0000068B1FBF0F0D8F8041011B90121C8F8B6
:1016B0000410D8F8081029B34FF47A725143D8F8BF
:1016C0000420B1FBF2F4C8F80460C8F80860844252
:1016D00000D90446D8F810002044C8F81000D8F803
:1016E0000C00401CC8F80C001DF04AFDC0F164035A
:1016F000224635A1284615F04DFE304D08356C6860
:1017000014B13AE00446DEE715F091FE14F07AFFDA
:10171000044600227F2120461AF0A9FD0FF012FB9B
:1017200001460890002220461AF08FFD0FF088FD38
:1017300001460890002220461AF0F6FD00220321FF
:1017400020461AF0E5FD0022032120461AF0CEFDC6
:101750000022032120461AF0CFFD0022032120465B
:101760001AF0D0FD17A1204615F0DCFD00231A4623
:101770000421204616F02BFE6C6028681DF032FC18
:10178000B8427FF62AAF1DF039FC286002A816F097
:1017900003F904990298401A820A514200EB812011
:1017A0006621B0FBF1F39DF821009DF82010CDE9F2
:1017B000001009A1204615F0EDFD0EE758000020AD
:1017C000E80200203F0000002575204650530A25FE
:1017D000752525204350550025752E2575206B4213
:1017E000207573656420282564202525290A256431
:1017F000252520667261672E0000000070B5002468
:10180000084EC4EBC40556F8250008B116F0A8F838
:1018100006EB85001C2116F0E7F9641CE4B2042CE9
:10182000EFD370BD58050020084949680AE04A68AE
:10183000824202D00A68824203D10A7E42F001024B
:101840000A7649690029F2D1704700002C00002077
:10185000704700000421014800F0B8BC700400206B
:101860001C21014800F0B2BC880400202DE9F04F93
:1018700085B00446DDE90E06002B02D1B0F5807F6D
:101880007DD0B6F900504FF0FF376D42454307EB6E
:1018900025252DB22580B6F902C0CCF1000C0CFB39
:1018A00000FC07EB2C273FB26780B6F900C0A1EB24
:1018B0000C0141434FF0020C0CEB212109B2A18035
:1018C000B6F90280A2EB080242430CEB222000B2E0
:1018D000E080002B7DD04FF00A0993FBF9F505F16C
:1018E0000108684200EB800003EB400728B21DF0BE
:1018F0000DFE82460FFA88F01DF008FE83465A3529
:1019000028B21DF003FE054608F15A080FFA88F0C8
:101910001DF0FCFD0146C7F10A0000FB0AF20BFBBB
:10192000072292FBF9F2684301FB070090FBF9F0F4
:1019300057114FEA601CB4F90000B4F902300CFBF7
:1019400000FE07FB13E1B6F8009009EBA1210DB2F0
:10195000ADF80C5007FB00F20CFB0320B6F802A018
:101960000AEBA02001B2ADF80E10B4F904600CFB34
:1019700006FB07FB13B009EBA02000B200E031E04A
:10198000ADF808007E430CFB03630AEBA3231BB2F4
:101990000496ADF80A30B4F9068007FB18E609EBA7
:1019A000A62636B2ADF804600CFB08220AEBA22290
:1019B00012B2ADF8062007FB18B709EBA7273FB214
:1019C000ADF80070DDF810900CFB089C0AEBAC2C15
:1019D00000E011E00FFA8CFCADF802C0AE4218DA5C
:1019E000B04617E0002020806080491EA180521E72
:1019F000E28005B0BDE8F08F32882A4422807288E8
:101A00003A44628032881144A18071880844E080A1
:101A1000EFE7A846874201DAB94600E08146C845AB
:101A200005DAAE4201DAB04606E0A84604E0874295
:101A300001DAB84600E08046A4F80080AE4201DD3D
:101A4000B04600E0A846874201DDB94600E0814685
:101A5000C84505DDAE4201DD304604E0284602E01F
:101A6000874200DD3846A0808A4201DA104600E055
:101A700008469C4501DA654600E01D46A84205DAA5
:101A80008A4201DA104606E0084604E09C4501DA85
:101A9000604600E0184660808A4201DD104600E0A2
:101AA00008469C4501DD654600E01D46A84203DD71
:101AB0008A4206DD114604E09C4501DD614600E0F6
:101AC0001946E18095E72DE9FF5F0446D4F800B0A0
:101AD000B4F90800081AB4F90A10511AE589D4E9D2
:101AE0000932B5F5807F1FD0A5895DB3A56B68432A
:101AF00040114D436911256BE66A05FB00F706FBB3
:101B0000117703EBA729464305FB016002EBA02AEE
:101B10004FEA29254FEA2A26B4F90400A8421BDC23
:101B2000002004B0BDE8F09F256BE66A05FB00F7D6
:101B300006FB117703EBA709464305FB016002EBA7
:101B4000A00AE5E7A56B684340114D43691103EB1B
:101B5000000902EB010ADBE7002D01DA0020E0E7D3
:101B6000B4F90610B14201DC0020DAE7002E01DAF8
:101B70000020D6E794F834104A0723D5890704F1EA
:101B800014030CD44FF002087100484305FB08070A
:101B90000BEB07014246184615F0E3FF28E04FF033
:101BA000030806EB4601484305FB08070BEB07015A
:101BB0000222184615F0D5FFF81C584410F8010C05
:101BC000A07515E00027B84632B2236904F1180069
:101BD000CDE9020229B28B4613F01EFB0190BDF83D
:101BE0000400A082DDE90202594613F0A3FAA075B1
:101BF00094F83400C0070CD04FF4FC600090BDF89E
:101C000000000190A08ABDF80410884201D1002094
:101C100087E7E07C80B1A4F83C90A4F83EA0A4F84B
:101C20004050A4F84260676484F8488004B02046BD
:101C3000BDE8F05F00F002B8012072E72DE9F04F37
:101C400089B00446D4F800B094F83C1094F83E00F3
:101C50004FF0FF36702909DA3546B4F94020012AE1
:101C600000D50025803101F0FF0813E090290EDD3A
:101C70000125B4F94020B4F90430521C9A4200DB2B
:101C80000025A1F27F11494201F0FF0802E0002582
:101C90004FF0FF08702807DAB4F94210012900D587
:101CA00000268030C7B211E090280DDD0126B4F97E
:101CB0004210B4F90620491C914200DB0026A0F234
:101CC0007F104042C7B201E00026FF2760690890FC
:101CD000A07D04904FF0000AD1460020039094F8B4
:101CE0003400400745D594F84810606C022201FB8F
:101CF000050000EB0B0107A815F033FFB4F9040051
:101D000094F8481002224843616C06FB001000EB77
:101D10000B0106A815F025FFB4F9041094F848004B
:101D2000626C414306FB012100FB05B00144022225
:101D300005A815F016FF94F8340080075FD594F8D5
:101D40004800626C00EB0B0100FB05230B4413F809
:101D500001ACB4F90430434306FB0322114411F8EB
:101D6000019C00FB05001044584410F8010C03903E
:101D700045E0B4F84000B4F94220284401B204F12F
:101D800018008346236913F047FA07901034608ED9
:101D9000B4F93010304402B25846236813F03CFACC
:101DA0000690608E2368304402B2208E284401B22F
:101DB000584613F031FA059094F82400103C80073F
:101DC0001DD540342088B4F90220284401B2584679
:101DD00013F0B0F982466088B4F90010304402B2C2
:101DE000584613F0A7F981466088304402B234F8AF
:101DF0004009284401B2584613F09CF9039042462A
:101E000094F83400800738D50498C8F1FF0100FB2E
:101E100008F00AFB0100C0F30720039D09FB08F34B
:101E200005FB0131C1F3072100FB07F3C7F1FF05F3
:101E300001FB05331B0AA375022805D8022903D824
:101E4000002009B0BDE8F08F022800D80027022941
:101E500000D8FF270498022800D80022BAF1020F08
:101E600000D8FF22B9F1020F01D84FF00008039803
:101E7000022804D84FF0FF0801E0FF20A07502B34C
:101E8000FF2A21D0DDE907100FF01EF90290B8F10A
:101E9000000F1CD0B8F1FF0F1CD0DDE90510424641
:101EA0000FF012F90190C7B1FF2F1AD0DDE9011030
:101EB0003A460FF009F90090BDF80000A082012019
:101EC000BFE707980290E2E708980290DFE70598DD
:101ED0000190E8E706980190E5E7BDF80400A082CC
:101EE000EDE7BDF80800A082E9E72DE9F05F0446C0
:101EF000B4F9080000026062B4F90A000002A062AE
:101F0000B4F90C004FF00A0890FBF8F56F1C694219
:101F100001EB810100EB4106684200B21DF0F6FAC8
:101F20008146784200B21DF0F1FA8246C5F15A00AE
:101F300000B21DF0EBFA8346C7F15A0000B21DF063
:101F4000E5FA0146C6F10A0000FB09F20AFB062287
:101F500092FBF8F200FB0BF001FB060090FBF8F09F
:101F60005111E16240112063A07C13F00DFA94F846
:101F7000341060F3000184F83410A07C13F0F4F9FD
:101F800094F8341060F3410184F83410A07C0428E4
:101F900023D0052821D006281FD021F0040184F881
:101FA000341021682162A16921F0E00160F304018D
:101FB000A08860F39421E08860F35F51A161E0891B
:101FC0004FF4001101EB5001B1FBF0F0A063FF20D2
:101FD000A075208AA082BDE8F09F41F0040184F83A
:101FE0003410DEE7F7B506461746114C1DF006F82B
:101FF00005463B4631462046019A13F075FD20B157
:102000000020A062E06948B10CE02C21204615F0C8
:10201000EBFD4FF00040A0620020FEBD28461CF002
:10202000E1FFE061E06908B90120E0612046FEBD02
:10203000AC04002010B514210C4800F0C7F813F0D0
:1020400013FD02468AB10A49104613F0C6FD09493C
:10205000104613F0C4FD0849104613F0C2FDBDE858
:1020600010400649104613F0B6BDFEE79404002068
:102070004554010839580108D15901081154010883
:102080007FB504460D46002C02D10FF08DFC0446AE
:10209000002C28D000263DB3ADF80860ADF80A60EA
:1020A00020460FF097FC401EADF80C0020460FF0C4
:1020B000E2FC401EADF80E0002AA29466846FFF772
:1020C0004DF800280FD02068017C89070FD5DDE985
:1020D0000201C4E90C010120A4F850016068002845
:1020E00001D01DF0D7F87FBDA4F850617FBD826993
:1020F0000AB16946904700250AE004EBC50130317A
:1021000000226846FFF752F80028EFD16D1CADB2EF
:10211000B4F85001A842F0D8B4F85001202806D2F3
:1021200004EBC000303069460DF04DF906E0A4F82C
:10213000506104F1300002A90DF045F9B4F85001E6
:10214000401CA4F8500160680028CFD01DF0A2F810
:102150007FBD70B50646304600F012F804460CE02C
:102160002146304600F023F805462146304600F06F
:102170007EF8204615F0F4FB2C46002CF0D170BD03
:10218000002801D0406870470020704700B5034622
:1021900000221846FFF7F4FF014604E0521C1846DF
:1021A00000F005F801460029F8D1104600BD00688E
:1021B000091D0844006870470068084400687047BB
:1021C000002801D0806870470020704700224260DC
:1021D0008260C91C21F003010160704770B504469C
:1021E0002068083015F030FB05469DB100222946D5
:1021F00020461EF0CCF82946204662681EF0BEF844
:10220000616819B12A4620461EF0C1F86560A068D1
:1022100000B9A560284670BD70B504462068083036
:1022200015F012FB05469DB10022294620461EF0FE
:10223000A5F829462046A2681EF0A9F8A16819B1A0
:102240002A4620461EF09AF8A560606800B96560CD
:10225000284670BD002802D0416811B103E001207A
:102260007047806808B1002070470120704770B542
:1022700004460B46002C13D02046FFF781FF0022B6
:1022800098420ED119462046FFF791FF606030B1A9
:1022900001462046BDE8704000221EF078B8A260DA
:1022A00070BD2046FFF78CFF98420ED1194620469C
:1022B000FFF782FFA06030B101462046BDE87040C4
:1022C00000221EF05BB8626070BD19462046FFF721
:1022D00073FF054619462046FFF769FF064632465A
:1022E000294620461EF04AF82A4631462046BDE8D7
:1022F00070401EF04CB810B50446206882680AB1E0
:102300002146904720680068002801D02060F4E74B
:1023100010BD8068002802D0B0F916007047002078
:10232000704700002DE9F04792B005461A9C0F4611
:1023300091461E46688C40F004006884A5F8209001
:1023400022893946284618F075F9824611902E8464
:1023500022893946284618F06DF980461090698C1C
:1023600021F004016984824505D1BDF84400BDF81F
:10237000401088426AD0A5F8209022893946284624
:1023800018F058F9824611902E84394628460BF0F1
:1023900037FA2189006852461BF022FD2089602807
:1023A00025D147F6FF79CA4501D0C8451FD1284637
:1023B00018F076FA00EBD0704610284618F070FA44
:1023C00000EBD07040101199494506D1711C421C98
:1023D000914200DA00E0411C1191C84507D1711CFF
:1023E000421C914201DA701C00E0401C1090194818
:1023F000FFF7F4FE064666B31198F060109830615E
:1024000035602089B080B76068460CF0BDFA009650
:102410001148019011480290114803900020FF21BB
:1024200007900890099120880A90608840420B909C
:10243000E068069000209DF83E1060F300018DF8E2
:102440003E102069059068460CF016FB12B0BDE8FE
:10245000F087FEE7A0040020E13D02081D400208CD
:102460006D3F020814210148FFF7B0BEA004002010
:102470002DE9F84F074688469146002500264FF083
:10248000040A39E1F8680AEBC601405881016FD4AB
:1024900020F07F4019F0AFFF30EA080113D000218F
:1024A00030EA090011D00020814261D0F86850F86C
:1024B00036B000246A4641F6100158461BF052FA25
:1024C00028B101249CE00121EAE70120ECE76A46FB
:1024D00041F6110158461BF045FA08B101248FE07E
:1024E0006A4641F6120158461BF03CFA08B1012435
:1024F00086E06A4641F6130158461BF033FA08B1EC
:1025000001247DE06A4641F6150158461BF02AFA7F
:1025100008B1012474E06A4641F6140158461BF0E4
:1025200021FA08B101246BE06A4641F2690158467C
:102530001BF018FA08B1012462E06A4643F20C016C
:1025400058461BF00FFA08B1012459E06A4643F2DD
:102550000D0158461BF006FA08B1012450E06A4606
:1025600041F2010158461BF0FDF910B1012447E08A
:10257000C1E06A4641F2040158461BF0F3F908B184
:1025800001243DE06A4641F2020158461BF0EAF997
:1025900008B1012434E06A4641F2030158461BF0B9
:1025A000E1F908B101242BE06A4641F205015846E1
:1025B0001BF0D8F908B1012422E06A4641F2060175
:1025C00058461BF0CFF908B1012419E06A4641F2E0
:1025D000320158461BF0C6F908B1012410E06A46E2
:1025E00043F60F0158461BF0BDF908B1012407E07E
:1025F0006A4643F60E0158461BF0B4F900B10124B7
:1026000014B10320BDE8F88F6A4640F60A01584627
:102610001BF0A8F908B102256DE06A4640F60B01EF
:1026200058461BF09FF908B1022564E06A4643F65C
:102630000F0158461BF096F908B102255BE06A4687
:1026400043F60E0158461BF08DF908B1022552E001
:102650006A4640F63C0158461BF084F908B1022551
:1026600049E06A4640F63D0158461BF07BF908B147
:10267000022540E06A4640F63A0158461BF072F9DE
:1026800008B1022537E06A464FF4046158461BF052
:1026900069F908B102252EE06A4640F64501584620
:1026A0001BF060F908B1022525E06A4640F64101B9
:1026B00058461BF057F908B102251CE06A4640F65F
:1026C000420158461BF04EF908B1022513E06A4654
:1026D00040F6430158461BF045F908B102250AE0CF
:1026E0006A4640F6490158461BF03CF908B10225FC
:1026F00001E005B90125761C788CC0F3C500B04215
:102700003FF6C0AE28467DE70148406870470000AC
:102710005800002010B504481DF0D4FEBDE810405C
:1027200002481DF0C1BC0000E8020020600000204B
:10273000C0F30410072800D90720C0B2704700007A
:1027400010B518210348FFF741FDBDE810400120F6
:102750001CF0EABC4C0400202DE9F04104460D4673
:102760001746002C1AD02046FDF70CFE0646DFF86F
:10277000308029462046D8F8082090470546D8F8EA
:10278000082060193946904701462846721A03E02E
:102790004318E35C2354401C8242F9D2BDE8F08127
:1027A000E40100202DE9F04180460C4615461F4605
:1027B000084E3946404672689047206028B1386814
:1027C000726840440021904700E000202860BDE886
:1027D000F0810000E40100202DE9F04F87B00446AD
:1027E000DDE910588A4693461E464FF00009002D39
:1027F00001D0A5F800906CB1207878B1BAF1000F43
:102800000ED0002708F0020008F0040108431AD097
:10281000002008E0002007B0BDE8F08F0020FAE7B4
:102820000020F8E7401C215C0A2903D00D2901D0C3
:102830000029F7D1215C01B1401C002DEBD04FF0F5
:10284000FF312980E7E75FEA887001D541F6FF761E
:10285000CDF81890CDF8149023E0CDF8109005989D
:1028600038B3002106AA04ABCDE90221CDE90083EB
:10287000204433465A4651461CF078FE0499721A99
:1028800016B239440FB288B10599084405902178F1
:102890000A290BD00D2909D0205C0A280BD00D285D
:1028A00009D00598205C08B1002ED6DC059830B11F
:1028B00011E00121D6E70598401C0590F6E7084A8B
:1028C00005A9204652689047014625B1002250468E
:1028D00012F072F807B205B12F8005989BE700004F
:1028E000E40100202DE9F041064688461746002EF7
:1028F00021D0002F1FD03046FDF744FD0446384656
:10290000FDF740FD0546280015D02C440B4A4146F2
:102910003046926890470146481903E0621BB25C5A
:102920003255641EA042F9D970182A463946BDE8CE
:10293000F04115F021B9BDE8F0810000E40100206C
:1029400010B5002223290ED103782BB10024012BCE
:1029500005D0022B05D006E00122027003E00470CE
:1029600001E0047001220378012B04D1202901D158
:10297000022101700122104610BD2DE9F34182B001
:102980000746039E334600213A4608461DF072F87A
:1029900005464FF00008CDF80480681C14F054FF81
:1029A00004465CB104F8058033463A46691C20466B
:1029B0001DF060F804B02046BDE8F081FEE72DE987
:1029C000F04781460D4614461F46DDF8208012E090
:1029D000660806FB075A51464846C047002808DDEE
:1029E00044F30000C0EB5404A4F101040AEB070512
:1029F00001E005DA3446002CEAD12046BDE8F08734
:102A00005046FBE72DE9FF5FDDE910BCDDE912A7C9
:102A1000DDE90E64149D4FF030085FEA85791ED41D
:102A20006FB15FEAC5790AD005F00C0959EA0B09C4
:102A300005D07F1E03E0A146641C06F809805445BA
:102A400006D2202CF7D303E0A146641C06F80980C7
:102A50005FEAC57903D0BC4201D2202CF4D35FEAEF
:102A6000C5693CD55FEA45590AD44CB1544501D0FB
:102A7000BC4205D1641E1CB1BCF1100F00D1641E14
:102A8000BCF1100F0BD15FEA856908D4202C06D267
:102A9000A4464FF07809641C06F80C9019E0BCF1CC
:102AA000100F0BD15FEA856908D5202C06D2A44609
:102AB0004FF05809641C06F80C900AE0BCF1020FB4
:102AC00007D1202C05D2A4464FF06209641C06F8F9
:102AD0000C90202C03D2A446641C06F80C80202CF9
:102AE0001CD2BBF1000F06D0A4464FF02D08641C89
:102AF00006F80C8012E05FEA457C06D5A4464FF04C
:102B00002B08641C06F80C8008E05FEA057C05D5FC
:102B1000A4464FF02008641C06F80C80CDE902752D
:102B2000CDE9006400F087F804B0BDE8F09F2DE91E
:102B3000F04F8FB0DDE91BABDDE919971D9E189CA6
:102B40000025002C01D126F010065FEA465C0DF14D
:102B50001C0800D5FCB1B4FBF7FC07FB1C4C0CF0C7
:102B6000FF0CBCF10A0F02D20CF1300C0AE05FEA54
:102B7000866E02D54FF0410E01E04FF0610EF44435
:102B8000ACF10A0CAE466D1C08F80EC0B4FBF7F4AD
:102B90000CB1202DDFD3CDE904ABCDE90085CDE923
:102BA00002970696FFF72EFF0FB0BDE8F08F2DE9D4
:102BB000FF4F8FB0DDE91D1BDDE922A9DDE92056BD
:102BC000249F1C98002450EA010201D127F010072D
:102BD0007A050DF11C0802D550EA010218D02A46E8
:102BE0003346FDF734FBD2B20A2A01D2303206E076
:102BF000BB0601D5412300E061231A440A3A23466B
:102C0000641C08F8032050EA010201D0202CE6D30E
:102C1000CDE904A9CDE90084CDE902B50FA8069756
:102C20000FC8FFF7EFFE13B0BDE8F08F9A4200D255
:102C30008854704770472DE9FF5F0746DDE90EB500
:102C4000DDE910891446A24609F0020009F00101ED
:102C5000084313D12E4606E02246641C2020039B25
:102C60000199B847761C4645F6D307E02246641C16
:102C70006D1E039B1BF805000199B847002DF5D187
:102C80005FEA897006D409E02246641C2020039B79
:102C90000199B847A4EB0A004045F5D304B020469B
:102CA000BDE8F09F704700002DE9FF4F89B08046D6
:102CB00000250A98002801D1DFF8DC844FF00009D4
:102CC000D0E0252808D0DDE90A132A466D1CC0474C
:102CD0000C98401C0C90C5E0491C0C9100240C98E9
:102CE00001782B2923D004DC202926D0232904D1E4
:102CF00029E02D2915D030290DD000200028EED153
:102D000000260C980078FEF709FA10B30CA8FEF71D
:102D1000EEF906462BE044F00104401C0C90012023
:102D2000ECE744F00204401C0C900120E6E744F07C
:102D30000404401C0C900120E0E744F00804401C0F
:102D40000C900120DAE744F01004401C0C900120A4
:102D5000D4E70C9908782A2809D1169840C816900B
:102D6000002E02DA44F002047642491C0C9100273E
:102D70000C9801782E2918D144F48064401C0C90E2
:102D80000078FEF7CBF920B10CA8FEF7B0F90746A2
:102D90000BE00C9801782A2907D1169980C9169161
:102DA000002F00DC0027401C0C900C9801786C2947
:102DB0000AD004DC682913D06A292BD121E07429B8
:102DC0001AD07A2926D121E044F48074401C0C905A
:102DD00001786C291ED144F40074401C0C9019E059
:102DE00044F08004401C0C900178682912D144F012
:102DF0004004401C0C900DE044F48074401C0C9086
:102E000008E044F40074401C0C9003E044F4807427
:102E1000401C0C900C99087869282DD00EDC622893
:102E20002AD006DC25287BD0502825D0582811D15F
:102E300022E0632875D064280CD11DE0732871D07E
:102E400004DC6F2818D0702804D115E0752813D041
:102E5000782811D0DDE90A132A466D1CC0470C986A
:102E6000401C0C900C99087800287FF42AAF0B982E
:102E700085427DD22A4686E1782813D0582811D081
:102E8000702811D050280FD06F2818D0622818D081
:102E90000A2224F010040C980078582813D05028E7
:102EA00011D012E01022F6E7102244F0100040F496
:102EB000807448785628EED1491C0C91EBE7082223
:102EC000E9E70222E7E744F02004692803D06428F8
:102ED00001D024F00C04610501D524F00104692817
:102EE00021D064281FD0562870D0A0056FD5169821
:102EF000CDE90597CDF80890CDE90764C01D20F015
:102F000007000492D0E90012CDE900120830DDE993
:102F10000A1316902A464046FFF749FE0546B1E0DF
:102F200025E1B3E0DBE0A00529D51698C01D20F00F
:102F30000701D1E90003083116911946CDE905973B
:102F4000CDE907640492002901DA012200E00022A1
:102F5000002302921A461B1A8A4104DB0A4600210A
:102F6000404261EB0201CDE900012A46404600E003
:102F700007E1DDE90A13FFF71AFE054682E0E005E6
:102F800014D5169901C91691CDE90376C10F0594A0
:102F90000292002800DC4042CDE90001DDE90A137D
:102FA0002A464046FFF7C3FD05466BE0600605D59F
:102FB000169810F8041B1690C8B20CE0200607D52E
:102FC000169830F8041B169008B204E015E026E0CD
:102FD000169901C91691CDE90376C10F05940292A5
:102FE000002800DC4042CDE90001DDE90A132A4651
:102FF0004046FFF79CFD054644E0169901C916912D
:1030000041680968009103680B98421B0A984119AE
:103010004046FFF749FE0544CDF8209032E0E00538
:1030200010D5CDE903760292169805942A4602C877
:10303000CDE90019DDE90A1316904046FFF777FD48
:1030400005461FE0600605D5169810F8041B16907B
:10305000C8B20AE0200605D5169830F8041B169071
:1030600088B202E0169901C91691CDE90192CDE925
:10307000037605940090DDE90A132A464046FFF7DF
:1030800056FD05460C98401C0C90EBE60127A00766
:1030900006D509E02A46DDE90A136D1C2020C04749
:1030A00038467F1CB042F5D316982A466D1C10F89E
:1030B000041B1690C8B2DDE90A13C047A00706D466
:1030C00009E02A46DDE90A136D1C2020C047384676
:1030D0007F1CB042F5D30C98401C0C90C2E61698A9
:1030E00050F804BB16900FB1394601E04FF0FF31A4
:1030F000584600E0401C027812B1491E4A1CF9D122
:10310000A0EB0B0A600502D5BA4500D3BA46A0076A
:1031100006D512E02A46DDE90A136D1C2020C047BF
:1031200050460AF1010AB042F4D306E0DDE90A1381
:103130002A460BF1010B6D1CC0479BF8000020B123
:103140006105F3D57F1E791CF0D1A00706D40AE0F3
:103150002A46DDE90A136D1C2020C04750460AF1BB
:10316000010AB042F4D30C98401C0C907AE62A462F
:10317000DDE90A136D1C2520C0470C98401C0C90FB
:1031800070E60B9A521EDDE90A130020C0470DB00D
:103190002846BDE8F08F0000352C000810B500244B
:1031A000002808D000F019F8B0F5803F03D20C28B1
:1031B00000D80C200446204610BD0A46491E0A428B
:1031C00000D0FEE70140401A70470844401E4A1EE6
:1031D0009043114200D0FEE770474A1E114200D0D2
:1031E000FEE70844401E9043704700002DE9F0417F
:1031F00004460F4601206086002500260BE01BA137
:10320000FDF77EF910B16D1CADB202E0608E401C7E
:103210006086761CB6B257F8260010B101780029F6
:10322000EDD1208EA8421ED0A06A002610B114F065
:1032300097FBA662E06A10B114F092FBE662E80028
:1032400014F002FBA06238B1680014F0FDFAE062ED
:1032500018B1A16A11B102E0FEE7FEE7002569009E
:1032600014F0C2FC2586BDE8F08100000A000000D1
:103270002DE9F84F83460F469BF8090000F0070040
:1032800002281DD09146974200DD3A46164603209B
:1032900000EB460020F003051035DFF8C480DFF8AE
:1032A000C4A0D8F80840DAF80000201AD8F80410B2
:1032B0002A188A4206D2606820F0004060602CE044
:1032C000B946E0E78D421ED84FF0FF340FE000947E
:1032D0000022694624480BF049F800226946234839
:1032E0000BF044F8D8F80800DAF80010401AD8F8C3
:1032F000041028448842EAD8D8F80840606820F0D2
:103300000040606009E0284614F09EFA0446200060
:1033100019D0606840F0004060603A46494658461F
:1033200001F07CFB2060606800F04040401C20F011
:1033300080406060A681A4F80E90002804DA04F1B1
:103340001000A06008E0FEE7D8F8080000F11001C6
:10335000A1602844C8F808002046BDE8F88F0000A6
:1033600068000020C0010020A9C30008D1E30008C4
:1033700070B586B00022059204920392454C90F8F5
:103380003C20142502F00302A3784FF4B476012AFE
:1033900025D0022A41D09A4211D010F8263F03EBE3
:1033A000031303EB4303B3FBF5F32370407800EB07
:1033B000001000EB4000B0FBF5F06070A27003A8B5
:1033C00004AACDE9002001EB41004FF6FF7101EAAC
:1033D000400005AB6278217808F016FD3AE09A4289
:1033E00010D0838C03EB43035B02B3FBF6F3A380A3
:1033F00090F8270000EB001000EB4000B0FBF5F068
:103400006070A27003A804AACDE90020C9B205AB80
:103410006278A08808F0F8FC1CE09A4210D0838CF7
:1034200003EB43035B02B3FBF6F3A38090F82600A3
:1034300000EB001000EB4000B0FBF5F02070A27034
:1034400003A804AACDE90020CAB205AB2178A08860
:1034500008F0DAFC9DF814009DF810109DF80C207F
:10346000D308BDF8042063F3040201928A08BDF872
:10347000041062F34A110191C108BDF8040061F320
:10348000CF200190BDF804000290BDF8080006B0FE
:1034900070BD00001801002010B5084C01202070FC
:1034A0000748FEF76DFE20B1A068BDE810401BF094
:1034B000F1BEA068BDE810401BF0E0BEA4010020F2
:1034C0007C04002010B5044694F83E00810707D420
:1034D000A18F29B1A1F57F42FF3A01D0491EA187F2
:1034E000A28F616B8AB909B182070ED521461348B4
:1034F000FEF7BDFEFFF7D0FFE16809B1204688471F
:103500002046BDE8104014F02BBAA26B5242E26292
:10351000002911D0820702D4226B5242E26242108B
:10352000521C62F3410084F83E00E069626AE26185
:103530006062A06AA162606310BD00007C0400208C
:1035400070B5334E70681BF04DFD0546707880F005
:10355000010070702F48FEF713FE044652E0002071
:10356000307094F83E007178C0F380028A423DD0FA
:1035700061F3820084F83E00E16A4A19030719D416
:10358000002917DC002A15DBC00709D1216939B1F0
:1035900020468847E1690144E161616A084460624C
:1035A000A16809B12046884794F83E0040F0080021
:1035B00084F83E00E06A2844E062002816DBA16A35
:1035C000884200DDE162A169204688470146206A01
:1035D000884204D0216262680AB120689047D4E929
:1035E0000A10884202DB2046FFF76CFF307820B1DA
:1035F0000848FEF7C5FD044604E021460548FEF7ED
:10360000D6FD0446002CAAD11BF0F8FC706070BDFA
:10361000A40100207C040020F7B582B005460E46C8
:10362000049F002D1ED028463146632217F002F871
:1036300001900446200012D0206880B1284631460F
:10364000642216F0F7FF0190C2B242B123683946F6
:10365000204698470190BDF80400ADF8100004988A
:1036600005B0F0BD3846FBE770B504460D4660680E
:10367000002802D02946FFF7F7FF2268002A04D06D
:1036800029462046BDE87040104770BD89B20BF056
:10369000F9BD89B20BF035BE70B504460D46204623
:1036A00000F030F800B1FEE7284600F013F9616839
:1036B000001D08446060204600F030F8204670BDD0
:1036C00010B50C4600F006F91034A04201D30120D9
:1036D00010BD002010BD083870477CB505460C466B
:1036E000204600F0F7F86A4601A91CF0A3FCDDE9CA
:1036F0000032214628460AF0B5FA7CBD007900F078
:103700000100704710B500F0E5F808B1002010BDC9
:10371000012010BD007900F00200704710B504468A
:10372000204600F07AF8046010BD7CB506460D46D0
:103730000020019000900024002D0DD06A4601A9C0
:1037400028461CF08EFC01980A2805DA6A4601A971
:1037500030461DF046FD04465CB1204600F0BAF844
:10376000A84200D2FEE7DDE90032214630461DF0D6
:10377000B5FA20467CBD10B504462046FFF7CEFFC3
:1037800000F093F82046BDE8104000F089B810B56D
:103790000446204600F041F800F08CF82046BDE8D1
:1037A000104000F092B870B506460D46284600F06D
:1037B00034F8044644B12046FFF7A0FF70B1284614
:1037C000FFF7A0FF08B1FEE7FEE72146304600F014
:1037D00056F821462846FFF75FFF0546284670BD8C
:1037E00070B506460D462846FFF794FF88B1284677
:1037F00000F03CF8044674B12046FFF77FFF58B153
:103800002146304600F03BF829462046FFF744FFAA
:103810000546284670BDFEE7FEE770B5054628461A
:1038200000F058F8041F284600F091F821461CF0DB
:1038300047FE04462846FFF765FF00B1FEE7204635
:1038400070BD10B503460C460020002C0DD05AB1B7
:103850002146184600F07DF82046FFF798FF2046E5
:10386000BDE8104000F073B8FEE710BD10B5044687
:103870002046FFF74FFF08B1206810BDFEE77CB57A
:1038800005460C46204600F025F86A4601A91CF0C2
:10389000D1FBDDE90032214628461DF01FFA7CBD30
:1038A000416841F0010141607047416841F0020107
:1038B00041607047416821F0020141607047027920
:1038C00002F003020A4342607047416821F001019F
:1038D00041607047406820F0030070472DE9F041D7
:1038E00006460C46304600F032F8211F1CF0E8FD79
:1038F00080463046FFF7EEFF051B2D1F404600F0C7
:1039000026F80746404600F022F80421FFF75DFC48
:10391000874200D0FEE73046FFF7DCFF2919091D7A
:10392000884200D0FEE729464046FFF7C8FF4046E0
:10393000FFF7D0FF0C2800D2FEE721463046FFF704
:10394000BEFF4046FFF717FF4046BDE8F081083054
:10395000704770B506460D4614462846FFF7CEFE62
:10396000B0B121462846FFF7ABFE002811D0214612
:103970002846FFF7B3FF04462846FFF7CFFE204650
:10398000FFF793FF21463046BDE87040FFF7A5BE24
:10399000FEE770BD70B505460C4616462046FFF79B
:1039A000ADFE00B1FEE731462046FFF789FE002854
:1039B00011D031462046FFF791FF04462046FFF71D
:1039C00079FF21462846FFF7EEFE01462846BDE86E
:1039D0007040FFF782BE70BD38B5044612F026FB7A
:1039E0000546284612F061FB30B1218FE186204662
:1039F00017F05DFA012038BD204610F0A5FCF8B1A3
:103A0000204610F057FB218FE08E81420CD020879A
:103A1000E08E00906A461C21204610F0E5FE012849
:103A2000E9D1204617F043FA284612F04CFB04284F
:103A3000E0D1204615F016FE002111F058FBD9E721
:103A4000204610F0D7FCD5E770B510F0C8FE05464B
:103A5000284615F050FE044628460CF01DFB014692
:103A60002046BDE8704001221AF098BDC0F3C01096
:103A70007047C0F380107047C0F3C0107047C0F3A8
:103A800000207047C0F3C0007047C0F3401070477B
:103A9000C0F340207047C0F300307047C0F30010FF
:103AA000704700002DE9F04F87B005460C46002115
:103AB000284615F0FBFC60B32146284600F092FA38
:103AC0002146284600F072F80021284616F085FCB1
:103AD00006900021284616F044FD05900021284656
:103AE00016F04BFB01281BD000270021284616F0BA
:103AF000B4FE80460021284616F0C0FB064642F27E
:103B0000D179C8450ED1688C40050BD44FF001081F
:103B10000AE007B02046BDE8F04F1C2114F064B85D
:103B20000127E2E74FF00008284615F045FD8346DF
:103B300028460021DFF870A0BAF8022016F07AFDBE
:103B40000490C2B2A36821692068CDE90013CDE9D1
:103B5000020741465846069B09F0CAFE20834E459F
:103B600004D1688C800501D4012600E00026284697
:103B700015F007FD074628460021BAF8062016F082
:103B800059FDC2B2E368616960680025CDE90013A0
:103B9000CDE9020531463846059B09F0A9FE608350
:103BA00007B0BDE8F08F00008C0000202DE9F84F31
:103BB00082460C46504609F095F80746504615F0E7
:103BC000FBFC8146384600F096FF2061400013F070
:103BD00067FE20602069400013F062FEA0600025AF
:103BE00041F69A7836E0494E37F91500404530D114
:103BF0004FF0000B1EE05946504615F057FC009060
:103C00004349009816F09CFE90B9009809F07CF8A2
:103C100001280DD1009809F06DF8A84208D100984C
:103C200016F03EFEB04203DB009816F039FE064661
:103C30000BF1010B504615F04FFC5845DBD8002E18
:103C400003DBA06820F8156003E0A168002021F8DC
:103C500015006D1C2069A842C5D80025AB46002080
:103C600041F69B7618E037F91010B14204DB0D44A1
:103C7000A5F5F8559B3D0EE0414506D1A16831F808
:103C8000101059440FFA81FB05E0A26822F81010C9
:103C900059440FFA81FB401C21698142E3D800217D
:103CA000504616F09AFB2169C1F1010100FB019019
:103CB000A0EB0B0001B2002900DA00214FF0FF3C1D
:103CC0000022002011E037F91030B3420CDBA3F5DD
:103CD000F8539B3B1AB201FB02F3B3FBF5F3D4F8A4
:103CE00008C02CF810308446401C23698342EAD86F
:103CF000BCF1000F07DBA81A4843B0FBF5F0081A27
:103D0000A16821F81C00BDE8F88F000001E0FFFF6A
:103D1000010006002DE9F05F0746002211463846F3
:103D200018F00AF80021384616F05CFA0446002123
:103D3000384616F024FC20440FFA80F8002138465B
:103D400016F0F7FA20440FFA80FA384616F0BAF95E
:103D5000404450440FFA80F92A4C384615F0BCFB19
:103D60008346002617E0B868006850F826502649B8
:103D7000284616F0E5FD68B9284617F003F9C0B1EA
:103D8000B5F91A00B7F91610401A411CA14200DB20
:103D9000441C24B2761C5E45E5D341F6FF70C44254
:103DA0002ED004EB0A0000B2484500DC4846BDE8CE
:103DB000F09F0021284616F0AAF9B0B1012814D0CE
:103DC000022812D0032810D00021284616F061FDE9
:103DD0000028DFD1688BE98A401A401C00B24044B9
:103DE000A04200DB044624B2D4E7B5F91A00B7F9C3
:103DF0001610401A411CA14200DB441C24B2C9E742
:103E00004846D4E701E0FFFF010004002DE9F05F20
:103E1000054600221146284617F078FF0021284663
:103E200016F0E0F904460021284616F046FB20442F
:103E30000FFA80F80021284616F0EBFA20440FFA1A
:103E400080F9284616F04CF9484440440FFA80FBAC
:103E50005A4C284615F040FB82460021284616F0B1
:103E600077F9012801D0002666E0002617E0A8684F
:103E7000006850F826705249384616F061FD68B95E
:103E8000384617F07FF8A0B1B5F91800B7F914104B
:103E9000401A411CA14200DB441C24B2761C56454A
:103EA000E5D341F6FF70C4424FD004EB090004B2E1
:103EB0004BE00021384616F02AF9D0B1032818D07B
:103EC000062816D0082814D00021384616F0DAFC4F
:103ED0000028E3D107F1140007460BF0FEFA404436
:103EE000A04204DB38460BF0F8FA00EB080424B2D9
:103EF000D4E7B5F91800B7F91410401A411CA142D3
:103F000000DB441C24B2C9E7A868006850F826709A
:103F10002B49384616F014FD68B9384617F032F8C8
:103F2000D0B1B7F91800B5F91410401A411CA142DC
:103F300000DB441C24B2761C5645E5D341F6FF70E5
:103F4000C44202D004EB080004B241F6FF70C44240
:103F50002DD15846BDE8F09F0021384616F0D7F81D
:103F6000D0B1012818D0042816D0072814D0002179
:103F7000384616F08EFC0028DDD107F11400074604
:103F80000BF0ABFA4844A04204DB38460BF0A5FA2C
:103F900000EB090424B2CEE7B7F91800B5F9141004
:103FA000401A411CA14200DB441C24B2C3E75C451B
:103FB00001DD2046CEE75846CCE7000001E0FFFFD8
:103FC0000100040010B50446206813F0B7FC6068D7
:103FD00013F0B4FCA06813F0B1FCE068BDE8104039
:103FE00013F0ACBC2DE9F05F81460C46484609F061
:103FF00003FB0746384600F07EFD6061400013F089
:104000004FFC60606069400013F04AFCE0600025EE
:1040100041F69A7836E0484E37F91500404530D1E0
:104020004FF0000A1EE05146484615F03FFA83461D
:104030004249584616F084FC90B9584609F060FB96
:1040400001280DD1584609F051FBA84208D1584625
:1040500015F00FFBB04203DB584615F00AFB06468D
:104060000AF1010A484615F037FA5045DBD8002E10
:1040700003DBE06820F8156003E0E168002021F828
:1040800015006D1C6069A842C5D8002600250020D7
:1040900041F69B7A16E037F91010514504DB0E44C7
:1040A000A6F5F8569B3E0CE0414505D1E16831F894
:1040B000101029440DB204E0E26822F810102944DF
:1040C0000DB2401C61698142E5D80021484616F0D6
:1040D00048FA8046484615F054FA6169C1F1010179
:1040E00008FB0100401B01B2002900DA00214FF05B
:1040F000FF33002500200FE037F9102052450ADB7E
:10410000A2F5F8529B3A12B24A43B2FBF6F2D4F847
:104110000CC02CF81020401C62698242ECD8002BA5
:1041200007DB701B4843B0FBF6F0081AE16821F882
:104130001300BDE8F09F000001E0FFFF0100060052
:104140001CB50B8804892344ADF800304B884489A2
:104150002344ADF802308B8804892344ADF8043041
:10416000C98843891944ADF80610436969469847E0
:104170001CBD0000F8B50E4604462046D4E90C21CB
:10418000002A01D0127802B951B159B11AF043FD99
:104190000F4909688847616B884203D30020F8BD46
:1041A0000120F8BD206B88B100200090094D06E089
:1041B0002A6869469047B04201D10120F8BD206BC2
:1041C0000099415C0029F3D10020F8BD0120F8BD21
:1041D000FC010020E80100202DE9FF4F89B00D46C9
:1041E0001A9CE878C007002801D0F24800E0F248A5
:1041F000079001D0F14F00E0F14F01D1EF4800E00E
:10420000EF4806904FF0000949466088A288A0EB6D
:10421000020002B20846D4F8108013E000EB8006DA
:104220004FF0100CE3680CEB860C13F80CC05FEA3F
:10423000CC7C0CD04FF0080C0CEB86069B5BD21AA2
:1042400012B2401C8045E9D84FF0000C4AE04FF014
:104250000C0C0CEB86069B5B194409B2F1E70CEBE6
:104260008C061020E36800EB86000890185CC007FD
:1042700036D192FBF1F80C2000EB86008646185AE6
:1042800000FB08F000B24FF0060A4FF004080AEBFA
:10429000860A08EB860833F90AA033F908808245BC
:1042A00001DD834600E0D346D84504DC824501DDCC
:1042B000804600E0D046804504D008984FF00109C0
:1042C00043F80090E368082000EB860023F80080A4
:1042D000E36833F80E00081A01B2A2EB080002B23C
:1042E0000CF1010C20696045B9D8B9F1000F89D1F2
:1042F0000021099815F03AFF012821D04FF0000A5B
:1043000000200590049004A805A9CDE9001020899B
:10431000B4F9022003B2287818991CF0DEF8E87886
:1043200010EA0A0F06D0099815F046F9BDF81410E6
:10433000084405900B99099815F0B8F806462FE146
:104340004FF0010ADCE79F49304616F0F9FA40B118
:10435000E8780BAAC0F38001099808F0EBFF064645
:104360001EE10021304615F071FFE8B34FF0000860
:104370000020216910E0E26800EB800352F823205E
:10438000B24208D100EB8002E168082000EB820015
:1043900031F9008002E0401C8142ECD8E878C00787
:1043A00004D0708C40F48060708403E0708C40F422
:1043B0000070708406F114008146B84740452AD049
:1043C000304616F074FDB08AADF80400F08AADF8FE
:1043D0000600308BADF80800708BADF80A00079A24
:1043E00041464846904700E00FE001AA29213046A7
:1043F00010F0FAF9304615F07EF93246222110F01D
:10440000F3F9304616F053FD05E0708C20F480601F
:1044100020F4007070844FF0000B6878012811D0F0
:10442000022817D1069906F114008847B4F9001044
:10443000491C21F00101081A00EBD07040100FFA5E
:1044400080FB07E0069906F1140088472188081AC6
:104450000FFA80FBE87810EA0A0F06D006F1140084
:10446000B847BDF81410081A05903046002143F2F1
:104470000C0216F0DFF802900FFA80F830460021A7
:1044800043F20D0216F0D6F802900FFA80F930468A
:1044900016F006FA0390304615F0EBF80146C8F323
:1044A0004130012810D128F4C040B0F5FA6F0BDC80
:1044B000B0F57A7F01DDC0F57A70039A504364222B
:1044C00090FBF2F00FFA80F8C9F3413001280FD1C8
:1044D00029F4C040B0F5FA6F0ADCB0F57A7F01DD4F
:1044E000C0F57A704843642190FBF1F00FFA80F92F
:1044F000B18A1698401A404402B2F18A1798401ABD
:10450000484401B2E878C007002802D0BDF9140081
:1045100000E0584610440FFA80F801D1BDF914B0FC
:104520000BEB01000FFA80F958EA090017D030466A
:1045300016F0BDFCB08A4044B082308B40443083DA
:10454000F08A4844F082708B48447083304616F0FD
:10455000AEFC01234A464146304616F066FDE87837
:1045600010EA0A0F0CD106F11400B8471999084453
:10457000BDF810100844BDF814100844059007E079
:10458000BDF8101019980844BDF81410081A0590C9
:10459000E8780BAAC0F38001099808F0CBFE064624
:1045A000002E04D0DDE90B1081427FF4CCAE0DB0BB
:1045B000BDE8F08F9FF5000895F500080BF50008A1
:1045C0008DF40008010006002DE9F04F8BB0054680
:1045D0008A46BAF1000F43D0A5F818A0286808B1A0
:1045E00013F0BEF90AEB4A00062101EB400013F07C
:1045F0002BF9286040B36860022101EB4A010144B5
:10460000E960042101EB8A010144A9604FF0000830
:10461000BAF1010F19D00AF101000446C00013F0ED
:104620003FF9064606EB8407C1464FEA8A0002B20C
:1046300009A90AA800F030F90024BDF9280080106B
:10464000059000200190B2E0FEE7B4210170E86817
:10465000A0F80080E96801204880A868A0F80080E0
:104660000BB0BDE8F08F4FF000080DF1140B09A955
:104670000AA800F018F90AA800F004F970B1BDF911
:10468000280081104BF8281000F0030101A840F821
:10469000281008F10108B8F1040FE8DBB8F1040FA5
:1046A0007ED108990598884213D1059826F8140000
:1046B00027F81490DDE901010844DDE903121144F3
:1046C000084469680855696800010855641C24B2EB
:1046D0006BE0DDE90501884220D0059826F814003A
:1046E00027F8149069680198085569680001085511
:1046F000641C20B20599491E26F8101027F8109066
:10470000DDE902120A440499091D11446A68115432
:104710006A6809011154401C04B246E007990598E3
:10472000884220D0059826F8140027F81490DDE977
:104730000101084469680855696800010855641C4E
:1047400020B20599491E26F8101027F81090DDE9CF
:10475000031211446A68083111546A68090111543E
:10476000401C04B221E0059826F8140027F81490A4
:10477000DDE901010844039908446968085569683E
:1047800000010855641C20B20599491E26F8101036
:1047900027F8109004996A680C311154090100E05F
:1047A0000BE06A681154401C04B209F101090AA81F
:1047B00000F068F800287FF456AF40F2D3200AFBDF
:1047C00000FA4FEAAA20611E36F91120824203D175
:1047D00037F9111081421AD0AAEB8021B1F5007F80
:1047E00003DC49434900091406E0C1F580614943EF
:1047F00049000914C1F10F0126F8140027F814002C
:1048000068680155686809010155641C24B2A01E3E
:104810000DE037F8101026F8141036F8101027F8AD
:10482000141069680A5C0A55401E641C24B20028F2
:10483000EFDA00210020EB6800221A801CE0EA6811
:1048400022F81100AB6836F8102023F811200BE095
:10485000D5F808C036F910303CF811209A4200DB38
:104860001A462CF81120401C37F910208A4201D139
:10487000A042EDDB491C09B2A042E0DB304613F058
:104880005DF8EDE6B0F90210B0F90000814201DCFC
:104890000120704700207047028000234380C2F14E
:1048A00001000880704710B5B1F90030B0F902205E
:1048B000002B05DC032404EB42021A440A8009E0C1
:1048C0000488121B052404EB42021A440A80018862
:1048D000491E01804188491C418010BD17B581B037
:1048E000022A03D8BDF8080004B010BDBDF8083096
:1048F000BDF80400D90A01EBD0211F2900D31F21E4
:1049000061F3CF200190C3F34511C0F34514214456
:104910003F2900D33F2161F34A10019003F01F01AA
:1049200000F01F0319441F2900D31F2161F3040065
:104930000190FF2A07D0DDE901010CF0E3FB0090B4
:10494000BDF80000D0E7BDF80400CDE717B581B091
:10495000022A03D8BDF8080004B010BDBDF8040059
:10496000BDF80810C30ACC0A63435B0963F3CF2088
:1049700000F01F0301F01F0463435B0963F30400AD
:10498000C0F34513C1F345114B43990961F34A1034
:104990000190FF2A07D0DDE901010CF0B3FB009084
:1049A000BDF80000D8E7BDF80400D5E717B581B021
:1049B000022A03D8BDF8080004B010BDBDF80830C5
:1049C000BDF80400D90AA1EBD021002900DC0021A8
:1049D00061F3CF200190C3F34511C0F34514091BC7
:1049E000002900DC002161F34A10019003F01F014F
:1049F00000F01F03C91A002900DC002161F3040044
:104A00000190FF2A07D0DDE901010CF07BFB00904B
:104A1000BDF80000D0E7BDF80400CDE781EA6201EF
:104A200048407047F8B5044620460FF0D8FE0646C9
:104A300020460FF096FE0446304614F05CFE054614
:104A40002B2C2ED00A2C2BD16946304614F0BEFEFA
:104A5000304614F0B1FD04460021284615F094FBC1
:104A6000012828D0BDF9001004EBD47001EB6000E0
:104A700090FBF4F001B2002900DA0021002428465E
:104A800019F087FD884200D001240122284619F040
:104A900085FD002C04D000221C2128460FF0A4FE26
:104AA000F8BD284619F075FD01462846BDE8F840D6
:104AB000002219F073BDBDF9001004EBD470C1EBF6
:104AC000600090FBF4F001B2D5E730B58060C060C3
:104AD00000250561002200EB82014D61002100EB01
:104AE000C21303EB8104E063491C2029F9DB521C4B
:104AF0000A2AF0DB30BD0146002041F6FF7200E0DB
:104B0000401C31F910309342FAD170471CB504466D
:104B100094F8500000F0010088422FD021B194F8A1
:104B2000500040F0010103E094F8500020F0010132
:104B300084F8501004F1440168460AF08CFC616A64
:104B4000BDF80020888A1044ADF80000BDF80200CE
:104B5000C98A0844ADF80200606ABDF80410808A72
:104B60000844ADF80400606ABDF80610C08A084425
:104B7000ADF806006946204616F0CEF91CBD07B513
:104B800082B0114603980CF053F90190BDF804006F
:104B900005B000BD2DE9F04F89B005460E4614461C
:104BA000F07A022803D8012009B0BDE8F08F18463A
:104BB0003269B168FDF716FA0746380008D0387D2B
:104BC00000F01F0010F0E0FB20B14FF006090CE0F0
:104BD0000020E9E7387D00F01F0010F0C5FB10B1A0
:104BE0004FF0050901E04FF004093A6A22B121466D
:104BF00028461CF090FCC0E0B869E8B3214607A83D
:104C00000AF0EAFB308818B97088B0F5807F2AD0A6
:104C1000A0882188401A401C01B2E0886288801A6E
:104C2000401C02B2301D7388CDE90030B6F9003067
:104C300007A8FCF71BFEBDF81C0021880844ADF84E
:104C40001C00BDF81E0061880844ADF81E00BDF8C8
:104C5000200021880844ADF82000BDF822006188BA
:104C60000844ADF8220007AA05A8A968FCF776FA5F
:104C700080B1D5F8088000E011E005A8A860CDF863
:104C80000090224631462846BB690DF04DF9C5F823
:104C9000088072E0384601F083FA012084E722465A
:104CA00007A8A968FCF75AFA18B3BDF82000BDF8A8
:104CB0001C10401A401C0FFA80FA0AEB4A0012F04E
:104CC000EFFD0690D5F808B007A904A80AF084FB08
:104CD000012104A80AF05EFCBDF91C00B4F9001023
:104CE000401A0390BDF91E80B4F90200A8EB00043D
:104CF0003AE0384601F054FA012055E704AA594633
:104D000001A8FCF72BFA68B30698009003980FFAF5
:104D10008AF301B222B2384610F04AFF01280CD0C3
:104D2000384610F08EFE069812F008FE384601F064
:104D300037FAC5F808B0002036E701A8A860CDF81A
:104D4000009004AA31462846069B0DF0EDF8BDF808
:104D50001200401CADF81200BDF81600401CADF862
:104D60001600641C08F10108BDF922004045C5DAAF
:104D7000C5F808B0069812F0E1FD384601F010FAC7
:104D8000012011E77047000010B56FF00400FCF738
:104D900067F8094809490068B0FBF1F00849C0B25A
:104DA000087000EB4002C2EBC0104FF6FF7202EA3F
:104DB000C000488010BD00000000002000127A00F2
:104DC000240000200B49498848434FF0E021486106
:104DD00000238B61086940F0010008610869C2077F
:104DE00001D0C003FAD5086920F0010008618B6189
:104DF00070470000240000202DE9F04180460F4656
:104E00001646B7F902500EE0B7F9004006E03288C6
:104E1000A9B2A0B2FBF761FCB61C641CB7F9040090
:104E2000A042F4DA6D1CB7F90600A842ECDA40465D
:104E3000BDE8F0410CF0B2BD704738B5044611F042
:104E4000F5F80546206B1AF0CDF82968898B884261
:104E500024D2606A009094F83C0010F0030005D062
:104E60006421012806D0022809D106E00020ADF80F
:104E7000000004E08DF8021001E08DF803102846D0
:104E800011F0B0F9204600990CF01FFC30B100225F
:104E90001C2120460FF0A8FC012803D11AF0AEF81F
:104EA0002063012038BD00002DE9F04F99B0814604
:104EB0008A46144615A80CF004FE4FF4A02148467B
:104EC00015F02FF99DF8611060F382018DF86110E3
:104ED00020460AF020FB00EBD070461020883044BA
:104EE000ADF8500060883044ADF8520000214846CB
:104EF00015F003FA0746514602A814F0AFF815A8BA
:104F00000A904FF400300F902D4803900020049039
:104F100009F130008346FDF753F904464AE0207951
:104F2000032842D1208BADF85400208AADF85600FA
:104F30006079FD2801D9384601E07843000A8DF8F0
:104F400060002568B5F92030E88B18440090D5E959
:104F50000512A06812F066FC8046B5F92030E88B97
:104F600018440090D5E90512E06812F05BFC054694
:104F7000608B3044ADF84400139414A80B9002AA3F
:104F80001A2148460FF030FCA8B21FFA88F1CDE98B
:104F90000010BDF8443014AA15A950460CF081FD4C
:104FA00002AA1B2148460FF01FFC21465846FDF778
:104FB00003F90446002CB2D119B0BDE8F08F00000F
:104FC000404B020870B504460D4600222946204693
:104FD00006F004FD01222946204606F0FFFC0222CD
:104FE0002946204606F05CFB29462046BDE8704075
:104FF000042206F055BB2DE9F74F0C4698B0114638
:10500000E078022876D916A80AF0F8F9B4F9200059
:10501000012828DD94F82200FD2824D3208810B32D
:1050200014F8230FBDF858104008C0F38002114453
:10503000ADF85810BDF85A10C0F340000844ADF860
:105040005A002178BDF85C004908C1F3C001401A3C
:10505000ADF85C0014F82319BDF85E00C1F34001FF
:10506000401AADF85E00189816A9826814A8FCF7DB
:1050700075F800283ED0E07B00F00705C5B1E08858
:105080001390BDF84C006189884200D1002516A814
:105090000DF08EFC07461C210CA8FBF709FAA0783E
:1050A0008DF84900BDF84C00ADF838001FB105E09F
:1050B00060681390E5E7208800B995B194F80390F3
:1050C000B9F1FD0F01D34FF0FF0916A80AF017FA46
:1050D000834616A80AF0D4F90646B3450DDA5846B9
:1050E0000CE016A80C90E0788DF848000CA91898F0
:1050F0000EF0C7F91BB0BDE8F08F3046B4F900A040
:10510000BAEB600F01DB4FEA600A14A80AF0F7F966
:1051100080464FF0FF300B9000200A90BAF1000F4C
:1051200000DC7FB1404612F0BBFB0A9000230FFA6F
:105130008AF216A904A80DF0E1FE002104A80DF0E2
:1051400011FA0B90BDF85000ADF80800BDF85400FE
:10515000ADF80C000A980F9002A80C901190FF2057
:105160008DF8480032465946A01D0FF04DFE064608
:1051700030000BD0022D09D1BDF95010B06800EB02
:105180004100BDF95810A0EB41000D9087B3BDF967
:10519000524028E027B2ADF80A70ADF80E704246D2
:1051A00049460A9812F0F3FCBDF950100FFA88F343
:1051B0003A460A980DF0BAFB8DF84000012802D15A
:1051C00002208DF84000012D08D1BDF95A10B068B9
:1051D000611A00EB41000088ADF838000CA918985E
:1051E0000EF04FF9641CBDF95600A042D2DABCE0C3
:1051F000FFE74FF0000B54E0BDF85A00584404B2EA
:10520000BDF85E00A0EB0B0007B2BDF95200A04252
:1052100003DDBDF95600B84241DB424649460A98D3
:1052200012F0B5FCBDF908100FFA88F322460A986F
:105230000DF07CFB8DF84000012802D102208DF892
:105240004000BDF95200A04212DCADF80A40ADF8B2
:105250000E40012D08D1BDF95A10B068611A00EB5B
:1052600041000088ADF838000CA918980EF009F933
:10527000BDF95600B84212DBADF80A70ADF80E70F9
:10528000012D08D1BDF95A10B068791A00EB410020
:105290000088ADF838000CA918980EF0F2F80BF160
:1052A000010BD345A8DBBDF85800ADF80000BDF8F0
:1052B0005C00ADF80400BDF85A005044ADF802009F
:1052C000BDF85E00A0EB0A00ADF8060068460DF0E0
:1052D0006FFB074657EA05000DD08DF84890012076
:1052E0008DF84000BDF95E00A0EB0A0BBDF95A0035
:1052F00000EB0A0437E0BDF85A005044ADF80A004C
:10530000BDF85E00A0EB0A00ADF80E008DF84890E5
:1053100000200F900CA918980EF0B3F825E077B193
:10532000424649460A9812F032FCBDF950100FFA75
:1053300088F322B20A980DF0F9FA8DF84000ADF822
:105340000A40ADF80E40012D08D1BDF95A10B068E1
:10535000611A00EB41000088ADF838000CA91898DC
:105360000EF08FF8641C5C45D9DD0A9810B10A98DC
:1053700012F0E4FA0B98401C05D00B980DF06CFE6F
:1053800004A80DF0F7FA002E3FF4B4AE30460FF04B
:1053900034FDAFE6F0B58FB006460C4615462069E1
:1053A000002871D0A17E02296ED910F02DFE0228AE
:1053B00022D00EA9206910F067FB012864D108A84B
:1053C0000CF0BAFDA0788DF82C00208BADF82800E9
:1053D000E07E8DF82A00A07E8DF82B00207F4FF014
:1053E000FF37E0B36888ADF81A000E9907EB51510A
:1053F0000844ADF81E00AAE0002741F6FF70CDE991
:1054000000700297D4E904123B460EA81AF058F92E
:1054100028460AF074F8298800EBD07001EB60018F
:10542000BDF9380000EBD072A1EB6201ADF830108D
:105430000844401EADF8340028460AF021F8698877
:1054400000EBD07001EB6001BDF93A0000EBD072C7
:10545000A1EB6201ADF832100844401E00E015E0F7
:10546000ADF8360004A80DF021F860690490208B97
:10547000ADF81C00A07E8DF82A0000970CAA04A9A4
:10548000304623690CF072FD0FB0F0BD28460AF0DB
:1054900036F8298800EBD07001EB60000E99C1F35B
:1054A0008A21A0EB5100ADF81800284609F0E8FF6A
:1054B000698800EBD07001EB60010E98A1EB905170
:1054C000ADF81A10BDF81830C0F38A22521E1A44E3
:1054D000ADF81C2007EB50500844ADF81E0006AA9A
:1054E00008A9304623690CF0F7FCCDE72888ADF811
:1054F00018000E99C1F38A21491E0844ADF81C001A
:1055000012E006AA08A9304623690CF0E5FC0E98C3
:10551000BDF81810C0F38A200144ADF81810BDF88A
:105520001C100844ADF81C00BDF91800B5F90410B2
:105530008842E6DDBDF81A100E9801EB5051ADF827
:105540001A10BDF81E1001EB5050ADF81E00BDF949
:105550001A00B5F906108842C8DD95E72DE9F0413B
:1055600086B007460C46164694F82200022874D9E5
:10557000208C002871D094F8230010F03E0F6CD0DE
:10558000C0076AD1304609F0BAFF8046304609F0BC
:1055900077FFB4F90050804500DA4046B5EB600F64
:1055A00000DD4510314604A809F028FF94F82300D7
:1055B000BDF91020C0F34401480702D5B4F920001A
:1055C00003E0B4F92000284440421044ADF8100034
:1055D000BDF91420080702D5B4F9200003E0B4F99E
:1055E000200028444042101AADF8140094F823001B
:1055F000BDF912104008800702D5B4F9200003E07D
:10560000B4F92000284440420844ADF8120094F850
:105610002300BDF916104008C00702D0B4F92000DD
:1056200003E0B4F9200028444042081AADF81600FF
:10563000208C281A00B2002800DA0020A17894F803
:105640002220CDE90221E18BADF8041000902BB2AD
:1056500004AA3146384600F003F806B0BDE8F081F0
:105660002DE9FF4F9DB00C46DDE92C6A2A9F1546B7
:105670009946FF2E00D3FF2620460DF099F980466B
:1056800048EA0900384371D01D98214682681BA85A
:10569000FBF764FD002870D01BA809F030FF1A90BA
:1056A0001C2113A812F0A0FA1A9812F0F9F816901B
:1056B0004FF0FF301290B9F1000F0ADD00234A4687
:1056C00021460CA80DF01AFC00210CA80CF04AFF92
:1056D000129001233A46294606A80DF00FFC00213E
:1056E00006A80CF03FFF059003A813901890BDF892
:1056F000AC00ADF854008DF864608DF865A0B4F985
:105700000000B5F900104844884200DC0846ADF8B6
:105710000400B4F90400B5F90410A0EB09008842B4
:1057200000DB0846ADF80800B4F90200B5F9021034
:105730004844884200DC0846ADF80600B4F906008B
:10574000B5F90610A0EB0900884200DB0846ADF869
:105750000A0001A809F0D3FEB4F90210B5F902203D
:1057600091420DDC01270CE000E006E000962A469D
:1057700021462B9B1D9800F0E3F921B0BDE8F08F86
:105780000027B4F90610B5F90620914201DB012685
:1057900000E00026B8F1000F43D0BDF86C00ADF872
:1057A0000C00BDF87000ADF81000BDF96E4021E0AE
:1057B0001FB9BDF90600A0421BDC1EB9BDF90A00E5
:1057C000A0421BDB25B2ADF80E50ADF812501A996D
:1057D000169812F031FA1A9ABDF96C1013B22A46D3
:1057E00016980DF0A3F88DF85C0013A91D980DF024
:1057F00048FE641CBDF97200A042D9DA06A80DF07B
:10580000B9F805980DF028FC1298401C05D00CA89A
:105810000DF0B0F812980DF01FFC169812F08EF8EB
:10582000ABE7B4F90010B5F90020914202DC4FF06B
:10583000010A01E04FF0000AB4F90410B5F90420A0
:10584000914202DB4FF0010801E04FF000084FF0F9
:10585000010B0AEA08013940314203D0322801DA4B
:105860004FF0000B01208DF85C0017EA0B0F12D0EF
:10587000BDF80400ADF80C00BDF80800ADF810004C
:105880006088ADF80E006888401EADF8120013A9BC
:105890001D980DF0F6FD16EA0B0F12D0BDF80400AE
:1058A000ADF80C00BDF80800ADF81000E888401C09
:1058B000ADF80E00E088ADF8120013A91D980DF0A8
:1058C000E0FDBAF1000F12D02088ADF80C00288856
:1058D000401EADF81000BDF80600ADF80E00BDF892
:1058E0000A00ADF8120013A91D980DF0CAFDB8F119
:1058F000000F12D0A888401CADF80C00A088ADF8AD
:105900001000BDF80600ADF80E00BDF80A00ADF8B5
:10591000120013A91D980DF0B4FDBBF1000F0CD0BF
:10592000BDF86C00ADF80C00BDF90400BDF97010B5
:10593000421E91424DDA08464CE0BDF86C00ADF8CD
:105940000C00BDF87000ADF81000B4F90200B5F914
:105950000210401A484500DB81460FFA89F80025FD
:1059600034E06088284406B2E088401B07B2BDF9E5
:105970006E00B04203DDBDF97200B84225DB1A9912
:10598000169812F059F91A9ABDF90C1013B2324652
:1059900016980CF0CBFF8DF85C00BDF96E00B0429C
:1059A00007DCADF80E60ADF8126013A91D980DF07C
:1059B00068FDBDF97200B84207DBADF80E70ADF8B6
:1059C000127013A91D980DF05CFD6D1C4545C8DBD8
:1059D000A6E0401EADF8100003A809F090FD814636
:1059E000B9F1000F42DD5AEA07001DD0BDF96E4043
:1059F00016E025B2ADF80E50ADF812504946169893
:105A000012F01AF9BDF90C104B462A4616980CF004
:105A10008DFF8DF85C0013A91D980DF032FD641CFC
:105A2000BDF90600A042E4DC5AEA060A1ED0BDF920
:105A30000A40641C16E025B2ADF80E50ADF81250C5
:105A40004946169812F0F8F8BDF90C104B462A4654
:105A500016980CF06BFF8DF85C0013A91D980DF0E3
:105A600010FD641CBDF97200A042E4DABDF9080023
:105A7000BDF96C10421C914201DD084600E0401C5B
:105A8000ADF80C00BDF87000ADF8100003A809F0E7
:105A900036FD8146B9F1000F42DD58EA07001DD0FE
:105AA000BDF96E4016E025B2ADF80E50ADF81250BB
:105AB0004946169812F0C0F8BDF90C104B462A461C
:105AC00016980CF033FF8DF85C0013A91D980DF0AB
:105AD000D8FC641CBDF90600A042E4DC58EA0608C4
