:020000040800F2
:10000000C0F900200D0200081B0D00089B06000827
:10001000190D0008ED050008DB10000800000000C5
:10002000000000000000000000000000B50D000806
:10003000EF05000800000000810D0008790E00089F
:1000400027020008270200082702000827020008EC
:1000500027020008270200082702000827020008DC
:1000600027020008270200082702000827020008CC
:1000700027020008270200082702000827020008BC
:1000800027020008270200082702000827020008AC
:10009000270200082702000827020008270200089C
:1000A000270200082702000827020008270200088C
:1000B0002702000827020008CD0E000827020008CA
:1000C000270200082702000827020008270200086C
:1000D0002702000831100008270200082702000844
:1000E000270200082702000827020008270200084C
:1000F000270200082702000827020008270200083C
:10010000270200082702000827020008270200082B
:10011000270200082702000827020008270200081B
:10012000270200082702000827020008270200080B
:1001300000F002F800F05AF80AA090E8000C82449F
:100140008344AAF10107DA4501D100F04FF8AFF27C
:10015000090EBAE80F0013F0010F18BFFB1A43F0A5
:100160000103184744280400642804000A444FF09F
:10017000000C10F8013B13F0070408BF10F8014B06
:100180001D1108BF10F8015B641E05D010F8016B4B
:10019000641E01F8016BF9D113F0080F1EBF10F8AF
:1001A000014BAD1C0C1B09D16D1E58BF01F801CBD2
:1001B000FAD505E014F8016B01F8016B6D1EF9D555
:1001C0009142D6D37047000000230024002500266A
:1001D000103A28BF78C1FBD8520728BF30C148BFAA
:1001E0000B6070471FB51FBD10B510BD00F0CCF9F6
:1001F0001146FFF7F7FF1DF043FE00F0EAF903B4E4
:10020000FFF7F2FF03BC02F00CFC00000948804736
:1002100009480047FEE7FEE7FEE7FEE7FEE7FEE7E8
:10022000FEE7FEE7FEE7FEE704480549054A064B00
:10023000704700007D0E000831010008C0D9002081
:10024000C0F90020C0E90020C0E90020704753EA4F
:10025000020C00F069802DE9F04B4FF00006002BF6
:100260001FBFB3FA83F503FA05F424FA05F65E40DE
:1002700012BF1643B2FA82F502FA05F4C5F1200561
:100280001EBF22FA05FC44EA0C04203556EA044C51
:100290004FEA144418BF641C4FF000084FF00009E7
:1002A000904271EB030C39D3002919BFB1FA81F7E1
:1002B00001FA07F6B0FA80F700FA07F6C7F120074F
:1002C0001EBF20FA07FC46EA0C062037B6FBF4FCFA
:1002D000A7EB0507103F07F01F0BCBF120060CFA28
:1002E0000BFB2CFA06F644BFB3460026202FA4BF12
:1002F0005E464FF0000B5BEA060C08BF4FF0010BA7
:1003000019EB0B09ABFB027C48EB0608C01B06FB94
:1003100002CC0BFB03CC71EB0C01C1E70B46024690
:1003200041464846BDE8F08B13B54FF000004FF052
:100330000001AFF30080BDE81C40704740EA0103B4
:10034000024630B59B0710D14FF0013400E008C2DF
:1003500008C91D1B9D4315EAC41FF8D013F0FF0107
:1003600002F8011B0DD01B0AF8E711F8013B002B26
:1003700002F8013B05D011F8013B002B02F8013BCC
:10038000F3D130BD10B5431C02E010F8011B71B170
:100390008107FAD14FF0013202C88C1A8C4314EA5B
:1003A000C211F9D0C01A0A0603D0C01E10BDC01A6F
:1003B00010BD0A0401D0801E10BD0902FCD0401EF1
:1003C00010BD032A40F2308010F0030C00F01580BD
:1003D00011F8013BBCF1020F624498BF11F801CB48
:1003E00000F8013B38BF11F8013BA2F1040298BFAD
:1003F00000F801CB38BF00F8013B11F0030300F017
:100400002580083AC0F0088051F8043B083A51F8BA
:1004100004CBA0E80810F5E7121D5CBF51F8043BBF
:1004200040F8043BAFF30080D20724BF11F8013B32
:1004300011F801CB48BF11F8012B24BF00F8013B94
:1004400000F801CB48BF00F8012B704710B5203AE7
:10045000C0F00B80B1E81850203AA0E81850B1E87D
:100460001850A0E81850BFF4F5AF5FEA027C24BF33
:10047000B1E81850A0E8185044BF18C918C0BDE82A
:1004800010405FEA827C24BF51F8043B40F8043BF3
:1004900008BF7047D20728BF31F8023B48BF11F8A8
:1004A000012B28BF20F8023B48BF00F8012B704702
:1004B0004FF0000200B5134694469646203922BFFD
:1004C000A0E80C50A0E80C50B1F12001BFF4F7AF48
:1004D000090728BFA0E80C5048BF0CC05DF804EB2A
:1004E000890028BF40F8042B08BF704748BF20F898
:1004F000022B11F0804F18BF00F8012B704700004D
:100500004FF0013C50F8042B51F8043B9A4221D1A2
:10051000A2EB0C03934313EACC1317D150F8042B2E
:1005200051F8043B9A4215D1A2EB0C03934313EA12
:10053000CC130BD150F8042B51F8043B9A4209D14B
:10054000A2EB0C03934313EACC13DBD04FF0000073
:10055000704700BFD01A01BAB1FA81F101F0180159
:1005600022FA01F0CB40C1F12001DBB2C0B2C01AC7
:100570002CFA01F3D11A914311EAC311E6D1704765
:100580007047704770477047754600F02BF8AE46CD
:1005900005006946534620F00700854618B020B58F
:1005A000FFF742FEBDE820404FF000064FF0000785
:1005B0004FF000084FF0000B21F00701AC46ACE80B
:1005C000C009ACE8C009ACE8C009ACE8C0098D4678
:1005D000704710B50446AFF300802046BDE81040D8
:1005E000FFF70DBE0048704760D90020FEE7704756
:1005F000F0B5CA78002502F00F03D20601D58A783B
:1006000013430A784FF00F0E12F0FF0F4FF0010264
:100610001CD004680F8802FA05F63740B74211D1A2
:100620004FEA850C0EFA0CF724EA070703FA0CF4DC
:100630003C43CF78282F02D0482F02D002E04661F9
:1006400000E006616D1C082DE4D304600C88FF2CCB
:100650001ED944685FF0000606F1080702FA07F5A4
:100660000F882F40AF420FD14FEA860C0EFA0CF7DD
:10067000BC4303FA0CF73C43CF78282F00D14561E7
:10068000CF78482F00D10561761C082EE4D3446052
:10069000F0BD4161704701617047FEE72DE9F0410F
:1006A00004461D4616460F462A2000F0CBFA204687
:1006B00000F0BDFA304600F0BAFA2B2000F0C2FA82
:1006C000384600F0B4FA284600F0B1FABDE8F0412F
:1006D0002C2000F0B7BA2DE9F047984617460C4693
:1006E0008146089EFFF7DAFF0BE04D4605E03088B3
:1006F00000F09DFA6D1CADB2B61CBD42F7D9641C6A
:10070000A4B24445F1D9BDE8F0870000F8B5012155
:100710004FF4B07000F042FB4FF48056ADF800602B
:100720001024184F8DF8034003258DF802506946B8
:100730003846FFF75DFF31463846FFF7ACFF48F219
:100740003206ADF80060104F8DF803408DF802506E
:1007500069463846FFF74CFF31463846FFF79BFFA6
:100760004FF4A066ADF800608DF80340074C8DF89B
:10077000025069462046FFF73BFF31462046FFF70F
:100780008AFFF8BD0020014000140140001801401C
:1007900010B5FFF7BBFFFF4C10212046FFF779FF94
:1007A000642004F023F810212046FFF774FF642032
:1007B00004F01CF8A115F848FFF76DFF642004F061
:1007C00015F8EF2000F03EFAEB2000F03BFA142081
:1007D00000F04CFAFE2000F035FAEF2000F032FA7B
:1007E000EB2000F02FFA142000F040FA842000F0F3
:1007F00029FA402000F03AFA852000F023FAFF2081
:1008000000F034FA862000F01DFAFF2000F02EFAE6
:10081000872000F017FAFF2000F028FA882000F067
:1008200011FA0A2000F022FA892000F00BFA2120A8
:1008300000F01CFA8A2000F005FA002000F016FAF9
:100840008B2000F0FFF9802000F010FA8C2000F0DF
:10085000F9F9012000F00AFA8D2000F0F3F90120E7
:1008600000F004FA8E2000F0EDF9FF2000F0FEF910
:100870008F2000F0E7F9FF2000F0F8F9B62000F033
:10088000E1F9002000F0F2F9202000F0EFF9362025
:1008900000F0D8F9082000F0E9F93A2000F0D2F988
:1008A000052000F0E3F9902000F0CCF9082000F0DA
:1008B000DDF9082000F0DAF9082000F0D7F9082067
:1008C00000F0D4F9BD2000F0BDF9062000F0CEF90B
:1008D000BC2000F0B7F9002000F0C8F9FF2000F0BC
:1008E000B1F9602000F0C2F9012000F0BFF9042046
:1008F00000F0BCF9C32000F0A5F9132000F0B6F910
:10090000C42000F09FF9132000F0B0F9C92000F0D6
:1009100099F9222000F0AAF9BE2000F093F91120E5
:1009200000F0A4F9E12000F08DF9102000F09EF90C
:100930000E2000F09BF9DF2000F084F9212000F068
:1009400095F90C2000F092F9022000F08FF9F020C8
:1009500000F078F9452000F089F9092000F086F9C7
:10096000082000F083F9082000F080F9262000F02C
:100970007DF92A2000F07AF9F12000F063F9432094
:1009800000F074F9702000F071F9722000F06EF937
:10099000362000F06BF9372000F068F96F2000F086
:1009A00065F9F22000F04EF9452000F05FF90920CA
:1009B00000F05CF9082000F059F9082000F056F921
:1009C000262000F053F92A2000F050F9F32000F01F
:1009D00039F9432000F04AF9702000F047F97220FD
:1009E00000F044F9362000F041F9372000F03EF9DC
:1009F0006F2000F03BF9ED2000F024F91B2000F0FF
:100A000035F90B2000F032F9AE2000F01BF9772009
:100A100000F02CF9CD2000F015F9632000F026F944
:100A2000702000F00FF9072000F020F9072000F0F7
:100A30001DF9042000F01AF90E2000F017F90F201C
:100A400000F014F9092000F011F9072000F00EF968
:100A5000082000F00BF9032000F008F9E82000F06E
:100A6000F1F8342000F002F9622000F0EBF81820D1
:100A700000F0FCF80D2000F0F9F8712000F0F6F815
:100A8000ED2000F0F3F8702000F0F0F8702000F096
:100A9000EDF8182000F0EAF80F2000F0E7F87120D8
:100AA00000F0E4F8EF2000F0E1F8702000F0DEF84C
:100AB000702000F0DBF8632000F0C4F8182000F08C
:100AC000D5F8112000F0D2F8712000F0CFF8F12015
:100AD00000F0CCF8702000F0C9F8702000F0C6F8E3
:100AE000182000F0C3F8132000F0C0F8712000F0C7
:100AF000BDF8F32000F0BAF8702000F0B7F87020CD
:100B000000F0B4F8642000F09DF8282000F0AEF862
:100B1000292000F0ABF8F12000F0A8F8012000F047
:100B2000A5F8F12000F0A2F8002000F09FF80720BF
:100B300000F09CF8662000F085F83C2000F096F864
:100B4000002000F093F8CD2000F090F8672000F02E
:100B50008DF8452000F08AF8452000F087F8102035
:100B600000F084F8002000F081F8002000F07EF80A
:100B7000002000F07BF8672000F064F8002000F00F
:100B800075F83C2000F072F8002000F06FF80020AB
:100B900004E00000001401400018014000F066F875
:100BA000002000F063F8012000F060F8542000F00D
:100BB0005DF8102000F05AF8322000F057F8982025
:100BC00000F054F8742000F03DF8102000F04EF8CA
:100BD000852000F04BF8802000F048F8002000F05D
:100BE00045F8002000F042F84E2000F03FF80020C9
:100BF00000F03CF8982000F025F83E2000F036F890
:100C0000072000F033F8352000F01CF8212000F018
:100C100019F8112000F016F8782003F0E7FD2920DC
:100C200000F010F8BDE81040142003F0DFBD10B54F
:100C30000446000A00F01AF8E0B2BDE8104000F0E7
:100C400015B8000070B5084D06464FF40044214623
:100C50002846FFF71EFD304600F008F821462846DA
:100C6000BDE87040FFF717BD001401402DE9F041C9
:100C7000134E054602213046FFF70BFD0024B04617
:100C8000104FB61431463846FFF703FD28064FF0E3
:100C90002001404602D5FFF7FEFC01E0FFF7F9FC1A
:100CA00031463846FFF7F7FC6806641C050EE4B2CF
:100CB000082CE7D34046BDE8F0410221FFF7EBBC2A
:100CC000001401400020014038B50121482000F007
:100CD00065F82024ADF8004010208DF803000320B3
:100CE0000B4D8DF8020069462846FFF781FC202154
:100CF0002846FFF7D0FCADF80040064C6946204678
:100D0000FFF776FC20212046FFF7C5FC38BD000028
:100D1000000C014000180140FEE7704770B50F233A
:100D2000C47801780122F4B1144C2468457804F4A5
:100D3000E064C4F5E064240AC4F10406E340847866
:100D4000B5401C402C4301F1E021230181F800341F
:100D5000007800F01F018A404009800000F1E02087
:100D6000C0F8002170BD01F01F00824048098000DA
:100D700000F1E020C0F8802170BD00000CED00E023
:100D800070470000044A0029D16901D0014300E006
:100D90008143D1617047000000100240044A0029DD
:100DA000916901D0014300E08143916170470000E7
:100DB00000100240704700000CB500212648019148
:100DC0000091026842F4803202604FF4A06302682E
:100DD00002F400320092019A521C0192009A12B958
:100DE000019A9A42F3D10268920333D5012100910E
:100DF0001A490A6842F010020A600A6822F00302E7
:100E00000A600A6842F002020A6041684160416873
:100E10004160416841F480614160416821F47C1186
:100E20004160416841F4E8114160016841F080711E
:100E3000016001688901FCD5416821F0030141602E
:100E4000416841F0020141604168C1F3810102291A
:100E5000FAD10CBD00910CBD0010024000200240F0
:100E60004FF0E0210428086903D020F00400086155
:100E7000704740F00400FAE7704700000F4810B5D3
:100E8000016841F00101016041680D4A1140416073
:100E900001680C4A11400160016821F48021016061
:100EA000416821F4FE0141604FF41F018160FFF7AA
:100EB00083FF05494FF00060086010BD001002403C
:100EC0000000FFF8FFFFF6FE08ED00E010B5074C4C
:100ED0000121204600F049F810B101201CF0B4FABD
:100EE0002046BDE81040012100F032B80008004063
:100EF0007FB50C46054601210420FFF743FFADF8FE
:100F00000450ADF800400024104DADF80640ADF897
:100F100002406946284600F03DF801221146284665
:100F200000F02FF81E208DF80C008DF80D400420E5
:100F30008DF80E0001208DF80F0003A8FFF7EEFEDC
:100F40000121284600F007F87FBD0000000800409E
:100F5000C943018270470029018802D041F0010194
:100F600001E021F001010180704702460020138A50
:100F700092890B4202EA010202D0002A00D001202D
:100F80007047002A828901D00A4300E08A438281A7
:100F90007047000030B502881B4B1C4C98420DD0A6
:100FA000A0420BD0B0F1804F08D0194DA84205D017
:100FB000184DA84202D0184DA84203D122F0700566
:100FC0004A882A43154DA84206D0154DA84203D0A1
:100FD00022F44075CA882A4302808A8882850A885A
:100FE000028598420AD0A04208D00E4A904205D00D
:100FF0000D4A904202D00D4A904201D1097A0186F1
:101000000121818230BD0000002C014000340140EC
:101010000004004000080040000C004000100040A8
:1010200000140040004001400044014000480140DD
:1010300070B5154C40F22551204600F02BF80028E1
:101040000ED0204600F045F8C2B2104801880B04CB
:1010500006D44C044FF0000306D50A2A01D00380C1
:1010600070BD41F400410DE00D2A09D0C1F30D041B
:10107000074D491C89B22A550180C729EFD870BD98
:1010800041F48041018070BD00380140180000200B
:101090001002002030B501F01F0201240025C1F329
:1010A000421304FA02F2012B0FD0022B0FD0838AD5
:1010B0004FEA11210088134204FA01F400EA040007
:1010C00001D000B10125284630BD8389F0E7038AAD
:1010D000EEE78088C0F308007047FEE770B504466D
:1010E00000256FF02F0608E02068411C2160007881
:1010F00005EB850106EB410145182068007800F0FA
:1011000004F80028F0D1284670BD3038092801D8ED
:10111000012070470020704710B54021074800F0BB
:10112000B1FF0022142106481CF0E8F9054CA0602C
:1011300002F004F80020207010BD00006C040020B4
:10114000E53100089401002070B5B1F90030B2F922
:101150000040A34200DC23460380B1F90250B2F9FB
:101160000240A54200DD2C464480B1F90460B2F98A
:101170000450AE4200DA35468580B1F90610B2F966
:101180000620914200DB1146C1800120AB4201DC08
:101190008C4200DD002070BDF8B50D460446B0F964
:1011A0000000B1F900101646884247DBB4F902107E
:1011B000B5F90220914241DBB4F90410B5F90420DD
:1011C00091423BDCB4F90610B5F90620914235DCBA
:1011D00096B3ADF800006088ADF80200324669466B
:1011E000284600F099F8002827D0A088ADF8000024
:1011F0006088ADF8020032466946284600F08CF857
:1012000000281AD02088ADF80000E088ADF8020070
:1012100032466946284600F07FF800280DD0A088A5
:10122000ADF80000E088ADF8020032466946284675
:1012300000F072F8002800D00120F8BD0020F8BDB1
:10124000B0F90020B1F904309A4213DCB0F904205F
:10125000B1F900309A420DDBB0F90220B1F9063045
:101260009A4207DCB0F90600B1F90210884201DBAE
:101270000120704700207047F8B50D460446B0F9CC
:101280000400B1F900101646884243DBB4F90600A9
:10129000B5F9021088423DDBB4F90000B5F904103D
:1012A000884237DCB4F90210B5F90620914231DCEE
:1012B00076B3ADF800006088ADF8020032466946AA
:1012C000284600F029F818BBA088ADF80000608817
:1012D000ADF8020032466946284600F01DF8B8B95C
:1012E0002088ADF80000E088ADF80200324669467B
:1012F000284600F011F858B9A088ADF80000E08841
:10130000ADF8020032466946284600F005F808B1FB
:101310000020F8BD0120F8BD2DE9FC4114460E4621
:10132000B1F90020B0F9001005468A423ADBB5F960
:101330000400824236DCB6F90270B5F90220974209
:1013400030DBB5F906309F422CDC002C75DD401AED
:101350009A1A401C521C00B212B200EBD07002EB81
:10136000D27240105210904200DB1046844200DDE1
:101370000446ADF80010288800222044ADF804008F
:101380006888ADF80200688831462044ADF8060050
:101390006846FFF7C1FF40B1BDF804002044ADF836
:1013A00004003FE00020BDE8FC81E8880022001B2B
:1013B000ADF80200E888ADF8060031466846FFF750
:1013C000ABFF28B1BDF804002044ADF8040011E0E3
:1013D000A8880022001BADF80000A888ADF8040022
:1013E00031466846FFF798FF50B1BDF80000001B7A
:1013F000ADF80000BDF80200001BADF8020016E0D9
:101400006888ADF80200688800222044ADF8060024
:1014100031466846FFF780FF70B1BDF80000001B41
:10142000ADF80000BDF806002044ADF806003146D6
:10143000684619F0C5FBB6E7FFE70120B3E710B532
:10144000B1F90040B2F900309C4200DA2346038033
:10145000B1F90240B2F902309C4200DA23464380DF
:10146000B1F90440B2F904309C4200DD2346838088
:10147000B1F90610B2F90620914200DC1146C18094
:1014800010BD00002DE9F0418AB005461BF0D2FFE7
:101490000026A04C074600960DB1E86801E00FF069
:1014A00081FA6060006919F027FB6068406908B143
:1014B00019F022FB6068C06919F01EFB6068006AC1
:1014C00019F01AFB60680169F1B319F0A1FD19F078
:1014D0001DFD6068B0F8501199B30168097C890757
:1014E00015D50FF0BDFA401E05B260680FF072FA14
:1014F000401E03B20022114601A800950DF0E4F849
:10150000606801A90268926B516004F00DF960688F
:101510004FF48071303015F031F96068202100F50A
:10152000987015F02BF96068A0F8506138461BF0F0
:101530007BFF009060680068436A13B122680099DD
:10154000984714F05DFF00E007E000F02FF900F08D
:1015500001F9714D6F692FB13FE0A0F850610AB0F9
:10156000BDE8F08114F02DFD13F042FE0746002285
:101570007F2119F0F9F90EF00BFC014600223846E4
:1015800019F0E0F90EF06DFE01460022384619F020
:1015900049FA00220321384619F038FA00220321C3
:1015A000384619F021FA00220321384619F022FAB0
:1015B00000220321384619F023FA0022032138467D
:1015C00019F02AFA55A1384614F07CFC00231A467B
:1015D0000621384615F09AFC6F6128681BF024FF3D
:1015E0004FF4967840450CD2206841F28831884209
:1015F00031D96868009908446860A868401CA860F0
:1016000029E01BF017FF286060684FF47A7140688A
:101610000068B1FBF0F0696809B901216960A96847
:10162000F1B14FF47A7251436A68B1FBF2F46E6023
:10163000AE60844200D90446286920442861E868E5
:10164000401CE8601BF08CFFC0F16403224634A10B
:10165000384614F06EFC2F4D08356C6814B137E035
:101660000446E4E714F0ADFC13F0C2FD044600228A
:101670007F2119F079F90EF08BFB014600222046FC
:1016800019F060F90EF0EDFD01460022204619F038
:10169000C9F900220321204619F0B8F900220321DC
:1016A000204619F0A1F900220321204619F0A2F9E1
:1016B00000220321204619F0A3F918A1204614F0B6
:1016C00001FC00231A460421204615F01FFC6C6023
:1016D00028681BF0A9FE40457FF641AF1BF0AAFE2B
:1016E000286002A814F01CFF04990298401A820A8C
:1016F000514200EB81206621B0FBF1F39DF82110EF
:101700009DF82000CDE9000109A1204614F011FC4C
:1017100025E7000048000020D80200203F0000001C
:101720002575204650530A25752525204350550020
:1017300025752E2575206B4220757365642028253C
:1017400064202525290A2564252520667261672ED7
:101750000000000070B50A4D002400BFC4EBC406B1
:1017600055F8260008B114F0BFFE05EB86001C21D9
:1017700015F004F8641CE4B2042CEFD370BD000033
:1017800048050020084949680AE04A68824202D0B8
:101790000A68824203D10A7E42F001020A76496950
:1017A0000029F2D1704700001C00002070470000A3
:1017B0000421014800F066BC600400201C2101489F
:1017C00000F060BC780400202DE9FF5F0446DDE9ED
:1017D0000E0613B9B0F5807F7ED0B6F900504FF0F9
:1017E000FF376D42454307EB25252DB22580B6F91D
:1017F00002C0CCF1000C0CFB00FC07EB2C273FB225
:101800006780B6F900C0A1EB0C0141434FF0020C18
:101810000CEB212109B2A180B6F90280A2EB0802EB
:1018200042430CEB222000B2E080002B7ED04FF030
:101830000A0A93FBFAF5684200EB800003EB4007CD
:1018400005F1010928B21CF06DF800900FFA89F03B
:101850001CF068F883465A3528B21CF063F88046BD
:1018600009F15A0000B21CF05DF80146009AC7F178
:101870000A0000FB02F300FB08F00BFB073301FB3F
:10188000070193FBFAF291FBFAF04FEA601AB4F900
:101890000010B4F902000AFB01FCCDF80CC0551190
:1018A000378805FB10C207EBA2220FFA82F905FB6D
:1018B00001F2BB46029277880AFB002107EBA121C7
:1018C0000BB2B4F90410BE460AFB01FC05FB10C2C2
:1018D0000BEBA22216B200E02FE005FB01F7CDE9E9
:1018E000007CB4F90680DDF80CC00AFB007005FB33
:1018F00018C1DDF804C0009F05FB18C5029A0AFB59
:10190000087C0AFB08220BEBA1210EEBAC270EEBA7
:10191000A02009B20EEBA2220BEBA5250FFA87FC43
:1019200000B212B22DB24F46494500E00EE000DA97
:101930000F46B54216DAA84615E000202080491E61
:101940006080A180521EE280BDE8FF9F32882A4459
:10195000228072883A44628032881144A180718862
:1019600008444FE0B046474504DA4F46494506DA99
:101970000F4604E0B54201DA2F4600E037462780E3
:101980004F46494500DD0F46B54201DDA84600E05F
:10199000B046474503DD4D46494505DC01E0B5420B
:1019A00001DD294600E03146A1809A4201DA154660
:1019B00000E01D46844501DA614600E001468D42A3
:1019C00005DA9A4201DA114606E0194604E0844538
:1019D00001DA614600E0014661809A4201DD11466C
:1019E00000E01946844501DD654600E00546A94250
:1019F00005DD9A4201DD104604E0184602E0844508
:101A000000DD6046E0809FE72DE9FE4F0446D0F8F8
:101A100000B0B0F90800E589081AB4F90A10511AA3
:101A2000D4E90932B5F5807F38D0A589ADB3A66B6E
:101A3000704345114E437011266BE16A06FB05F7B2
:101A400001FB1077694306FB001003EBA72902EBAB
:101A5000A02080460612B4F904004FEA2927B842B4
:101A60004EDD002F4CDBB4F90610B14248DD002EEC
:101A700046DB94F834104A0745D58A0704F114036D
:101A800022D400FB067045004FF0020A0BEB050163
:101A90005246184614F028FE27E00DE0256BE66A52
:101AA00005FB00F706FB1177464305FB016003EBDE
:101AB000A70902EBA000CCE7A56B68434D4303EBFD
:101AC000601902EB6510C4E700FB067000EB4005EF
:101AD0004FF0030A0BEB05010222184614F004FE36
:101AE000E81C584410F8010CA07594F83400C007A5
:101AF0001FD04FF4FC60ADF80000A18A814218D1DC
:101B00000020BDE8FE8F32B204F118002369CDE950
:101B10000102002539B2AA468B4612F00FFA009056
:101B2000BDF80000A082DDE90102594612F09EF9DD
:101B3000DAE7E07C78B1A4F83C90A4F83E80A4F801
:101B40004070A4F84260656484F848A02046BDE86F
:101B5000FE4F00F002B80120D3E72DE9F04F044614
:101B600090F83C10D0F8009090F83E0087B04FF00D
:101B7000FF36702907DAB4F940203546012A00D52E
:101B8000002580310DE0902916DDB4F94020B4F92C
:101B900004300125521C9A4200DB0025A1F27F117E
:101BA0004942C9B28846702809DAB4F942100129BD
:101BB00000D50026803010E00025FF21F2E79028B4
:101BC0000DDDB4F94210B4F906200126491C9142FA
:101BD00000DB0026A0F27F104042C7B201E00026E1
:101BE000FF2760690090A07D059000208246834613
:101BF000049094F83400400744D594F84810606C81
:101C0000022201FB0501494401A814F06DFDB4F95D
:101C1000040094F8481002224843616C06FB00114E
:101C2000494403A814F060FDB4F9041094F8480086
:101C3000626C414306FB012200FB05901118022251
:101C400002A814F051FD94F83400800761D594F88F
:101C50004800616C00EB090200FB0513134413F804
:101C6000013C0493B4F90430434306FB031100FB29
:101C700005000A44014401EB090012F801AC10F818
:101C8000010C45E0B4F84000B4F94220284401B208
:101C900004F118008146236912F050F90190B4F85C
:101CA0004200B4F94010304402B254F8103F4846A4
:101CB00012F044F90390608E2368304402B2208E03
:101CC000284401B2484612F039F9029094F82400F1
:101CD000103C80071DD5B4F9422034F8400F284449
:101CE00001B2484612F0C2F804906088B4F90010BE
:101CF000304402B2484612F0B9F882466088304457
:101D000002B234F84009284401B2484612F0AEF855
:101D1000834694F8340042464546800735D50599F8
:101D2000049B01FB08F1C8F1FF0003FB00110AFB53
:101D300008F30BFB0030C1F30721C0F3072001FBC0
:101D400007F3C7F1FF0600FB06331B0AA375022940
:101D500007D8022803D8002007B0BDE8F08F00277D
:101D600002E0022800D8FF270598022800D80022A8
:101D70000498022800D8FF22BAF1020F00D80025EB
:101D8000BBF1020F03D8FF2501E0FF20A075EAB1E7
:101D9000FF2A04D0DDE900010EF0BEF90090BDB1CC
:101DA000FF2D17D0DDE902102A460EF0B5F9049098
:101DB00097B1FF2F05D001463A4600980EF0ACF9D6
:101DC0000090BDF80000A0820120C5E70198E5E77A
:101DD0000298ECE70398EAE7BDF81000F3E700008B
:101DE0002DE9F0470446B0F908000A2700026062B6
:101DF000B4F90A000002A062B4F90C1091FBF7F5E7
:101E0000684200EB800001EB4006684205F10108E2
:101E100000B21BF087FD8246E84300B21BF082FD52
:101E20008146C5F15A0000B21BF07CFD0546C8F1A1
:101E30005A0000B21BF076FDC6F10A0101FB0AF35D
:101E4000024609FB0630694390FBF7F002FB0611DE
:101E500091FBF7F14011E06248112063A07C12F081
:101E60001AF994F8341060F3000184F83410A07C5F
:101E700012F001F994F8341060F3410184F8341041
:101E8000A07C042824D0052822D0062820D021F0C8
:101E9000040100BF84F8341021682162A16921F097
:101EA000E00160F30401A08860F39421E08860F30E
:101EB0005F51A161E0894FF4001101EB5001B1FBCA
:101EC000F0F0A063FF20A075208AA082BDE8F08713
:101ED00041F00401DEE700002DE9F04115460E4611
:101EE0000746114C1BF0A6FA80462B46324639466F
:101EF000204612F051FC20B10020A062E06950B1F0
:101F000010E02C21204614F039FC4FF00040A06274
:101F10000020BDE8F08140461BF086FAE06108B978
:101F20000120E0612046F4E79C04002010B5142154
:101F3000074800F0A7F812F0F5FB40B10549016031
:101F400005494160054981600549C16010BDFEE752
:101F50008404002051410108CD4401084546010890
:101F60001D4101087FB50E46040003D10EF01AFD95
:101F7000040023D00025FEB1ADF80050ADF80250AA
:101F80000EF028FD401EADF8040020460EF068FD5E
:101F9000401EADF806006A46314602A8FFF7D4F8A5
:101FA00000280BD02068017C890708D5DDE90001F5
:101FB000C4E90C0101202AE0A0F850517FBD8269DC
:101FC0000AB102A9904700260BE000BF04EBC6014E
:101FD000002202A83031FFF7DFF80028EED1761C8E
:101FE000B6B2B4F85001B042F0D880B2202804D282
:101FF00004EBC00002A9303004E0A4F8505104F111
:10200000300069460CF0B7FAB4F85001401CA4F84F
:10201000500160680028D1D01BF050FB7FBD70B527
:10202000054600F012F804460CE02146284600F070
:102030001EF806462146284600F071F8204614F0A6
:1020400053FA3446002CF0D170BD002800D040680F
:10205000704700B503460022FFF7F7FF03E018467C
:10206000521C00F004F80100F9D1104600BD0068D0
:10207000091D40587047006840587047002800D03C
:102080008068704700224260C91C21F00301826011
:102090000160704770B504460068083014F09AF982
:1020A000050013D00146002220461CF0E1FA294623
:1020B000204662681CF0D6FA616819B12A462046AB
:1020C0001CF0D6FA6560A06800B9A560284670BD0E
:1020D00070B504460068083014F07CF9050013D090
:1020E0000146002220461CF0BDFA29462046A2687F
:1020F0001CF0BEFAA16819B12A4620461CF0B2FABB
:10210000A560606800B96560284670BD28B1416867
:1021100009B9806808B1002070470120704770B588
:1021200004000DD0FFF791FF00228842204608D11D
:10213000FFF79DFF6060011E01D000221EE0A2603B
:1021400070BDFFF79BFF8842206808440AD10168F0
:10215000A16029B12046BDE8704000221CF082BA7F
:10216000626070BD05682046FFF781FF06460246A3
:10217000294620461CF076FA2A4631462046BDE81C
:1021800070401CF075BA10B50446006882680AB148
:102190002146904720680068002801D02060F5E7BC
:1021A00010BD8068002801D0B0F91600704700000B
:1021B0002DE9F047074690B0408C189E40F004008F
:1021C000788490463A8499468A463289384616F091
:1021D00059FE0546A7F8209032895146384616F038
:1021E00051FE0446788CA54220F00400788403D187
:1021F0002904B1EB044F68D0A7F8208032895146FA
:10220000384616F03FFE05468046A7F82090514616
:1022100038460AF0D9FC318900682A461AF080F85D
:102220003089602823D147F6FF794D4501D04C45D0
:102230001DD1384616F071FF00EBD07045103846BE
:1022400016F06BFF00EBD0704010C84506D1691C3A
:10225000431C994200DA00E0194688464C4506D1F5
:10226000691C421C914201DA6C1C00E014461948BA
:10227000FFF710FF05002BD02F60C5E903843089DC
:10228000A8806846C5F808A00BF090FC1248FF2112
:10229000CDE90050114802901148039000200790AA
:1022A000CDE9080130880A9070889DF83E104042C0
:1022B0000B90F0680690002060F300018DF83E104E
:1022C0003069059068460BF0E5FC10B0BDE8F0877A
:1022D000FEE7000090040020891B02087D1D020813
:1022E000D91C020814210148FFF7CCBE900400203D
:1022F0002DE9FC5F002592468B4606462C460427B6
:1023000043F60F0843F60E0900E100BFF16807EB42
:10231000C400085882017DD480B230EA0B0212D08A
:102320005FF0000230EA0A000FD00020824271D034
:1023300051F8340001AA41F61001009019F0D6FDC1
:10234000002868D103E00122ECE70120EEE701AAB2
:1023500041F61101009819F0C9FD002873D101AAB6
:1023600041F61201009819F0C1FD00286BD101AAB5
:1023700041F61301009819F0B9FD002863D101AAB4
:1023800041F61501009819F0B1FD00285BD101AAB2
:1023900041F61401009819F0A9FDE0BB01AA41F231
:1023A0006901009819F0A2FDA8BB01AA43F20C0133
:1023B000009819F09BFD70BB01AA43F20D01009833
:1023C00019F094FD38BB01AA41F20101009819F0FF
:1023D0008DFD00BB01AA41F20401009819F086FDB1
:1023E000C8B901AA41F20201009819F07FFD90B925
:1023F00001AA41F20301009819F078FD58B901AA29
:1024000041F20501009819F071FD20B901AA41F2CD
:10241000060101E079E016E0009819F067FD90B937
:1024200001AA41F23201009819F060FD58B901AAE1
:102430004146009819F05AFD28B901AA494600986A
:1024400019F054FD10B10320BDE8FC9F01AA40F62D
:102450000A01009819F04AFDF0BB01AA40F60B01F1
:10246000009819F043FDB8BB01AA4146009819F045
:102470003DFD88BB01AA4946009819F037FD58BBBD
:1024800001AA40F63C01009819F030FD20BB01AADA
:1024900040F63D01009819F029FDE8B901AA40F67F
:1024A0003A01009819F022FDB0B901AA4FF4046175
:1024B000009819F01BFD78B901AA40F64501009873
:1024C00019F014FD40B901AA40F64101009819F035
:1024D0000DFD08B901AA00E013E040F642010098A2
:1024E00019F004FD68B901AA40F64301009819F0FB
:1024F000FDFC30B901AA40F64901009819F0F6FC3C
:1025000008B1022501E005B90125641C708CC0F3F7
:10251000C500A0423FF6FAAE284695E7014840685C
:10252000704700004800002005490020486008610D
:10253000C860886008604861024908604860704768
:10254000D802002050000020C0F30410072800D952
:102550000720704710B518210348FFF793FD034982
:102560000120087010BD00003C040020C0010020C4
:102570002DE9F04190460C46050015D0FDF702FF0D
:102580000A4F06462146BA68284690470446BA686C
:102590002819414690470146701A03E06218AA5C68
:1025A0002A55641CA042F9D2BDE8F081D401002074
:1025B0002DE9F041094D90460E466A681C460746D3
:1025C00019469047306020B120686A68384400217D
:1025D0009047C8F80000BDE8F0810000D401002059
:1025E0002DE9F04F87B08A46DDE910581F46934623
:1025F0000446002105B129805CB12078002809D06B
:10260000BAF1000F05D0002618F0060F15D00020F3
:1026100004E0002007B0BDE8F08F401C215C0A29CF
:1026200004D00D2902D00029F7D100E0401C002D74
:10263000F0D04FF0FF312980ECE75FEA887001D5D8
:1026400041F6FF77894608468DF81410049127E07B
:102650000498CDF8189068B34FF0000C05AA06ABAB
:10266000CDF80CC0CDF80080CDE9013220443B46C6
:102670005A4651461BF080F906997A1A314417B22E
:102680000EB288B104990144049120780A280BD035
:102690000D2809D0605C0A280FD00D280DD00846FF
:1026A000205C08B1002FD3DC049848B105B12E801E
:1026B0000498AFE74FF0010CD0E7481C0490F3E713
:1026C000064A04A9204652689047002DF0D00146E2
:1026D0000022504611F041F806B2E8E7D40100208C
:1026E0002DE9F0411746884606001ED0002F1CD069
:1026F000FDF748FE04463846FDF744FE050014D0B9
:102700000B4A2C444146926830469047411903E0F9
:10271000621BB25C3255641EA142F9D930442A468C
:102720003946BDE8F04113F0EBBFBDE8F081000091
:10273000D401002000230278232902D0012A0DD0E1
:102740000FE02AB10021012A04D0022A04D008E0B7
:10275000012101E0017004E0017001E0202902D0B4
:102760000123184670470221F6E72DE9F0410E4695
:10277000804602460021334608461BF039FB0446DA
:102780000027401C13F026FE050008D02F553346C5
:102790004246611C1BF02CFB2846BDE8F081FEE799
:1027A0002DE9F0471E4614460D468246DDF820907E
:1027B00015E000BF4FEA540808FB0657394650465B
:1027C0004A469047002808DD44F30000C0EB54045B
:1027D00007EB0605A4F1010401E005DA4446002CEC
:1027E000E8D12046BDE8F0873846FBE72DE9FC5FDD
:1027F0009B460CAB8A468146DDE9116093E81210D6
:10280000DDE90F575FEA80784FF030031AD45EB1EC
:102810005FEAC07808D000F00C0858EA0C0803D032
:10282000761E01E00B55641CBC4204D2202CF9D367
:1028300001E00B55641C5FEAC07803D0B44201D2BA
:10284000202CF6D35FEAC06825D55FEA40580AD449
:102850004CB1BC4201D0B44205D1641E03D0102D4E
:1028600003D1641E04E0102D02D0022D0AD00EE028
:10287000850603D4202C1ED2782506E0202C1AD2FF
:10288000582502E0202C16D262250D55641C202C00
:1028900011D20B55641C202C0DD2BCF1000F01D0BD
:1028A0002D2306E0430701D52B2302E0030702D5C1
:1028B00020230B55641CCDE900BAC8461546814655
:1028C0008B46AA46800714D1274607E02A46DDE951
:1028D00000316D1C2020C446E0477F1CB742F5D371
:1028E00007E02A466D1C641EDDE900311BF8040078
:1028F000C047002CF5D15FEA897006D409E02A466A
:10290000DDE900316D1C2020C047A5EB0A00B04274
:10291000F5D32846BDE8FC9F2DE9F04F8FB09946CE
:102920008B46DDE91818DDE91C63DDE91A4792469C
:102930008646002209B923F01003580507AD00D5DB
:10294000C9B1B1FBF4F004FB1010C0B20A2801D2E7
:10295000303009E05FEA836C02D54FF0410C01E0B2
:102960004FF0610C60440A38B1FBF4F1A854521CDA
:1029700009B1202AE5D3CDF80880CDE90563CDE97A
:102980000052CDE903474B46524659467046FFF781
:102990002DFF0FB0BDE8F08F2DE9FF4F8FB01CACBD
:1029A000DDE9239594E8030820AC94E8C0040024F2
:1029B00050EA010201D125F010056A050DF11C084D
:1029C00002D550EA010217D032463B46FDF73FFCE4
:1029D000D2B20A2A01D2303206E0AB0601D5412339
:1029E00000E061231A440A3A08F80420641C50EA03
:1029F000010201D0202CE7D3CDE90084CDF808B046
:102A0000CDE90595CDE9036A0FAF97E80F00FFF711
:102A1000EDFE13B0BDE8F08F9A4200D288547047A3
:102A2000704770472DE9FF4F89B005460A9800248A
:102A30009246002800D1FE4D8FE1252804D0224681
:102A4000641C53460A990BE2491C4FF000080846E3
:102A50000C9101782B2919D004DC202919D02329C5
:102A600004D119E02D290ED0302909D00026C8B292
:102A7000FEF74BFBB0B10CA8FEF730FB06461FE09B
:102A800048F001010AE048F0020107E048F00401C3
:102A900004E048F0080101E048F01001401C8846BD
:102AA0000C90D6E70C9908782A2809D1169840C8C6
:102AB0001690002E02DA48F002087642491C0C916A
:102AC0000C984FF0000B01782E2919D1401C0C9066
:102AD00048F480680078FEF718FB20B10CA8FEF7D8
:102AE000FDFA83460CE00C9A10782A2808D1169932
:102AF00001C91691002800DC0020521C83460C926C
:102B00000C9801786C290AD004DC68290FD06A2956
:102B100019D128E0742929D07A2914D126E0401C43
:102B20000C90017848F480786C291CD00BE0401C94
:102B30000C90017848F08008682904D148F04001E1
:102B4000401C88460C9001460078692822D015DC8C
:102B500062281FD00DDC252872D050281AD05828A2
:102B60007FF46DAF16E048F40071E9E748F4807136
:102B7000E6E7632879D06428F2D10BE0732875D09A
:102B800004DC6F2806D07028EAD103E0752801D054
:102B90007828E5D178280DD058280BD070280BD094
:102BA000502809D06F2816D0622816D00A2228F0A3
:102BB000100016E0102207E04878102248F48878C8
:102BC000562804D1491C0C910878582807D0087859
:102BD000502804D006E0082209E0022207E048F06D
:102BE000200080460878692803D0642801D028F0A6
:102BF0000C085FEA485001D528F0010808786928D8
:102C00001FD064281DD0562864D05FEA885072D542
:102C10001698CDF818B0C01D0021CDE9042102910D
:102C2000CDE9076820F007005346F0E80212CDE92D
:102C300000121690224628460A99FFF7ADFE88E05A
:102C400009E15FEA885022D5169804AFC01D20F034
:102C50000703F3E802011693002387E80C08CDE987
:102C60000768002903DA012202E07FE0A6E00022E3
:102C7000002302921A461B1A8A4103DB00224042BB
:102C800062EB010153462246CDE90001D3E75FEA3A
:102C9000C85004D5169901C90FE0404215E05FEA1B
:102CA000486003D5169911F8040B06E05FEA086046
:102CB000F0D5169931F8040B00B21691CDE9022B2C
:102CC000CDE90468C10F0028E7DD53462246CDE96F
:102CD00000013AE01699AAEB040201C91691416875
:102CE0000968009103680A9801192846FFF79AFEBF
:102CF00004442FE0FFE75FEAC8500CD5CDE9022B72
:102D0000CDE9046816980021534604C8CDE9002196
:102D10001690224619E05FEA486003D5169810F82D
:102D2000041B08E05FEA0860169803D530F8041B1E
:102D300089B200E002C8169001AF0020009187E838
:102D40000508CDE904685346224628460A99FFF74C
:102D5000E3FD04460C98401C0C900C990878002860
:102D60007FF46BAE54457DD222467DE001275FEAB9
:102D7000887006D509E02246641C534620200A9933
:102D8000A84738467F1CB042F5D316982246641CEB
:102D900010F804CB1690534660460A99A8475FEA9C
:102DA000887006D4D6E72246641C534620200A9930
:102DB000A84738467F1CB042F5D3CBE7169850F8A9
:102DC000049B16904B46BBF1000001D0014601E088
:102DD0004FF0FF31484600E0401C02780AB1491E1E
:102DE000FAD2C71A5FEA485003D558465F4500D368
:102DF00007465FEA887006D511E02246641C5346F8
:102E000020200A99A84738467F1CB042F5D306E037
:102E1000224609F10109641C53460A99A84799F80A
:102E2000000040B15FEA4851F2D5BBF1010B01E06F
:102E3000212A0008ECD25FEA887006D48AE722468D
:102E4000641C534620200A99A84738467F1CB0428C
:102E5000F5D37FE706E02246641C534625200A99F5
:102E6000A84777E7AAF10102534600200A99A8472C
:102E70000DB02046BDE8F08F10B502004FF0000005
:102E80000CD04B1E194200D0FEE70A44521E9A4352
:102E9000B2F5803F02D20C2A01D9104610BD0C2099
:102EA00010BD08444A1E401E9043114200D0FEE768
:102EB000704700002DE9F0410F460121002504462E
:102EC00041862E460BE01B49FDF71AFB10B16D1C25
:102ED000ADB202E0608E401C6086761CB6B257F838
:102EE000260010B101780029EDD1208EA8421ED015
:102EF000A06A002610B113F0F7FAA662E06A10B1DA
:102F000013F0F2FAE662E80013F064FAA06238B156
:102F1000680013F05FFAE06218B1A16A11B102E033
:102F2000FEE7FEE70025690013F028FC2586BDE8D2
:102F3000F081000050EF00082DE9F84F8146407AFB
:102F40000F4600F00700022819D01046804697422D
:102F500000DD3A46164603202A4C2B4A00EB460079
:102F600020F00305A06811681035411A636805EB6D
:102F7000010C9C4505D2416821F0004124E008463F
:102F8000E4E79D4219D892464FF0FF3B481961682B
:102F9000884210D9002269461C48CDF800B00AF0DA
:102FA00035FB002269461A480AF030FBA168DAF8BE
:102FB0000000091AEAE7A068DDE7284613F00AFADC
:102FC000C0B1416841F0004188EA6702416089EA86
:102FD00002010160416801F04041491C31F080412B
:102FE00041608681A0F80E8005D500F11001816056
:102FF000BDE8F88FFEE7A16801F110022944826064
:10300000A160F5E758000020B001002029B90008B0
:103010006DD6000870B586B000228DF808208DF8B6
:103020000C208DF81020444C90F83C20142302F022
:103030000302A5784FF4B476012A23D0022A5FD088
:10304000AA4211D010F8265F05EB051505EB4505E2
:10305000B5FBF3F52570407800EB001000EB400065
:10306000B0FBF3F06070A27004AA03A8CDE90002DF
:1030700001EB41004FF6FF7101EA400002AB6278BC
:1030800021781AE0AA4210D0858C05EB45056D0227
:10309000B5FBF6F5A58090F8270000EB001000EBDB
:1030A0004000B0FBF3F06070A27004AA03A8CDE961
:1030B0000002C9B202AB62783CE008F049F99DF821
:1030C00010209DF80C10D308BDF800209DF80800D2
:1030D00063F30402ADF800208A08BDF8001062F323
:1030E0004A11ADF80010C108BDF8000061F3CF200F
:1030F000ADF8000080B20090BDF8000006B070BDD1
:10310000AA4210D0858C05EB45056D02B5FBF6F59E
:10311000A58090F8260000EB001000EB4000B0FB0B
:10312000F3F02070A27004AA03A8CDE90002CAB28D
:10313000217802ABA088C0E70801002010B5084C38
:10314000012020700748FEF780FF0028A06803D008
:10315000BDE810401AF0B2BABDE810401AF0A2BAA9
:10316000940100206C04002010B5044690F83E0045
:10317000626B810707D4A18F39B1A1F57F43FF3B73
:1031800015D0491EA187A18F89B90AB181070ED533
:1031900021461348FEF7C3FFFFF7D0FFE16809B1EE
:1031A000204688472046BDE8104013F09DB9A16B2A
:1031B0004942E162002A11D0810702D4216B4942C1
:1031C000E1624110491C61F3410084F83E00616AEC
:1031D000E069E1616062A06AA262606310BD000004
:1031E0006C04002070B5304D68681AF01DF9064671
:1031F000687880F00100687047E00020287094F83B
:103200003E006978C0F380028A4242D061F38200B6
:1032100084F83E00E16A8A19030719D4002917DCF3
:10322000002A15DBC00709D1216939B1204688473A
:10323000E1690144E161616A08446062A16809B121
:103240002046884794F83E0040F0080084F83E008D
:10325000E06A8019E06216D4A16A884200DDE1626A
:10326000A169204688470146206A884204D021622D
:1032700062680AB120689047D4E90A01814202DB02
:103280002046FFF771FF287818B10848FEF7DDFEE9
:1032900003E021460548FEF7EAFE0400ADD11AF02E
:1032A000C9F8686070BD0000940100206C04002023
:1032B00070B5044640680D4608B1FFF7F9FF226873
:1032C000002A04D029462046BDE87040104770BD52
:1032D00089B20BF0B5B889B20BF0EEB810B5044660
:1032E000406882080AD0496821F00301091D08449A
:1032F0006060204600F042F8204610BDFEE74068BE
:10330000103120F00300884201D3012070470020D3
:1033100070472DE9FC47054648680C4620F003003D
:1033200001AA69461BF048F8DDE9007005EBC711FA
:1033300001EB80098046D9F83C0060B164B1C4E972
:10334000020504F10806C46030460421FFF7A9FD18
:10335000864202D0FEE7FEE7FEE7C9F83C400120C6
:10336000296900FA07F21143296105EB870100FA88
:1033700008F04A6902434A61BDE8FC8710B504467B
:1033800000F087F8046010BD2DE9FC4706464FF0B9
:1033900000000D0000900746019042D00C46E9461F
:1033A0000DF10408802907D308461EF0E6FB411FF3
:1033B00001208840401E04444246494620461AF0F7
:1033C000FBFF009C0A2C2CDA06EB8400019A406972
:1033D0004FF0FF3101FA02F210400CD1641C306949
:1033E000A14008401DD01EF0C0FB0446009006EB33
:1033F0008000406978B11EF0B8FB034606EBC411AB
:10340000019001EB8000C76B5FB1786820F003008A
:10341000A84201D2FEE7FEE739463046009A1BF08B
:10342000A9FD3846BDE8FC8710B50446FFF7A6FFA6
:10343000416841F002014160606840F00100606055
:1034400010BD10B5044600F024F8416821F00201D7
:103450004160606820F00100606010BD70B50646F4
:103460000D46084600F015F8040010D02079C0077A
:103470000BD0686880080BD02146304600F03CF83D
:1034800021462846FFF72AFF0546284670BDFEE77D
:10349000FEE7426800F1080122F00300001F084423
:1034A000910800D1FEE7704770B506460C004FF05A
:1034B00000001ED0F2B120791546C0071BD011467E
:1034C0002046FFF71CFF78B12946204600F025F87A
:1034D00005462046FFF752FF6868294640F0020083
:1034E00068603046FFF715FF2046FFF7AAFF04F19A
:1034F000080070BDFEE7FEE77CB5054648680C464F
:1035000020F0030001AA69461AF056FFDDE9002306
:10351000214628461BF02EFD7CBD2DE9F0410D46CD
:10352000044600F10801281F0E18606806F108071C
:1035300020F00300401BA0F1040838460421FFF7E7
:10354000B0FC874200D0FEE7606820F0030108EB82
:103550000500001D814200D0FEE7307900F0030035
:1035600040EA0800706020F003000C2800D2FEE75B
:10357000207900F00300284360603046FFF754FFD5
:103580003046BDE8F08138B5044611F087FB0546AA
:1035900011F0B9FB0028204605D0218FE18616F0F6
:1035A00096F8012038BD0FF0C3FD002820461ED03C
:1035B0000FF093FC218FE08E81420CD02087E08EAB
:1035C00000906A461C2120460FF0ECFF0128E9D14B
:1035D000204616F07CF8284611F0A1FB0428E0D123
:1035E000204614F0BFFC002110F01EFCD9E70FF0BC
:1035F000FBFDD6E770B50FF0D0FF054614F0F8FCE0
:10360000044628460BF04EFD01462046BDE87040BA
:10361000012219F035BA00002DE9F04F0D4687B0B0
:103620000446002114F0D3FB60B32946204600F085
:1036300061FA2946204600F06FF80021204615F077
:10364000F4FA05900021204615F0B3FB0490002108
:10365000204615F0BDF9012800D000208046002149
:10366000204615F037FD07460021204615F02EFABA
:1036700042F2D17906464F450BD1608C400508D403
:10368000012707E007B02846BDE8F04F1C2113F0E2
:1036900075B80027204614F018FCDFF878A08346A0
:1036A00020460021BAF8022015F0ECFBD5F810C036
:1036B000AB682968CDF800C0CDF80C80CDE90131A8
:1036C000C2B239465846059B09F0F0FA28834E45A8
:1036D00004D1608C800501D4012600E0002620463C
:1036E00014F0D9FB074620460021BAF8062015F051
:1036F000C9FBC2B2686900246B68E9688DE81B00E9
:1037000031463846049B09F0D1FA688307B0BDE81A
:10371000F08F00007C0000202DE9F34F81B00C46B3
:10372000019808F031FD0646019814F0CEFB824660
:10373000304600F007FF2061400012F077FE206065
:103740002069400012F072FE002541F69A79A060CF
:103750003AE036F91510DFF82081494533D10027CA
:10376000DFF818B11FE03946019814F030FB5946D4
:10377000009015F022FDA8B9009808F017FD012867
:1037800010D1009808F008FDA8420BD1009815F060
:10379000C4FC4146404501DA084602E0009815F0B5
:1037A000BCFC80467F1C019814F023FBB842DAD899
:1037B000B8F1000F03DBA16821F8158003E0A168D0
:1037C000002021F815006D1C2069A842C1D80025F1
:1037D0002F46284641F69B784A4615E036F91010E8
:1037E000414504DB0D44A5F5F8559B3D0BE09142A6
:1037F00004D1A16831F81010394403E0A36823F81C
:10380000101039440FB2401C21698142E6D80021D2
:10381000019815F00AFA2169C1F1010200FB02A02A
:10382000C01B00B2002800DA002000224FF0FF3356
:103830001146C44611E000BF36F9117067450BDB35
:10384000A7F5F8579B3F3AB200FB02F3B3FBF5F341
:10385000A76827F811300B46491C27698F42EBD81F
:10386000002B07DBA91A4143B1FBF5F1401AA1680F
:1038700021F81300BDE8FE8F01E0FFFF0100060004
:103880002DE9F14F00221146009816F0EBFD0021C2
:10389000009815F0D1F804460021009815F097FA29
:1038A00020440FFA80F90021009815F06AF92044AD
:1038B0000FFA80F8009815F031F800EB090101EBE0
:1038C0000800DFF898A006B25446009814F091FA68
:1038D000074600252AE0009821498068006850F8D2
:1038E0002500834615F069FCF8B9584615F050FFDD
:1038F00040BB0021584615F036F818B3012821D0F6
:1039000002281FD003281DD00021584615F0FEFBC9
:1039100058B9BBF81A10BBF81600081A401C00B2C0
:103920004844A04200DB044624B26D1CBD42D2D301
:10393000544504D004EB080000B2B04200DC30462D
:10394000BDE8F88F0098BBF91A10B0F91600081AF4
:10395000411CA142E8DB0C46E6E7000001E0FFFF66
:10396000010004002DE9F84F00228046114616F0B0
:1039700063FD0021404615F05FF8044600214046F3
:1039800015F0C3F920440FFA80FA0021404615F0E3
:1039900068F920440FFA80F9404614F0CDFF00EB9F
:1039A000090101EB0A00DFF844B105B25C4640466C
:1039B00014F01FFA07460021404614F0F4FF0128D6
:1039C0004FF0000644D078E0D8F808004849006875
:1039D00050F82600009015F0F0FBC0BB009815F0E1
:1039E000D7FE50B10098B8F91810B0F91400091AB0
:1039F000481CA0422ADB4C1C28E00021009814F04F
:103A0000B2FF58B1032809D0062807D0082805D0EE
:103A10000021009815F073FB58B118E00098B8F930
:103A20001810B0F91400081A411CA1420EDB0C4614
:103A30000CE00098143000900AF00EFE5044A042B2
:103A400004DB00980AF008FE00EB0A0424B2761C9E
:103A5000BE42B9D35C453BD004EB090033E000BF64
:103A6000D8F808002249006850F82600009015F0A8
:103A7000A4FB08BB009815F08BFE60BB00210098EA
:103A800014F071FF38B3012825D0042823D007286B
:103A900021D00021009815F039FB68B90098143046
:103AA00000900AF0D9FD4844A04204DB00980AF0D7
:103AB000D3FD00EB090424B2761CBE42D0D35C4592
:103AC00006D004EB0A0000B2584501D0A84200DC41
:103AD0002846BDE8F88F0098B0F91810B8F914001E
:103AE000091A481CA042E6DB4C1CE4E701E0FFFF9A
:103AF000010004002DE9F84F0C46834608F062FFF0
:103B0000064600F01FFD6061400012F08FFC60600F
:103B10006069400012F08AFC002541F69A79E06065
:103B20003AE036F91500DFF80C81484533D100271B
:103B3000DFF804A11FE03946584614F048F9514611
:103B4000009015F03AFBA8B9009808F0C1FF0128D1
:103B500010D1009808F0B2FFA8420BD1009814F0E1
:103B600006FA4146404501DA084602E0009814F0A2
:103B7000FEF980467F1C584614F03BF9B842DAD86B
:103B8000B8F1000F03DBE16821F8158003E0E1687C
:103B9000002021F815006D1C6069A842C1D80027DB
:103BA0003D46384641F69B784A4615E036F91010F6
:103BB000414504DB0F44A7F5F8579B3F0BE09142CA
:103BC00004D1E16831F81010294403E0E36823F8D8
:103BD000101029440DB2401C61698142E6D80021D1
:103BE000584615F0E6F88146584614F054F9014657
:103BF0006069C0F1010209FB0210401B01B20029FB
:103C000000DA0021002043460FE000BF36F9102003
:103C10009A4209DBA2F5F8529B3A12B24A43B2FB30
:103C2000F7F2E56825F81020401C62698242EDD861
:103C3000BDE8F88F01E0FFFF010006001CB50B880E
:103C400004892344ADF800304B8844892344ADF8FF
:103C500002308B8804892344ADF80430C988438935
:103C60001944ADF806104369694698471CBD000029
:103C7000F8B50D46D0E90C2104468AB112787AB124
:103C800041B100BF19F0FDF90D4909688847616B22
:103C9000884211D2206B88B100200A4E009006E0C5
:103CA00061B1EFE7326869469047A84206D0206BC1
:103CB0000099415C0029F5D10020F8BD0120F8BD34
:103CC000EC010020D80100202DE9FF4F87B0C87813
:103CD000189CC0070D46002801D0F14800E0F148CB
:103CE000069001D0F04800E0F048049001D1EE4881
:103CF00000E0EE484FF0100A4FF00C0ECDF8140023
:103D00006088A1884FF0000BA0EB010001B25A4679
:103D10005846276912E000BF00EB8006E3680AEB13
:103D2000860C13F80CC05FEACC7C0BD04FF0080C6B
:103D30000CEB86069B5BC91A09B2401C8742EBD884
:103D4000002347E00EEB86069B5B1A4412B2F4E7B1
:103D500003EB8306E7680AEB86000190385CC00736
:103D600037D191FBF2F00EEB860CCDF800C037F89E
:103D70000CC00CFB00FC0FFA8CF94FF0060C042071
:103D80000CEB860C00EB860037F90C80385ECC46D5
:103D9000C84500DCC446604504DC4046CC46C84506
:103DA00000DD6046484506D0DDF804804FF0010C88
:103DB000E34647F808C0D4F80CC0082707EB86068E
:103DC0002CF80600E768009EBE5B921B081A12B230
:103DD00001B25B1C20699842BAD8BBF1000F8FD1A9
:103DE0000021079814F0EDFD012826D000270020BF
:103DF000ADF80800ADF80C0003A902A8CDE9000158
:103E00002089B4F9022003B2287816991AF0C2FC6E
:103E1000E878384207D0079814F057F8BDF8081032
:103E20000844ADF808000999079813F0D0FF06463A
:103E30004FF4FA684FF0640B27E10127D7E79C495C
:103E4000304615F0BAF900287DD10021304614F033
:103E500025FEE8B34FF000094846216911E000BF94
:103E6000E26800EB800352F82320B24208D100EB55
:103E70008002E168082000EB820031F9009002E046
:103E8000401C8142ECD8E878C007708C02D040F426
:103E9000806001E040F40070708406F11400049921
:103EA00082468847484528D0304615F010FCB08A35
:103EB000ADF80000F08AADF80200308BADF80400D8
:103EC000708BADF80600069A49465046904700E0D0
:103ED0000FE06A46292130460FF064FB304614F0AB
:103EE00087F8324622210FF05DFB304615F0EFFBDC
:103EF00003E0708C20F4C06070840020009068782B
:103F0000012810D0022816D1059906F1140088471F
:103F1000B4F90010491C21F00101081A00EBD0701F
:103F200040F34F0006E0059906F114008847218808
:103F3000081A00B20090E87838420AD0049906F1D5
:103F40001400884700E098E0BDF80810081AADF8A2
:103F500008003046002143F20C0214F093FF0FFAE0
:103F600080F93046002143F20D0214F08BFF0FFA66
:103F700080FA304615F0D1F80190304613F0F7FF83
:103F80000146C9F3413001280ED129F4C040404513
:103F90000ADCB0F57A7F01DDC0F57A70019A5043F2
:103FA00090FBFBF00FFA80F9CAF3413001280DD1E4
:103FB0002AF4C040404509DCB0F57A7F01DDC0F548
:103FC0007A70484390FBFBF00FFA80FAB18A14989C
:103FD000F28A411A01EB0900159900B28A1A02EB24
:103FE0000A01EA7809B2D207002A02D0BDF90820F6
:103FF00000E0009A10440FFA80FA01D0009801E026
:10400000BDF9080008440FFA80F95AEA09001BD0EC
:10401000304615F05CFBB18A01EB0A00B082318BAF
:1040200001EB0A003083F18A01EB0900F082718B09
:1040300001EB09007083304615F049FB01234A4625
:104040005146304615F0F2FBE87838420CD104991D
:1040500006F11400884717990844BDF80C1008446D
:10406000BDF80810084406E0BDF80C101798084485
:10407000BDF80810081AADF80800E87809AAC0F3DE
:104080008001079808F06AFB0646002E04D0DDE99F
:10409000090188427FF4D3AE0BB0BDE8F08F000079
:1040A000E1E60008D7E600087DE6000825E60008FE
:1040B000010006002DE9F04F91B00E0005463FD0FB
:1040C0002E83286808B112F00FFA06EB460006218D
:1040D00001EB400012F07EF9286040B3022101EBB1
:1040E00046010144E960042101EB86010144C5E970
:1040F000010101210024012E1AD0F000083012F035
:1041000095F9814600EB860000F10408B00000B28A
:10411000A346ADF81000C0F101028010ADF812B056
:104120000FFA82FA5C46CDF828B00690ABE0FEE7C5
:10413000B4220270E8680480E8684180A8680480BE
:1041400011B0BDE8F08F0027BDF81220BAF1000FC2
:1041500007DC032101EB42010AEB01000FFA80FAB0
:104160000CE0BDF810100523521A03EB420202EBDB
:104170000A00491E0FFA80FAADF81010BDF81200BF
:10418000401CADF8120004A800F0E7F868B1BDF9D2
:10419000100006AA811042F827100AA900F00300B7
:1041A00041F827007F1C042FCEDB042F71D1099921
:1041B0000698884212D129F8140028F814B0DDE9D5
:1041C0000A010144DDE90C201044084469680855DF
:1041D000696800010855641C24B252E007998842BE
:1041E00019D029F8140028F814B06A680A981055F4
:1041F0006A6800011055641C069A20B2521E29F804
:10420000102028F810B0DDE90B120A440D99091DA1
:1042100011446A682FE0089929F81400884228F8A8
:1042200014B0DDE90A025946104412D06A681055EC
:104230006A6800011055641C069A20B2521E29F8C3
:10424000102028F81010DDE90C12114408316A68BA
:1042500011E00C9A10446A6810556A680001105504
:10426000641C069A20B2521E29F8102028F810105B
:104270000D996A680C3111546A6809011154401C87
:1042800004B20BF1010B04A800F067F800287FF4DA
:104290005AAF09EB440140F2D320464331F9021CE6
:1042A000B012814205D108EB440131F9021C814270
:1042B0001AD0A6EB8021B1F5007F03DC494341F31E
:1042C000CF3106E0C1F58061494341F3CF31C1F1FF
:1042D0000F0129F8140028F814006868015568686F
:1042E00009010155641C24B2A01E0DE038F810200D
:1042F00029F8142039F8102028F8142069680A5C7D
:104300000A55641C24B2401E0028EFDAEB68002135
:10431000084619801BE0EA6822F81100AB6839F8FA
:10432000102023F811200AE0AE6839F9102036F881
:104330001130934200DA1A4626F81120401C38F951
:1043400010208A4201D1A042EEDB491C09B2A042F2
:10435000E1DB484612F0B6F8F2E6B0F90210B0F927
:104360000000814201DC012070470020704717B532
:1043700081B0022A03D8BDF8080004B010BDBDF812
:104380000830BDF80400D90A01EBD0211F2900D361
:104390001F2161F3CF20C3F34511C0F3451421441D
:1043A000ADF804003F2900D33F2161F34A1003F028
:1043B0001F0100F01F031944ADF804001F2900D3AA
:1043C0001F2161F30400ADF80400FF2A07D0DDE9E6
:1043D00001010BF0BBFE0090BDF80000CDE780B2FC
:1043E000CBE717B581B0022A03D8BDF8080004B0A6
:1043F00010BDBDF80400BDF80810C30ACC0A634321
:104400005B0963F3CF2001F01F0400F01F03634337
:104410005B0963F30400C0F34513C1F345114B433B
:10442000990961F34A10ADF80400FF2A07D0DDE9CD
:1044300001010BF08BFE0090BDF80000D7E780B2C1
:10444000D5E717B581B0022A03D8BDF8080004B03B
:1044500010BDBDF80830BDF80400D90AA1EBD02189
:10446000002900DC002161F3CF20C3F34511C0F324
:104470004514091BADF80400002900DC002161F39C
:104480004A1003F01F0100F01F03C91AADF8040021
:10449000002900DC002161F30400ADF80400FF2ACC
:1044A00007D0DDE901010BF051FE0090BDF80000DE
:1044B000CDE780B2CBE70000F8B504460FF06DF809
:1044C000064620460FF02BF80546304613F090FDC7
:1044D00004462B2D2AD00A2D27D16946304613F0E9
:1044E000EDFD304613F0F1FC05460021204614F0A6
:1044F00076FA0128BDF9000005EBD5711CD000EB60
:10450000610000BF90FBF5F001B2002900DA002144
:10451000608D4FF001028842204610D018F0B0FAAA
:1045200000221C2120460FF03DF8F8BD618DBDE84A
:10453000F840002218F0A4BAC0EB6100E2E718F0DE
:104540009FFAF8BD0146002041F6FF7200E0401CD2
:1045500031F910309342FAD170471CB5044690F8F7
:10456000500000F0010088422DD094F8500011B1A5
:1045700040F0010001E020F0010084F8500004F157
:10458000440168460AF03FF8606ABDF80010828A6C
:104590001144ADF80010BDF80210C08A0844ADF80F
:1045A0000200606ABDF80410808A0844ADF8040077
:1045B000606ABDF80610C08A0844ADF80600694676
:1045C000204615F0B8F81CBD08B5084611460BF09A
:1045D00048FC0090BDF8000008BD2DE9F04F0646EC
:1045E000C87A89B015460F46022803D8012009B0C1
:1045F000BDE8F08F18463A69B968FDF76DFC041EF6
:10460000F5D0207D00F01F000FF045FD08B1062019
:1046100008E0207D00F01F000FF02DFD08B10520FF
:1046200000E00420226A814622B1294630461BF070
:1046300064F8B7E0A069E8B3294602A809F0A4FF2E
:10464000388818B97888B0F5807F2AD0A88829885A
:104650006A88401A401C01B2E8883B1D801A401C41
:1046600002B27888CDE90003B7F9003002A8FDF75F
:10467000ABF8BDF8080029880844ADF80800BDF87B
:104680000A0069880844ADF80A00BDF80C002988C2
:104690000844ADF80C00BDF80E0069880844ADF878
:1046A0000E0002AA04A8B168FCF74EFD002879D0DC
:1046B00004A800E00DE0D6F80880B060CDF80090C6
:1046C0002A4639463046A3690CF0F4FBC6F8088048
:1046D00068E02A4604A8B168FCF736FD002861D0DE
:1046E000BDF81400BDF81010401A401C0FFA80FBF2
:1046F0000BEB4B0011F09AFE039004A901A8D6F829
:1047000008A009F041FF012101A809F0E4FFBDF96B
:104710001000B5F90010BDF91280401A0690B5F9E5
:104720000200A8EB000534E001AA514607A8FCF7F7
:104730000BFD60B30398009006985B4601B22AB265
:10474000204610F087F801280CD020460FF0D7FF44
:10475000039811F0B7FE20460FF0D1FF0020C6F8F5
:1047600008A044E707A8B060CDF8009001AA394638
:104770003046039B0CF09EFBBDF80600401CADF8D4
:104780000600BDF80A00401CADF80A006D1C08F1D7
:104790000108BDF916004045C6DAC6F808A003981E
:1047A00011F090FE20460FF0AAFF1FE770470000AF
:1047B00010B56FF00400FCF753FB09480949006885
:1047C000B0FBF1F0C1B2084801EB41020170C2EB4D
:1047D000C1114FF6FF7202EAC101418010BD000015
:1047E0000000002000127A00140000200B494988C4
:1047F00048434FF0E021486100228A61086940F097
:10480000010008610869C30701D0C003FAD508692F
:1048100020F0010008618A61704700001400002048
:1048200038B5054600924C88CB888A88088821468E
:10483000FBF751FF2846BDE838400CF0ADB870B525
:10484000054610F02BFA0646286B18F0EDFD31688E
:10485000898B884223D295F83C006C6A10F00301E2
:1048600005D06420012906D0022909D106E00020E4
:1048700060F30F0404E060F3174401E060F31F6489
:10488000304610F0CFFA214628460BF047FF30B1F2
:1048900000221C2128460EF085FE012803D118F0C5
:1048A000C9FD2863012070BD2DE9F04FA1B0074676
:1048B00014468A4604A80CF0F9F84FF4A0213846B3
:1048C00014F05BF801469DF81D0061F382008DF83D
:1048D0001D00A1882088091A491C09B201EBD17179
:1048E0004E103044ADF87000608800213044ADF8BF
:1048F0007200384614F029F98146514608A813F091
:10490000A5F804A810904FF4003015902C48099099
:1049100000200A9007F130008346FDF7AFFB4AE024
:104920002079032843D1208BADF81000208AADF800
:1049300012006079FD2801D9484602E000FB09F029
:10494000000A8DF81C002568B5F92030E88B184462
:104950000090D5E90512A06811F02AFD8046B5F94E
:104960002030E88B18440090D5E90512E06811F07A
:104970001FFD0546608B08AA3044ADF85C001CA8FA
:1049800011901A21199438460EF00CFEA9B21FFAA4
:1049900088F0CDE90001BDF85C301CAA04A950469E
:1049A0000CF074F808AA1B2138460EF0FBFD2146D6
:1049B0005846FDF760FB0400B2D121B0BDE8F08F8E
:1049C000802802082DE9F74FC878A0B00C460228CD
:1049D0007DD9114601A809F0E9FDB4F920000128AC
:1049E00029DD94F82200FD2825D3208818B394F8F7
:1049F0002300BDF804104008C0F380021144ADF854
:104A00000410BDF80610C0F340000844ADF80600DD
:104A100094F82310BDF808004908C1F3C001401AFA
:104A2000ADF8080094F82310BDF80A00C1F3400166
:104A3000401AADF80A00209801A9826805A8FCF781
:104A400083FB002843D0E07B10F0070619D0E088F4
:104A5000ADF80000BDF800006189884200D1002651
:104A600001A80CF01DFF07461C210EA8FBF720FD36
:104A7000A0788DF85100BDF80000ADF840001FB1DE
:104A800005E060680090E5E7208800B9EEB3E078C3
:104A9000FD2800D3FF208346BDF80800BDF80410B0
:104AA000401A401C0FFA80FABDF80A00BDF8061043
:104AB000401A401C01B289465046CA4500DB0846F0
:104AC000B4F90050B5EB600F00DB451000E043E0A7
:104AD000BDF81810BDF81400081A401C0FFA80F831
:104AE0004FF0FF301D9000200790002D00DC87B1B3
:104AF000404611F09BFC079000232A4601A916A806
:104B00000DF03AF9002116A800E01CE00CF0E8FCDA
:104B10001D90BDF81400ADF80C00BDF81800ADF8FC
:104B200010000798119003A80E901390FF208DF8A5
:104B300050004A465146A01D0FF016F8040018D048
:104B4000022E0CD015E001A80E90E0788DF85000F0
:104B50000EA920980DF0CCFB23B0BDE8F08FBDF975
:104B60001410A06800EB4100BDF90410A0EB410057
:104B70000F90002F7DD0BDF9165027E02FB2ADF871
:104B80000E70ADF8127042465946079811F0C4FDF8
:104B9000BDF9141043463A4607980CF043FE8DF8D1
:104BA0004800012802D102208DF84800012E08D1CA
:104BB000BDF90610A068691A00EB41000088ADF845
:104BC00040000EA920980DF093FB6D1CBDF91A0052
:104BD000A842D3DAB7E000BFBDF80600BDF9161051
:104BE00038440FFA80F9BDF80A00C01B0FFA80FAAA
:104BF000494503DDBDF91A10514544DB424659468B
:104C0000079811F089FDBDF90C1043464A460798F4
:104C10000CF008FE8DF84800012802D102208DF822
:104C20004800BDF91610494513DCADF80E90ADF8FB
:104C30001290012E09D1BDF90620A168A9EB02004E
:104C400001EB40000088ADF840000EA920980DF05F
:104C50004FFBBDF91A10514515DBADF80EA0ADF8AC
:104C600012A0012E0BD1BDF90600A268AAEB00002C
:104C700000E009E002EB40000088ADF840000EA91A
:104C800020980DF035FB7F1CAF42A5DBBDF804007A
:104C9000ADF87800BDF80800ADF87C00BDF806005E
:104CA0002844ADF87A00BDF80A00401BADF87E003C
:104CB0001EA80CF0F5FD074630430CD001208DF8FE
:104CC0004800BDF90A008DF850B0A0EB0509BDF908
:104CD0000600054435E0BDF806008DF850B02844C4
:104CE000ADF80E00BDF80A000EA9401BADF8120089
:104CF0000020119020980DF0FBFA24E06FB142469D
:104D00005946079811F008FDBDF9141043462AB220
:104D100007980CF087FD8DF84800ADF80E50ADF8FF
:104D20001250012E08D1BDF90600A168281A01EB26
:104D300040000088ADF840000EA920980DF0D8FA88
:104D40006D1C4D45DADD079808B111F0BBFB1D98CD
:104D5000401C05D01D980DF0BBF816A80CF084FD82
:104D6000002C3FF4F9AE20460EF0F7FEF4E6F0B565
:104D7000074608698FB015460C46002871D0A17E01
:104D800002296ED90FF079FF022820D069462069E8
:104D90000FF0D6FC012864D105A80CF093F8A07898
:104DA0008DF82000208BADF81C00E07E8DF81E00F1
:104DB000A07E8DF81F00207F4FF0FF36E0B30099F2
:104DC0006888ADF8060006EB51510844A8E00026BB
:104DD00041F6FF70CDE900600296D4E90412334633
:104DE0000DA818F063FE284609F042FC01462A8807
:104DF000BDF9340001EBD17102EB610200EBD0711F
:104E0000A2EB61010844401EADF81000ADF80C1093
:104E1000284609F001FC01466A88BDF9360001EB1D
:104E2000D17102EB610100EBD072A1EB6201084489
:104E3000ADF80E10401E00E015E0ADF8120005A818
:104E40000CF0F6FA60690590208BADF82000A07E8A
:104E50008DF82E00009603AA05A9384623690CF0A8
:104E60004BF80FB0F0BD284609F002FC298800EB92
:104E7000D07001EB60000099C1F38A21A0EB5100D2
:104E8000ADF80400284609F0C7FB698800EBD07034
:104E900001EB60010098A1EB9051C0F38A22ADF8BC
:104EA0000610BDF80430521E1A4406EB5050ADF8FF
:104EB00008200844ADF80A0001AA05A9384623696C
:104EC0000BF0D8FFCDE700992888C1F38A21ADF80F
:104ED0000400491E084410E001AA05A938462369C8
:104EE0000BF0C8FF0098BDF80410C0F38A200144FD
:104EF000ADF80410BDF808100844ADF80800BDF97D
:104F00000400B5F904108842E6DDBDF806100098EB
:104F100001EB5051ADF80610BDF80A1001EB5050EE
:104F2000ADF80A00BDF90600B5F906108842CADDE1
:104F300097E7F0B5074691F8220087B016460C4671
:104F400002286BD9208C002868D094F8230010F038
:104F50003E0F63D0C00761D1B08831887288401A93
:104F6000401C01B2F088B4F90050801A401C00B215
:104F7000814200DA0846B5EB600F00DD451031468E
:104F800004A809F013FB94F82300BDF91020C0F326
:104F900044014807B4F9200001D428444042104499
:104FA000ADF810000807BDF91420B4F9200001D4B1
:104FB00028444042101AADF8140094F82300BDF9BB
:104FC000121040088007B4F9200001D42844404260
:104FD0000844ADF8120094F82300BDF916104008FB
:104FE000C007B4F9200001D128444042081AADF8A6
:104FF0001600208C281A00B2002800DA0020A278BF
:1050000094F82210CDE90212E18BADF80410009063
:105010002B4604AA3146384600F002F807B0F0BD2E
:105020002DE9FF4FA9B01D46DDE93879DDF8D880BC
:1050300016460C46FF2F00D3FF2708460CF030FC25
:105040002690284350EA080074D0299821468268A7
:1050500008A8FCF779F8002873D0BDF82400BDF843
:105060002010401A401C00B204901C210AA811F024
:1050700085FB049811F0DAF90D904FF0FF30249081
:10508000002D0ADD00232A46214615A80CF074FEE7
:10509000002115A80CF024FA249001234246314641
:1050A0001BA80CF069FE00211BA80CF019FA259032
:1050B00001A80A900F90BDF8DC008DF84070ADF8A3
:1050C00030008DF84190B4F900002290B6F900C08C
:1050D0004319634500DC6346B4F904000FFA83F911
:1050E0002190B6F90430401B984200DB18460FFAB5
:1050F00080F8B4F902E0B6F902000EEB0501824631
:10510000514500DC01460FB2B4F906B0B6F90610FD
:10511000ABEB05028A4200DB0A4610B20590A8EB11
:105120000900401C00B22790D6450DDC01200CE0A0
:1051300000E006E0009732462146379B299800F0B0
:10514000B8F92DB0BDE8F08F002082468B4501DB19
:10515000012000E0002083462698D8B3BDF8200047
:10516000ADF80400BDF82400ADF80800BDF92240F8
:1051700022E000BFBAF1000F01D1A7421BDCBBF156
:10518000000F02D10598A0421ADB25B2ADF80650F7
:10519000ADF80A5004990D9811F01EFBBDF92010CE
:1051A0002A46049B0D980CF03DFB8DF838000AA9A7
:1051B00029980DF09DF8641CBDF92600A042D9DAAB
:1051C0001BA80CF051FB25980CF082FE2498401C83
:1051D00007D000E009E015A80CF046FB24980CF07D
:1051E00077FE0D9811F06EF9ABE72298604501DC6F
:1051F000012000E0002013902198984201DB01215A
:1052000000E000210120009013981291084000EA6C
:105210000A0010EA0B0F04D02798322801DA002088
:105220000090012000998DF838001AEA010F0ED085
:10523000ADF80490ADF808806088ADF8060070887D
:105240000AA9401EADF80A0029980DF051F80099FE
:105250001BEA010F0ED0ADF80490ADF80880F0887D
:105260000AA9401CADF80600E088ADF80A002998AC
:105270000DF03EF8139878B12088ADF8040030881E
:10528000ADF80670401EADF808000598ADF80A00AC
:105290000AA929980DF02CF8129878B1B0880AA9BB
:1052A000401CADF80400A088ADF808000598ADF8E2
:1052B0000670ADF80A0029980DF01AF80098C0B1F0
:1052C000BDF92400BDF92010A9F10102ADF80410C8
:1052D000904200DB1046ADF80800401A401C05B2B1
:1052E000002D70DD139850EA0A0066D0BDF9224007
:1052F00061E0BDF82000ADF80400BDF82400ADF871
:105300000800B4F90200B6F90210401AA84200DB06
:1053100005460FFA85F8002533E06088284406B278
:10532000E088401B07B2BDF92200B04203DDBDF9A1
:105330002600B84224DB04990D9811F04DFABDF90E
:1053400004103246049B0D980CF06CFA8DF838006E
:10535000BDF92200B04207DCADF80660ADF80A6086
:105360000AA929980CF0C4FFBDF92600B84207DB52
:10537000ADF80670ADF80A700AA929980CF0B8FFCC
:105380006D1C4545C9DB8DE026B2ADF80660ADF871
:105390000A6029460D9811F01FFABDF904102B463A
:1053A00032460D980CF03EFA8DF838000AA929987B
:1053B0000CF09EFF641CA742E6DC139850EA0B0039
:1053C0001DD0059C16E01AE026B2ADF80660ADF8D7
:1053D0000A6029460D9811F0FFF9BDF904102B461B
:1053E00032460D980CF01EFA8DF838000AA929985B
:1053F0000CF07EFFBDF92600641CA042E4DABDF982
:10540000200008F10101884200DC0846BDF82410A4
:10541000ADF80400081A401C05B2ADF80810002DC4
:1054200040DD129850EA0A001BD0BDF9224016E078
:1054300026B2ADF80660ADF80A6029460D9811F065
:10544000CBF9BDF904102B4632460D980CF0EAF961
:105450008DF838000AA929980CF04AFF641CA7426D
:10546000E6DC129850EA0B001CD0059C15E026B231
:10547000ADF80660ADF80A6029460D9811F0ACF958
:10548000BDF904102B4632460D980CF0CBF98DF87F
:1054900038000AA929980CF02BFFBDF92600641CDE
:1054A000A042E4DA1BA80CF0DFF925980CF010FDFF
:1054B0008FE62DE9FF478EB00C46824615461C212B
:1054C00002A81A9E11F05AF9CDF808D0BDF8440090
:1054D000ADF810008DF82060B4F90200B5F90210A3
:1054E000884201DC012700E00027B4F90600B5F985
:1054F0000610884201DB012600E00026B4F9000016
:10550000B5F90010884201DC012100E00021894644
:10551000B4F90410B5F90420914201DB012100E047
:105520000021ADF80000A088ADF804006088ADF857
:10553000020068888846401EADF806001FB102A927
:1055400050460CF0D5FEE888401CADF80200E0881B
:10555000ADF806001EB102A950460CF0C9FE208825
:10556000ADF800002888401EADF8040017B1B5F969
:10557000020001E0B4F90200ADF8020016B1B5F97D
:10558000060001E0B4F90600ADF80600B9F1000F1D
:1055900003D002A950460CF0ABFEA888401CADF821
:1055A0000000A088ADF80400B8F1000F03D002A9F4
:1055B00050460CF09DFE12B0BDE8F0872DE9F04F8B
:1055C0008B46A2F57F4195B091460646FF3944D0FF
:1055D000746A208C8046984204D02384608C40F00A
:1055E000040060844FF4802A5146204613F0E7FC03
:1055F00007465146204613F012FD0546B7F90870DC
:10560000304606F0D4FFB0F916107A1909FB0211E2
:1056100005EBD570A1EB6000ADF8060038446D1EB7
:105620002844ADF80A00706A818AADF80410008B36
:10563000ADF8080006A80CF06FFC06AA51462046FB
:1056400013F0EFFE01AA06A958460CF051FCA4F88D
:105650002080608C20F00400608415B0BDE8F08FDD
:105660002DE9F0430E46A2F57F4191B090460546E4
:10567000FF3956D06C6A278C9F4204D02384608CFB
:1056800040F00400608406A80BF0D2FE4FF480299D
:1056900006AA4946204613F023FE4946204613F049
:1056A000BEFCADF82A00284606F081FF050038D080
:1056B0000698B5F91620B0F90810BDF92A0000EBDC
:1056C000010C08FB0C2200EBD073A2EB6302104428
:1056D000491EADF80A200844ADF80E00A08AADF8C6
:1056E0000800208BADF80C0002AA0EA8B168FBF7E9
:1056F0002BFD88B10EA8D6F80880B060284610F0BF
:105700000FF803460020009005F1140206A9304668
:105710000BF0F2FBC6F808802784608C20F00400B0
:10572000608411B0BDE8F0832DE9F041274E0746B3
:1057300070680BF04BF904463868856BE96A09B16B
:1057400028468847206850B1606828B907E070682B
:105750000068816A01B1884720690028F7D10120DB
:10576000206171680968C9688A69D20702D08969AD
:10577000890700D400206061606908B1012600E05B
:1057800000263868416971B1016911F0300F06D007
:10579000490704D5D5E9001000F01AF803E0D5E96F
:1057A0000021FEF74BFA206800280BD06168002921
:1057B00008D03A68127CB243D20703D1A268824271
:1057C00002D1A160BDE8F081A060FBE748000020A5
:1057D0002DE9F34F05468A4893B041680E68306959
:1057E000820701D542076ED4C0F3011002281ED0F3
:1057F000012801D0032866D100200F9008460BF045
:10580000E5F88346A988B5F90000EA88091A491C19
:105810000CB2B5F90210521A521C17B24FF4A05232
:10582000B2FBF4F3BB420FDAB2FBF4F20DE029460F
:105830003046149A00F0F0F8149A15B02946304614
:10584000BDE8F04FFEF7FAB93A460C920791317C69
:10585000C1F30111012905D06880611E0844E88068
:105860000020BDE07188081A401EE880001B401C23
:105870006880F5E70C99A7EB0A00884200DD08462E
:1058800000B201900120CBF81000BAF1000F20D136
:10589000A7421EDB0194307CC0F30110032810D016
:1058A00000202146149A00F0ECF8307CC0F301107F
:1058B000012809D031880798081A401EA880001BCB
:1058C00056E00120EDE797E00798288007982044EC
:1058D00066E00F9820B94FF4205010F0A7FD0F900C
:1058E000307CC0F3011003281BD000208646DDF871
:1058F00050C001990F980A9004FB01F0401E0D90D2
:10590000601E48430E9000208146884222DA0E9A9B
:10591000BEF1000F02EB090001D00D9A101A00220F
:1059200012E00120E2E70A9BBEF1000F03EB400802
:1059300063460CF1020C1B88A8F8003001D0084423
:1059400000E0401A521C12B2A242ECDB09F1010045
:1059500000B2D9E7307CC0F3011001281BD0318898
:105960000798091AA1EB0A00401EA8800199401A65
:10597000401C288001990AEB0108B84513DBDBF8CD
:105980001800C0070FD0DBF8180080070BD50120E6
:10599000CBF814000AE00798504428800199084485
:1059A000401EA880E6E70021CBF814100F9828B11C
:1059B000024629463046FEF741F905E0149AF8E719
:1059C000B16A09B130468847DBF810000028F7D1EA
:1059D00001981499604301EB400014900FFA88F08D
:1059E0008246B842FFF646AF0F98002804D015B0A3
:1059F000BDE8F04F10F066BD15B0BDE8F08F0000B7
:105A00004800002030B504880D8805801088088083
:105A1000188810801C8030BDF8B58B880C884D88A4
:105A20001B1BCC885B1C641B641C1BB224B263432D
:105A300000245B1E0EE000BF02EB430602EB4407AE
:105A40003588ADF80050B7F800C0A6F800C05B1E5E
:105A50003D80641CA342EFD843884C88CA881B1B36
:105A60005B1ECB8043889A1A521E4A8003880C889A
:105A70008A881B1B5B1E8B800088801A401E088052
:105A8000F8BD2DE9F0470C4617468246002601EB8B
:105A9000D47931E00025601C00EBD07827E0A01B12
:105AA000401E01B2601B401E00B2BAF1000F0AD0C6
:105AB00005FB041201FB040107EB420300FB046039
:105AC00007EB410209E000FB046201FB040007EB65
:105AD000420307EB400205FB041007EB400106FB05
