:020000040800F2
:100000002075002075020008590E000861080008DC
:10001000550E00083D0700087B1100080000000095
:10002000000000000000000000000000DD010008EA
:10003000410700080000000021020008A10F00088D
:100040008F0200088F0200088F0200088F0200084C
:100050008F0200088F0200088F0200088F0200083C
:100060008F0200088F0200088F0200088F0200082C
:100070008F0200088F0200088F0200088F0200081C
:100080008F0200088F0200088F0200088F0200080C
:100090008F0200088F0200088F0200088F020008FC
:1000A0008F0200088F0200088F0200088F020008EC
:1000B000111000088F0200088F0200088F0200084C
:1000C0008F0200088F0200088F0200088F020008CC
:1000D0008F020008951000088F0200088F020008A8
:1000E0008F0200088F0200088F0200088F020008AC
:1000F0008F0200088F0200088F0200088F0200089C
:100100008F0200088F0200088F0200088F0200088B
:100110008F0200088F0200088F0200088F0200087B
:100120008F0200088F0200088F0200088F0200086B
:1001300000F002F800F042F80AA090E8000C8244B7
:100140008344AAF10107DA4501D100F037F8AFF294
:10015000090EBAE80F0013F0010F18BFFB1A43F0A5
:10016000010318477432000094320000103A24BF93
:1001700078C878C1FAD8520724BF30C830C144BF0C
:1001800004680C607047000000230024002500264E
:10019000103A28BF78C1FBD8520728BF30C148BFEA
:1001A0000B607047642900F0F180732900F07A82B7
:1001B000002070471FB51FBD10B510BD00F08CFAB0
:1001C0001146FFF7F7FF01F07DF800F0AAFA03B43B
:1001D000FFF7F2FF03BC00F0D2FF0000224B1968CA
:1001E0000868B0E8F00F80F30988BFF36F8F4FF015
:1001F000000080F311884EF00D0E704700000000E3
:1002000006480068006880F3088862B661B6BFF3EC
:100210004F8FBFF36F8F00DF00BF00BF08ED00E01E
:10022000EFF30980BFF36F8F0F4B1A6820E9F00FCF
:10023000106008B54FF0500080F31188BFF34F8F66
:10024000BFF36F8F02F002FA4FF0000080F31188C5
:10025000BDE8084019680868B0E8F00F80F3098825
:10026000BFF36F8F704700BF38000020EFF30580A9
:10027000704700000948804709480047FEE7FEE74D
:10028000FEE7FEE7FEE7FEE7FEE7FEE7FEE7FEE746
:1002900004480549054A064B70470000B10F0008A5
:1002A0003101000820550020207500202065002025
:1002B00020650020704700000FB4044910B503AA60
:1002C000029800F0F3F910BC5DF814FB2800002040
:1002D0002DE9F0410E460446002020622046E168E8
:1002E000884730B3252805D0D4E901219047206AFA
:1002F000401CF2E7E168204600278847050018D037
:10030000A5F14100192802D820354FF40067324684
:10031000294620462760FFF745FF40B1012804D059
:10032000F61D26F007060836D8E7361DD6E728461C
:10033000DAE7206ABDE8F08170B50C460546012A6F
:1003400005D02878800600D5EA69002302E0012361
:1003500005E05B1C934202D2E05C0028F9D1A86959
:10036000E618C01AA861286A184428622846AFF324
:10037000008004E0D5E9012114F8010B9047B44254
:10038000F8D32846AFF3008070BD00002DE9F0419E
:100390000646002410687529314616A510D0AFF323
:1003A0000080002802DA404213A507E031688A077E
:1003B00001D512A502E0490704D511A5012401E0E9
:1003C000AFF3008000210A2206F1240709E0B0FB08
:1003D000F2FCB0FBF2F302FB1C00303078541846FC
:1003E000491C0028F3D123462A463046BDE8F04197
:1003F00000F0D4B8000000002D0000002B00000029
:1004000020000000032A40F2308010F0030C00F0BE
:10041000158011F8013BBCF1020F624498BF11F83E
:1004200001CB00F8013B38BF11F8013BA2F10402F7
:1004300098BF00F801CB38BF00F8013B11F003036F
:1004400000F02580083AC0F0088051F8043B083AD3
:1004500051F804CBA0E80810F5E7121D5CBF51F875
:10046000043B40F8043BAFF30080D20724BF11F8EF
:10047000013B11F801CB48BF11F8012B24BF00F854
:10048000013B00F801CB48BF00F8012B704710B5C5
:10049000203AC0F00B80B1E81850203AA0E818507C
:1004A000B1E81850A0E81850BFF4F5AF5FEA027C3D
:1004B00024BFB1E81850A0E8185044BF18C918C0AC
:1004C000BDE810405FEA827C24BF51F8043B40F84D
:1004D000043B08BF7047D20728BF31F8023B48BF32
:1004E00011F8012B28BF20F8023B48BF00F8012B70
:1004F000704702F0FF0343EA032242EA024200F09F
:1005000002B84FF000020429C0F0128010F0030C72
:1005100000F01B80CCF1040CBCF1020F18BF00F8F6
:10052000012BA8BF20F8022BA1EB0C0100F00DB8A5
:100530005FEAC17C24BF00F8012B00F8012B48BF03
:1005400000F8012B70474FF0000200B513469446A7
:100550009646203922BFA0E80C50A0E80C50B1F11B
:100560002001BFF4F7AF090728BFA0E80C5048BF2F
:100570000CC05DF804EB890028BF40F8042B08BFCD
:10058000704748BF20F8022B11F0804F18BF00F8C9
:10059000012B704770477047704770472DE9F0474F
:1005A0000D4699469246044600F1240801688806E3
:1005B00004D5E06921F01001216000E00120A8428B
:1005C00001DD471B00E00027A1697A1902EB090051
:1005D000081AA0612078C00602D42046AFF300803C
:1005E000002608E0D4E901211AF806009047206AA5
:1005F000401C761C20624E45F4DB2078C0060AD5EC
:100600002046AFF3008006E0D4E901213020904776
:10061000206A401C2062381EA7F10107F4DC07E0C5
:10062000D4E9012118F805009047206A401C206297
:10063000281EA5F10105F3DC2046AFF300802078E9
:10064000000602D50220BDE8F0870120FBE700008C
:1006500001694A1C02610878704700B58FB0CDE986
:1006600001310021059105497944CDE90310114676
:100670006846FFF72DFE0FB000BD0000E5FFFFFF4D
:1006800010B5436913B1AFF3008001E0FFF754FEEA
:10069000012010BD127800F124010A7000224A7076
:1006A0000122EDE711684FF0FF32E9E7074B70B523
:1006B0000D467B44FFF7D1FF0446284600F008F8BA
:1006C00010B14FF0FF3070BD204670BDCB0B000065
:1006D000007B00F080007047754600F02BF8AE46B6
:1006E00005006946534620F00700854618B020B53E
:1006F000FFF7CEFDBDE820404FF000064FF00007A9
:100700004FF000084FF0000B21F00701AC46ACE8B9
:10071000C009ACE8C009ACE8C009ACE8C0098D4626
:10072000704710B50446AFF300802046BDE8104086
:10073000FFF74DBD00487047C054002000BFFEE7E2
:1007400070472DE9F04102460025002600200023D5
:100750000024002791F803C00CF00F0591F803C0A6
:100760000CF0100CBCF1000F03D091F802C04CEA61
:10077000050591F800C0BCF1000F31D014680020CD
:100780002BE04FF0010C0CFA00F3B1F800C00CEABA
:1007900003069E4220D183004FF00F0C0CFA03F7A2
:1007A000BC4305FA03FC4CEA040491F803C0BCF115
:1007B000280F06D14FF0010C0CFA00FCC2F814C04F
:1007C0000AE091F803C0BCF1480F05D14FF0010CCD
:1007D0000CFA00FCC2F810C0401C0828D1D31460E9
:1007E000B1F800C0BCF1FF0F34DD546800202EE0EA
:1007F00000F1080C4FF0010808FA0CF3B1F800C042
:100800000CEA03069E4221D183004FF00F0C0CFA34
:1008100003F7BC4305FA03FC4CEA040491F803C057
:10082000BCF1280F05D100F1080C08FA0CF8C2F849
:10083000148091F803C0BCF1480F07D100F1080CF7
:100840004FF0010808FA0CF8C2F81080401C082884
:10085000CED35460BDE8F0814161704701617047BB
:1008600000BFFEE708B501211C2000F001FB4FF49A
:100870004070ADF8000010208DF8030003208DF8C3
:10088000020069461748FFF75CFF4FF440711548B6
:10089000FFF7E4FF4FF47070ADF8000010208DF802
:1008A000030003208DF8020069460F48FFF749FF57
:1008B0004FF470710C48FFF7D1FF4FF40040ADF8D2
:1008C000000010208DF8030003208DF80200694617
:1008D0000648FFF736FF4FF400410448FFF7BEFF1C
:1008E00008BD00000008014000100140000C01405C
:1008F00010B5FFF7B7FF4FF48071FE48FFF7ACFF6C
:10090000642000F06DFC4FF48071FA48FFF7A6FFF9
:10091000642000F065FC4FF40041F748FFF79EFFAC
:10092000642000F05DFCEF2000F038FAEB2000F0CE
:1009300035FA142000F02BFAFE2000F02FFAEF20F9
:1009400000F02CFAEB2000F029FA142000F01FFA36
:10095000842000F023FA402000F019FA852000F0EE
:100960001DFAFF2000F013FA862000F017FAFF208E
:1009700000F00DFA872000F011FAFF2000F007FACE
:10098000882000F00BFA0A2000F001FA892000F01C
:1009900005FA212000F0FBF98A2000F0FFF9002081
:1009A00000F0F5F98B2000F0F9F9802000F0EFF964
:1009B0008C2000F0F3F9012000F0E9F98D2000F01F
:1009C000EDF9012000F0E3F98E2000F0E7F9FF20B7
:1009D00000F0DDF98F2000F0E1F9FF2000F0D7F9F9
:1009E000B62000F0DBF9002000F0D1F9202000F063
:1009F000CEF9362000F0D2F9082000F0C8F93A20EC
:100A000000F0CCF9052000F0C2F9902000F0C6F902
:100A1000082000F0BCF9082000F0B9F9082000F027
:100A2000B6F9082000F0B3F9BD2000F0B7F90620B0
:100A300000F0ADF9BC2000F0B1F9002000F0A7F9FA
:100A4000FF2000F0ABF9602000F0A1F9012000F0D8
:100A50009EF9042000F09BF9C32000F09FF91320B9
:100A600000F095F9C42000F099F9132000F08FF9F7
:100A7000C92000F093F9222000F089F9BE2000F08F
:100A80008DF9112000F083F9E12000F087F91020A2
:100A900000F07DF90E2000F07AF9DF2000F07EF9F9
:100AA000212000F074F90C2000F071F9022000F010
:100AB0006EF9F02000F072F9452000F068F9092085
:100AC00000F065F9082000F062F9082000F05FF9F5
:100AD000262000F05CF92A2000F059F9F12000F0FE
:100AE0005DF9432000F053F9702000F050F97220B6
:100AF00000F04DF9362000F04AF9372000F047F9B0
:100B00006F2000F044F9F22000F048F9452000F091
:100B10003EF9092000F03BF9082000F038F90820E0
:100B200000F035F9262000F032F92A2000F02FF9E4
:100B3000F32000F033F9432000F029F9702000F091
:100B400026F9722000F023F9362000F020F9372032
:100B500000F01DF96F2000F01AF9ED2000F01EF9E9
:100B60001B2000F014F90B2000F011F9AE2000F06A
:100B700015F9772000F00BF9CD2000F00FF9632074
:100B800000F005F9702000F009F9072000F0FFF8E7
:100B9000072000F0FCF8042000F0F9F80E2000F027
:100BA000F6F80F2000F0F3F8092000F0F0F8072025
:100BB00000F0EDF8082000F0EAF8032000F0E7F874
:100BC000E82000F0EBF8342000F0E1F8622000F0BB
:100BD000E5F8182000F0DBF80D2000F0D8F87120BF
:100BE00000F0D5F8ED2000F0D2F8702000F0CFF83A
:100BF000702000F0CCF8182000F0C9F80F2000F0A9
:100C0000C6F8712000F0C3F8EF2000F0C0F87020A3
:100C100000F0BDF8702000F0BAF8632000F0BEF8D4
:100C2000182000F0B4F8112000F0B1F8712000F0A5
:100C3000AEF8F12000F0ABF8702000F0A8F87020BA
:100C400000F0A5F8182000F0A2F8132000F09FF89B
:100C5000712000F09CF8F32000F099F8702000F06B
:100C600096F8702000F093F8642000F097F82820A0
:100C700000F08DF8292000F08AF8F12000F087F8C4
:100C8000012000F084F8F12000F081F8002000F04D
:100C90007EF8072000F07BF8662000F07FF83C200B
:100CA00000F075F8002000F072F8CD2000F06FF829
:100CB000672000F06CF8452000F069F8452000F04E
:100CC00066F8102000F063F8002000F060F80020C3
:100CD00000F05DF8002000F05AF8672000F05EF8A0
:100CE000002000F054F83C2000F051F8002000F003
:100CF0004EF803E000100140000C0140002000F01D
:100D000046F8002000F043F8012000F040F854209D
:100D100000F03DF8102000F03AF8322000F037F8EB
:100D2000982000F034F8742000F038F8102000F01B
:100D30002EF8852000F02BF8802000F028F8002005
:100D400000F025F8002000F022F84E2000F01FF8F7
:100D5000002000F01CF8982000F020F83E2000F061
:100D600016F8072000F013F8352000F017F82120BE
:100D700000F014F8112000F011F8782000F030FA9B
:100D8000292000F00BF8142000F02AFA10BD10B54D
:100D90000446204600F012F810BD000010B50446CD
:100DA00080210548FFF758FD204600F007F8802114
:100DB0000148FFF753FD10BD0010014070B5044617
:100DC00040211448FFF748FD00251BE04FF48071D7
:100DD0001148FFF741FD04F0800028B14FF4007185
:100DE0000C48FFF73BFD04E04FF400710948FFF7A2
:100DF00033FD4FF480710848FFF730FD6006040EA4
:100E0000681CC5B2082DE1DB40210248FFF726FD32
:100E100070BD0000001001400008014008B501212C
:100E2000482000F025F84FF44070ADF80000102085
:100E30008DF8030003208DF8020069460448FFF78F
:100E400080FC4FF440710248FFF708FD08BD000028
:100E5000000C014000BFFEE770470000024901435B
:100E6000024A1160704700000000FA050CED00E036
:100E700029B1064A92690243044B9A6104E0034A8D
:100E800092698243014B9A61704700000010024052
:100E900010B500F001F810BD0CB5002001900090D5
:100EA0003348006840F480303149086000BF304862
:100EB000006800F4003000900198401C01900098F8
:100EC00018B90198B0F5A06FF1D12948006800F475
:100ED000003010B10120009001E000200090009847
:100EE000012843D12348006840F0100021490860E0
:100EF0000846006820F0030008600846006840F0DB
:100F0000020008601A48406819494860084640686D
:100F100048600846406840F4806048600846406881
:100F200020F47C1048600846406840F4E8104860AF
:100F30000846006840F08070086000BF0C480068F8
:100F400000F000700028F9D00948406820F0030044
:100F5000074948600846406840F00200486000BF0A
:100F60000348406800F00C000828F9D10CBD0000CF
:100F70000010024000200240042808D14FF0E02178
:100F8000096941F004014FF0E022116107E04FF0E0
:100F9000E021096921F004014FF0E022116170475E
:100FA00010B501F071FF012801D001F0F3FB10BD75
:100FB00010B51348006840F0010011490860084668
:100FC0004068104908400E494860084600680E49CC
:100FD00008400B4908600846006820F4802008603B
:100FE0000846406820F4FE0048604FF41F00886007
:100FF000FFF74EFF4FF000600449086010BD00008D
:10100000001002400000FFF8FFFFF6FE08ED00E0D0
:1010100010B50121880700F02CF8E0B1012000F0A4
:1010200043F90F480068401C0D49086008460068F5
:10103000B0F57A7F0FDB0B480068401C0949086057
:10104000086800EBD0714910A0EB4101064A11601D
:101050000020034908600121880700F007F810BD4F
:101060001400002018000020A4812142CA430282FB
:10107000704730B50246002000230024158A05EA97
:101080000103958905EA010413B10CB1012000E0C8
:10109000002030BD10B540F225511D4800F03EF84B
:1010A00010B31B4800F064F8C4B21A48008800F47A
:1010B0000040C8B91748008800F4804060B10A2C8D
:1010C00003D000201349088020E01248008840F433
:1010D00000401049088019E00D2C06D10D48008809
:1010E00040F480400B49088010E00A480088C0F3B3
:1010F0000D0009490C5407480088401C0549088028
:1011000008460088C72801DD0020088010BD0000C7
:10111000003801402C000020AC00002070B50246D1
:10112000002400230025002040F66A16B14200D1B9
:1011300000BFC1F3421501F01F03012606FA03F3B5
:10114000012D02D19689334006E0022D02D1168A84
:10115000334001E0968A33400C12012606FA04F46B
:101160001688344013B10CB1012000E0002070BD9E
:1011700001468888C0F30800704700BFFEE700BF43
:101180007047000010B50420FFF7F6FE1048006815
:101190001049B0FBF1F0104908700D4800680D4986
:1011A000B0FBF1F44FF47A70444301200B490880FE
:1011B0004FF0E020006940F002004FF0E0210861AC
:1011C00008464461006940F00100086110BD00005C
:1011D0000000002040420F002400002026000020D4
:1011E00070B5044601F050FE012810D00B4800886D
:1011F000844206D309480088B4FBF0F5284601F084
:10120000B1F806480088B4FBF0F100FB11444FF43C
:101210007A7104FB01F000F003F870BD2600002095
:1012200070B5034600224FF0E02675690D4E367802
:1012300003FB06F44FF0E026B16910E04FF0E02622
:10124000B06988420BD0884202D20E1A324402E0C2
:101250002E1A0E4432440146A24200D300E0EDE7CC
:1012600000BF70BD2400002030B50446002504E016
:101270004FF47A70FFF7D4FF6D1CA542F8D330BD50
:1012800000BF054A128802F04002002AF9D0C2B21B
:10129000014B1B1D1A8070470038014002E00520F9
:1012A00001F060F8FBE700000021044A11700449D6
:1012B00009680144024A11607047000034000020B0
:1012C000300000201CB5FFF75DFFFFF7A7FDFFF71B
:1012D0000FFB4FF44070FFF7C1FD0C4802210023C3
:1012E0008022CDE900100AA10C4801F09DFD0C48B8
:1012F000032100238022CDE900100AA10B4801F050
:1013000093FD01F045F900BFFEE700001C0000203E
:1013100073746172745461736B000000BD1F000828
:10132000200000206775695461736B009D120008EE
:101330002DE9F04105460E461C4807681C48006828
:10134000001D00F051FE50B91948006890F82C10AB
:101350000120884017490968814316480160681CCC
:1013600038B936B112480168091D134800F07AFEF9
:101370001AE07C190E4800684460BC4207D20C4851
:101380000168091D0D48006800F052FE0CE0084895
:101390000168091D0A48006800F04AFE0948006813
:1013A000844201D207480460BDE8F0814C0000206F
:1013B000380000205000002084040020400000205D
:1013C0003C0000206800002010B5044600F056FEE6
:1013D00024480068401C234908602348006840B93D
:1013E000214804600846006801280DD100F0EEF99C
:1013F0000AE01E48006838B91B480068C06AE16A04
:10140000884201D81848046019480068401C1849EF
:10141000086008460068606494F82C100120884039
:1014200014490968084313490860E16A01EB810126
:10143000114A02EB8100211D00F014FE00F062FE53
:101440000A48006868B108480068C06AE16A8842D2
:1014500007D24FF0805009490860BFF34F8FBFF3A8
:101460006F8F10BD4800002038000020540000207D
:101470006400002050000020B401002004ED00E0D2
:1014800010B500F0FBFD10480068D0B90F4800F01F
:10149000BFFD0F4800F0BCFD0C480E4908600C4829
:1014A0000D49086000221021052001F08DF9064940
:1014B00008600846006820B108A10348006800F0F1
:1014C00015FF00F01FFE10BD7C00002098040020D6
:1014D000AC0400207400002078000020546D72518C
:1014E0000000000070B523E001F0A8F81348006880
:1014F00008B9012000E00020054601F051FEBDB909
:1015000000F0BCFD0D48C068C468201D00F06CFDF3
:101510000B480068401E0A4908600A480068401EDF
:101520000849086000F0EEFD204600F060F800BFBA
:10153000044800680028D7D170BD00007004002066
:10154000480000204400002070B504460D46206C81
:1015500070B1216CE0680844E0606168E06888422E
:1015600001D32068E0602846226CE168FEF74AFF5C
:1015700070BD2DE9F04104460F4615464FF00008B6
:10158000A66B206C40B9206860BB606801F042FD2A
:1015900080460020606025E07DB93946226CA06855
:1015A000FEF730FF216CA0680844A060D4E9011068
:1015B000884217D32068A06014E03946226CE068A6
:1015C000FEF720FF216CE068401AE0602168E068C7
:1015D000884203D2216C6068401AE060022D01D17C
:1015E00006B1761E701CA0634046BDE8F08110B5C0
:1015F0000446206B00F0BEFD204600F0BBFD10BD90
:101600000146084A126812680AB9012200E0002265
:101610000A600A6822B9034A1268D268106800E0BA
:10162000002070477400002030B54FF4A0431748E5
:1016300000F007042CB1C01D20F00700134C041B60
:101640001B1B0246124C22600024114D6C60D01806
:10165000083820F007000F4C206000240D4D2D6845
:101660006C600C4D2D682C601146441A4C60094C7E
:1016700024680C60084D4C682C60084D4C682C6048
:101680004FF00044064D2C6030BD0000C004002027
:101690008800002090000020980000209400002086
:1016A0009C00002000BFFFF71DFF064800680128CE
:1016B000F9D94FF0805004490860BFF34F8FBFF352
:1016C0006F8FF0E7B401002004ED00E02DE9F04158
:1016D00006460D4617469846069C0DB9246000E064
:1016E0002760E66325640121204601F08BF984F828
:1016F00050800020A064BDE8F08100002DE9F05F7B
:1017000082460F4690469B460A9E0C9C4FEA8801F3
:10171000A522206BFEF7EDFEA8F10100216B01EB85
:10172000800929F0070909F0070008B9012000E045
:10173000002028B940F22F321BA120A0FEF7BCFDEB
:10174000002507E0795D04F134004155785D00B96A
:1017500002E06D1C102DF5D300BF00214320015580
:10176000202E00D31F26E662E66400202065201D9F
:1017700000F05BFC04F1180000F057FC2461C6F196
:101780002000A06164620020606584F858005A4619
:101790005146484600F000FC20600B9808B10B98B9
:1017A0000460BDE8F09F00002E2E5C467265655215
:1017B000544F535C7461736B732E63004572726F88
:1017C000723A25732C25640D0A00000010B5002420
:1017D00007E004EB84010F4A02EB810000F018FCE3
:1017E000641C202CF5D30C4800F012FC0B4800F0D0
:1017F0000FFC0B4800F00CFC0A4800F009FC0A48FA
:1018000000F006FC044809490860044808490860DB
:1018100010BD0000B4010020340400204804002062
:101820005C04002070040020840400203C000020A0
:101830004000002010B50146164800E0006803682B
:101840008B42FBD30246436813448B4204D1436866
:101850004C682344436001460A464B6813440468BD
:10186000A34211D10C4C03682468A34208D04B68F2
:101870000468646823444B6003681B680B6005E0E0
:10188000054B1B680B6001E003680B60884200D0C9
:10189000016010BD88000020900000202DE9F0417B
:1018A00004460D4616461F464FF000086560246149
:1018B000B5420CD8F01BA169884202D34FF0010851
:1018C00011E0211D0948006800F0B2FB0BE0BE42A8
:1018D00004D2BD4202D34FF0010804E0211D0448A8
:1018E000006800F0A5FB4046BDE8F08178000020CC
:1018F0007400002070B5054600F0C0FBA86B08B965
:10190000012400E0002400F0FDFB204670BD70B50E
:10191000054600F0B3FBA86BE96B884201D10124B6
:1019200000E0002400F0EEFB204670BD2DE9F341FD
:101930000D460098846C00272CB940F6CE121AA1EF
:101940001EA0FEF7B9FCA06BE16B884201D201201A
:1019500000E0002028B940F6CF1213A117A0FEF72F
:10196000ABFCA06BE16B88421BD294F945602A4620
:1019700069462046FFF7FDFD0746701C60B9606AA6
:1019800008B9012000E0002050B904F1240001F062
:10199000ADFB28B1012703E0701C40B284F845007C
:1019A00000BF3846BDE8FC812E2E5C46726565524C
:1019B000544F535C71756575652E63004572726F87
:1019C000723A25732C25640D0A000000F8B505460F
:1019D0000F4613480068C068C468201D00F004FB6F
:1019E000E069012818D1A06941192B463A462046E2
:1019F000FFF754FF80B1002003462A4601460090BD
:101A0000204601F097FC06462EB94FF4027205A15C
:101A10000AA0FEF751FC00BF2046616A8847F8BD66
:101A2000740000202E2E5C4672656552544F535C44
:101A300074696D6572732E63000000004572726FE9
:101A4000723A25732C25640D0A000000F0B587B0AA
:101A500070E0039800280CDA04AE2EB940F2E722B9
:101A60003AA140A0FEF728FCD6E90020B1689047D3
:101A700000BF039800285DDB059C606908B9012060
:101A800000E0002010B9201D00F0AEFA02A800F01E
:101A9000C7F8054603980A284AD2DFE800F009058E
:101AA000072C2E4506082D2F00BF00BF00BF00BF2A
:101AB0000498A269811803462A462046FFF7EEFEE5
:101AC000C0B12046616A8847E069012812D1002030
:101AD00000900498A169421800231946204601F09D
:101AE00029FC07462FB940F2213218A11DA0FEF7AC
:101AF000E3FB00BF1DE000BF1BE000BF0498A06136
:101B0000A06908B1012000E0002028B94FF44E720E
:101B10000EA114A0FEF7D0FBA06941192B462A465E
:101B20002046FFF7BBFE04E0204600F023FB00E068
:101B300000BF00BF00231A4603A90E48006800F04A
:101B40007DFE002885D107B0F0BD00002E2E5C463A
:101B500072656552544F535C74696D6572732E6380
:101B6000000000004572726F723A25732C25640DD7
:101B70000A0000007C000020F8B505460C4600F085
:101B80005DFD684600F04CF80646009820BB44B95D
:101B9000B54206D801F004FB31462846FFF716FF90
:101BA0001CE03CB10E480068006808B9012000E064
:101BB00000200446A91B22460A48006800F0ACFB3E
:101BC00001F0EEFA50B94FF0805007490860BFF3BA
:101BD0004F8FBFF36F8F01E001F0E2FAF8BD000014
:101BE000780000207C00002004ED00E00A4909682C
:101BF000096809B9012100E0002121B14FF0FF314E
:101C0000064A116006E004490968C968C868034AC1
:101C100041681160704700003C000020680000200F
:101C200070B5044601F040F9054607480068854252
:101C300004D200F00BF80120206001E000202060B9
:101C400001480560284670BD840000202DE9F84356
:101C50002DE021480068C06805681F480068C0681A
:101C6000C468201D00F0C0F92046616A8847E06919
:101C700001281CD1A0694619AE4207D966602461CB
:101C8000211D1548006800F0D3F910E0002003463C
:101C90002A4601460090204601F04CFB07462FB92A
:101CA00040F292320DA113A0FEF706FB00BF0A48D6
:101CB0000068006808B9012000E000200028C8D0B2
:101CC0000548D0F800800F480068034908600D48B7
:101CD000C0F80080BDE8F883740000202E2E5C461A
:101CE00072656552544F535C74696D6572732E63EF
:101CF000000000004572726F723A25732C25640D46
:101D00000A000000780000200B480068401C08B959
:101D1000012000E0002020B9F42208A112A0FEF763
:101D2000CBFA00BF502080F31188BFF34F8FBFF371
:101D30006F8F00BF00BFFEE7A00000202E2E5C4684
:101D400072656552544F535C706F727461626C655A
:101D50005C525644535C41524D5F434D335C706F4F
:101D600072742E63000000004572726F723A257320
:101D70002C25640D0A00000008B500BF6846FFF777
:101D80003FFC044620460099FFF7F6FEFFF75EFE93
:101D9000F4E770B5044600F071F994F945501AE083
:101DA000A06C38B100212046FFF7C0FD88B100F0DB
:101DB00013FB0EE0606A08B9012000E0002038B98A
:101DC00004F1240001F092F918B100F005FB00E0E5
:101DD00003E0681E45B2002DE2DC00BFFF2084F85E
:101DE000450000F08FF900F049F994F9445010E0F3
:101DF000206908B9012000E0002048B904F1100072
:101E000001F074F908B100F0E7FA681E45B200E08D
:101E100001E0002DECDC00BFFF2084F8440000F05E
:101E200071F970BD2DE9F04104464FF0000800F053
:101E300005FC3E48006808B9FFF7F6FB3C4800681F
:101E4000204000285FD1A4B1083404F0070080B11D
:101E500004F00700C0F10800044404F0070008B9CA
:101E6000012000E0002020B9BF2232A13BA0FEF7F4
:101E700023FA002C47D03D480068844243D83C4EAA
:101E80003046056801E02E462D686868A04202D2FF
:101E900028680028F7D125480068854233D030688B
:101EA00000F10808286830606868001B102813D902
:101EB0002F1907F0070008B9012000E0002020B921
:101EC000EC221CA125A0FEF7F7F96868001B7860DA
:101ED0006C603846FFF7AEFC244968680968081A48
:101EE000224908600846006822490968884203D2EE
:101EF0001E4800681F4908600D4968680968084362
:101F000068600020286001F04BF908F0070008B96C
:101F1000012000E0002028B94FF4967205A10FA01F
:101F2000FEF7CAF94046BDE8F081000090000020AD
:101F30009C0000202E2E5C4672656552544F535C07
:101F4000706F727461626C655C4D656D4D616E673A
:101F50005C686561705F342E630000004572726FCB
:101F6000723A25732C25640D0A00000094000020AD
:101F700088000020980000200648006830B105491C
:101F8000096801F15000096D491C016001480068B1
:101F90007047000038000020001F4FF0807303607E
:101FA000001F21F001030360001F034B036014387E
:101FB0000260203870470000091D00080EE0002074
:101FC000074908604FF4FA70FFF74EF90120054900
:101FD000C1F8A0014FF4FA70FFF746F9EFE70000EF
:101FE000A08121420080214201460A69D1E90130E5
:101FF0009860D1E9010358605068884201D188682F
:102000005060002008611068401E10601068704722
:1020100000F1080141604FF0FF31816000F10801DB
:10202000C1600161002101607047002101617047BA
:1020300010B502460B685C1C0CB9106907E002F190
:10204000080000E04068446824689C42FAD944686B
:102050004C604C68A160886041600A611468641C2F
:10206000146010BD42684A6093688B609368596041
:102070009160086103685B1C0360704710B500BF86
:10208000502080F31188BFF34F8FBFF36F8F00BFD5
:102090000B480068401C0A4908600846006801288F
:1020A0000DD108480068C0B208B9012000E0002046
:1020B00028B94FF4BD7204A10EA0FEF7FDF810BDC3
:1020C000A000002004ED00E02E2E5C4672656552F3
:1020D000544F535C706F727461626C655C5256440D
:1020E000535C41524D5F434D335C706F72742E638D
:1020F000000000004572726F723A25732C25640D42
:102100000A00000010B50B48006828B940F281129F
:1021100009A114A0FEF7D0F806480068401E054942
:1021200008600846006820B9002080F3118800BFCD
:1021300000BF10BDA00000202E2E5C4672656552C7
:10214000544F535C706F727461626C655C5256449C
:10215000535C41524D5F434D335C706F72742E631C
:10216000000000004572726F723A25732C25640DD1
:102170000A00000070B506463546002E35D0083DF1
:102180002C461A4960680968084008B1012000E03F
:10219000002028B94FF4A07215A11FA0FEF78CF8FB
:1021A000206808B9012000E0002028B940F241125F
:1021B0000FA119A0FEF780F80C4960680968084073
:1021C00098B1206888B909496068096888436060E7
:1021D00000F034FA1449606809680844124908603C
:1021E0002046FFF727FB00F0DBFF70BD9C000020BE
:1021F0002E2E5C4672656552544F535C706F72743C
:1022000061626C655C4D656D4D616E675C686561B2
:10221000705F342E630000004572726F723A25734E
:102220002C25640D0A000000940000200648006878
:102230004FF47A71B0FBF1F0401E4FF0E02148619D
:1022400007200861704700000000002070B5FEF70D
:102250000DF80546102D11D305F1E02090F8F0435C
:1022600010480078844201DB012000E0002028B9FA
:102270004FF42A720CA117A0FEF71EF81948006847
:1022800000F4E06018490968884201D8012000E0A4
:10229000002028B94FF42E7203A10EA0FEF70CF80F
:1022A00070BD0000A40000202E2E5C4672656552B1
:1022B000544F535C706F727461626C655C5256442B
:1022C000535C41524D5F434D335C706F72742E63AB
:1022D000000000004572726F723A25732C25640D60
:1022E0000A0000000CED00E0A800002002460020DB
:1022F0000BE0084B53F8303033B9064B43F830103D
:1023000003EBC0035A6002E0401C0828F1D300BF71
:1023100070470000740100202DE9F04105460E468B
:1023200017462C46FFF7AAFE94F94400401C10B94A
:10233000002084F8440094F94500401C10B90020A6
:1023400084F84500FFF7DEFEA06B28B93A46314617
:1023500004F1240000F070F82046FFF71AFDBDE8F4
:10236000F081000070B504460025ACB10F4800684C
:1023700008B9012000E0002028B940F2D3420CA1A6
:1023800010A0FDF799FF00F059F900212046FEF753
:10239000CFFF00F005FF05463DB94FF080500D49D5
:1023A0000860BFF34F8FBFF36F8F70BD70000020C8
:1023B0002E2E5C4672656552544F535C7461736B8C
:1023C000732E63004572726F723A25732C25640D6B
:1023D0000A00000004ED00E0012001490860704798
:1023E0005C00002070B504460D462CB940F60C3256
:1023F00007A10CA0FDF760FF0E48016818312046C8
:10240000FFF716FE01212846FEF792FF70BD00007F
:102410002E2E5C4672656552544F535C7461736B2B
:10242000732E63004572726F723A25732C25640D0A
:102430000A0000003800002070B505460E4614461C
:102440002DB940F6373209A10DA0FDF735FF104830
:10245000016818312846FFF705FE0CB14FF0FF3632
:1024600021463046FEF764FF70BD00002E2E5C460C
:1024700072656552544F535C7461736B732E6300C5
:102480004572726F723A25732C25640D0A000000A4
:102490003800002070B505462C46002D4BD026494B
:1024A000E06A0968C96A884245D2A06900F0004024
:1024B00028B921480068C06AC0F12000A061E16A23
:1024C00001EB81011D4A02EB81016069884201D163
:1024D000012000E0002050B3201DFFF785FD78B9F2
:1024E000E06A00EB8000154951F8200040B994F8EB
:1024F0002C1001208840124909688143104801606E
:102500000D480068C06AE06294F82C1001208840F1
:102510000B49096808430A490860E16A01EB810137
:10252000064A02EB8100211DFFF79CFD03E00248F3
:102530000068C06AE06270BD38000020B40100206D
:102540005000002010B504462CB940F6C73205A152
:1025500009A0FDF7B1FE0C48006820600B48006838
:10256000606010BD2E2E5C4672656552544F535C00
:102570007461736B732E63004572726F723A2573C8
:102580002C25640D0A000000600000204C00002093
:102590001CB51A4800210B468222CDE9001018A173
:1025A000194800F041FC0446012C02D100F088FEDD
:1025B0000446012C15D100BF502080F31188BFF3D1
:1025C0004F8FBFF36F8F00BF4FF0FF300F49086090
:1025D00001200F49086000200E49086000F08AF8C9
:1025E0000BE0601C08B1012000E0002028B940F297
:1025F0008A7209A10DA0FDF75FFE1CBD6C000020D2
:1026000049444C4500000000A51600086800002061
:10261000540000204C0000202E2E5C46726565524E
:10262000544F535C7461736B732E63004572726F09
:10263000723A25732C25640D0A00000002480068D8
:10264000401C0149086070477000002010B51B480D
:10265000006818B101201A4908602DE000201849CF
:10266000086018480068B0FA80F0C0F11F0404EB5D
:102670008400154951F8200008B1012000E0002035
:1026800028B940F6FC2211A115A0FDF715FE04EBB8
:1026900084010D4A02EB810041684968416000F104
:1026A000080142688A4202D1416849684160416834
:1026B000C9680F4A116000BF10BD00007000002003
:1026C0005C00002050000020B40100202E2E5C464B
:1026D00072656552544F535C7461736B732E630063
:1026E0004572726F723A25732C25640D0A00000042
:1026F000380000201CB52248014609780191FF21CD
:10270000024611700146097800919DF8001001F011
:1027100050011C4A117007211B4A116009E01A4937
:102720000968491E184A11609DF800104906090EF3
:1027300000919DF8001001F080018029EFD012492E
:1027400009680902104A11601146098801F4E06124
:1027500011600B4A019911700C48006840F4700038
:102760000A4908600846006840F070400860FFF7BA
:102770005DFD002006490860FDF742FD00201CBDFC
:1027800000E400E0A4000020A800002020ED00E00C
:10279000A000002010B500BF502080F31188BFF3C7
:1027A0004F8FBFF36F8F00BF00F084FB18B14FF065
:1027B00080500449086000BF002080F3118800BFEA
:1027C00010BD000004ED00E02DE9F84305460E467B
:1027D00090460DB1012000E0002028B94FF4C472EA
:1027E0000DA112A0FDF768FD0EB9002701E005FB61
:1027F00006F707F15400FFF715FB044644B104F156
:10280000540943464A46314628460094FEF75EFF87
:102810002046BDE8F88300002E2E5C4672656552A6
:10282000544F535C71756575652E63004572726F08
:10283000723A25732C25640D0A0000002DE9FF472C
:1028400082B005460E461F464FF0000A2C462CB9B2
:1028500040F2DC4261A166A0FDF72EFD0EB9206CAE
:1028600008B9012000E0002028B940F2DD425BA158
:102870005FA0FDF721FD00F007FB08B9049808B937
:10288000012000E0002028B94FF49C6253A158A019
:10289000FDF712FD00BFFFF7F1FBD4F83890B9F156
:1028A000000F3DD0D4F80C8031462046FEF74CFE98
:1028B000DFB9A9F10100A063206810B9FFF75CFB44
:1028C0006060206908B9012000E0002010BB04F11D
:1028D000100000F00BFCE8B14FF080504849086050
:1028E000BFF34F8FBFF36F8F14E0C4F80C80606AA2
:1028F00008B9012000E0002060B904F1240000F0D4
:10290000F5FB38B14FF080503D490860BFF34F8F61
:10291000BFF36F8FFFF7F6FB012006B0BDE8F0872D
:10292000049818B9FFF7EEFB0020F6E7BAF1000FA4
:1029300004D16846FFF706FE4FF0010AFFF7E2FBFD
:10294000FFF77CFEFFF79AFB94F94400401C10B996
:10295000002084F8440094F94500401C10B9002080
:1029600084F84500FFF7CEFB04A9684600F00CFA96
:1029700040BB2046FEF7BEFFF0B1206830B9FFF73C
:102980007DFB6068FFF786FDFFF7BCFB04F12400C8
:102990000499FFF727FD2046FFF7FBF900F000FC44
:1029A00000287FF478AF4FF0805015490860BFF3DE
:1029B0004F8FBFF36F8F6EE72046FFF7EAF900F005
:1029C000EFFB68E72046FFF7E4F900F0E9FB20465B
:1029D000FEF790FF0028EED000209EE72E2E5C46EA
:1029E00072656552544F535C71756575652E630051
:1029F0004572726F723A25732C25640D0A0000002F
:102A000004ED00E070B505460E462C462CB940F2A8
:102A10001B121EA122A0FDF74FFCFFF72FFBD4E9EC
:102A20000F12206801FB020060600020A063206894
:102A3000A060E06B401E226C216800FB0210E06089
:102A4000FF2084F8440084F845009EB9206908B945
:102A5000012000E00020A8B904F1100000F046FBBE
:102A600080B14FF0805012490860BFF34F8FBFF321
:102A70006F8F07E004F11000FFF7CAFA04F1240099
:102A8000FFF7C6FAFFF73EFB012070BD2E2E5C4615
:102A900072656552544F535C71756575652E6300A0
:102AA0004572726F723A25732C25640D0A0000007E
:102AB00004ED00E02DE9FF4383B0064688461D463D
:102AC0004FF0000934462CB940F2D92260A165A02C
:102AD000FDF7F2FBB8F1000F01D1206C08B901201D
:102AE00000E0002028B940F2DA2259A15DA0FDF7EC
:102AF000E3FB022D02D1E06B012801D1012000E0AF
:102B0000002028B940F2DB2251A156A0FDF7D4FBEA
:102B100000F0BAF908B9059808B9012000E00020D2
:102B200028B940F2DE224AA14EA0FDF7C5FB00BF46
:102B3000FFF7A4FAA06BE16B884201D3022D38D1D4
:102B40002A4641462046FEF714FD0746A06C68B1B0
:102B500029462046FEF7EAFE28B34FF0805045494B
:102B60000860BFF34F8FBFF36F8F1CE0606A08B936
:102B7000012000E0002068B904F1240000F0B6FA5A
:102B800088B14FF080503B490860BFF34F8FBFF3CF
:102B90006F8F08E03FB14FF0805036490860BFF3B7
:102BA0004F8FBFF36F8FFFF7ADFA012007B0BDE87D
:102BB000F083059818B9FFF7A5FA0020F6E7B9F1F8
:102BC000000F04D101A8FFF7BDFC4FF00109FFF78A
:102BD00099FAFFF733FDFFF751FA94F94400401CCE
:102BE00010B9002084F8440094F94500401C10B945
:102BF000002084F84500FFF785FA05A901A800F038
:102C0000C3F8F0B92046FEF782FEA0B104F110002F
:102C10000599FFF7E7FB2046FFF7BBF800F0C0FA85
:102C2000002885D14FF0805012490860BFF34F8FC4
:102C3000BFF36F8F7CE72046FFF7ABF800F0B0FAE8
:102C400076E72046FFF7A5F800F0AAFA0020ADE7E6
:102C50002E2E5C4672656552544F535C71756575D6
:102C6000652E63004572726F723A25732C25640DD0
:102C70000A00000004ED00E02DE9F05F80468A467E
:102C800015461E4644462CB940F29F3235A13AA063
:102C9000FDF712FBBAF1000F01D1206C08B9012039
:102CA00000E0002028B94FF468722EA132A0FDF791
:102CB00003FB022E02D1E06B012801D1012000E0CC
:102CC000002028B940F2A13226A12BA0FDF7F4FA8A
:102CD000FFF7BCFA00BF5021EFF3118081F3118898
:102CE000BFF34F8FBFF36F8F00BF0746A06BE16B41
:102CF000884201D3022E2BD194F945B03246514679
:102D00002046FEF736FC0BF10100C8B9A06C40B1BB
:102D100031462046FEF70AFEB8B1B5B10120286061
:102D200013E0606A08B9012000E0002068B904F1EE
:102D3000240000F0DBF940B13DB10120286004E03F
:102D40000BF1010040B284F845004FF0010901E0A9
:102D50004FF0000900BF87F3118800BF4846BDE867
:102D6000F09F00002E2E5C4672656552544F535CF6
:102D700071756575652E63004572726F723A2573C1
:102D80002C25640D0A0000002DE9F04104460D4693
:102D90002CB940F6D13219A11DA0FDF78DFA2DB93D
:102DA00040F6D23215A11AA0FDF786FAFFF766F9B0
:102DB0001B4807682868401C08B9002619E0194913
:102DC00020680968884204D06068B84201D80126AA
:102DD0000FE06068381A2968884209D2286861685B
:102DE000791A401A28602046FFF7ACFB002600E065
:102DF0000126FFF787F93046BDE8F0812E2E5C46AC
:102E000072656552544F535C7461736B732E63002B
:102E10004572726F723A25732C25640D0A0000000A
:102E20004C000020600000202DE9FF4F85B0804657
:102E300089461746DDE912ABB800FEF7F3FF0646F8
:102E400056B15C20FEF7EEFF04460CB1266304E0A9
:102E50003046FFF78FF900E000247CB10020CDE977
:102E600000ABCDE902403A4649464046089BFEF792
:102E700045FC2046FEF7A8FA012501E04FF0FF359A
:102E8000284609B0BDE8F08F0549096809B9012055
:102E900005E00449096809B9022000E000207047F4
:102EA00054000020700000200149086870470000AD
:102EB0004C0000202DE9F0414FF000084148006827
:102EC000002872D140480068451C3F480560EDB9B4
:102ED0003E480068006808B9012000E0002028B9D9
:102EE00040F6DF123AA13FA0FDF7E6F93748076840
:102EF00040480068354908603E4807603E48006821
:102F0000401C3D490860FEF771FE00BF3B48006869
:102F100085423CD300BF2D480068006808B90120F5
:102F200000E0002020B14FF0FF30344908602DE070
:102F300026480068C068C4686668B54202D22F4857
:102F4000066023E0201DFFF74FF8A06A18B104F1D6
:102F50001800FFF749F894F82C1001208840284900
:102F60000968084326490860E16A01EB8101254AA6
:102F700002EB8100211DFFF775F82349E06A09681B
:102F8000C96A8842C7D34FF00108C4E700BF1E4892
:102F90000068C06A00EB80001A4951F8200001283F
:102FA00001D94FF0010805E0FFE718480068401C10
:102FB000164908601648006808B14FF001084046FD
:102FC000BDE8F081700000204C0000203C00002093
:102FD0002E2E5C4672656552544F535C7461736B60
:102FE000732E63004572726F723A25732C25640D3F
:102FF0000A0000004000002060000020680000205F
:1030000050000020B40100203800002058000020AB
:103010005C00002070B505462C460026002D4BD0E4
:1030200026480068844201D1012000E0002028B930
:1030300040F6CD6222A127A0FDF73EF9206D28B908
:1030400040F6CF621EA123A0FDF736F9206D401E89
:103050002065E16CE06A88422ED0206D60BB201DA7
:10306000FEF7C2FF78B9E06A00EB80001D4951F815
:10307000200040B994F82C10012088401A490968B2
:10308000814319480160E06CE062E06AC0F1200011
:10309000A06194F82C100120884013490968084366
:1030A00011490860E16A01EB81010E4A02EB8100DF
:1030B000211DFEF7D7FF0126304670BD38000020E5
:1030C0002E2E5C4672656552544F535C7461736B6F
:1030D000732E63004572726F723A25732C25640D4E
:1030E0000A000000B40100205000002070B5064620
:1030F000F068C4682CB940F667321AA11EA0FDF72B
:10310000DBF804F11800FEF76FFF1F480068A8B94C
:10311000201DFEF769FF94F82C10012088401B4900
:103120000968084319490860E16A01EB8101184AFE
:1031300002EB8100211DFEF795FF04E004F1180168
:103140001448FEF78FFF1449E06A0968C96A88428B
:1031500004D9012501201149086000E00025284616
:1031600070BD00002E2E5C4672656552544F535C54
:103170007461736B732E63004572726F723A2573BC
:103180002C25640D0A000000700000205000002073
:10319000B40100205C040020380000205C00002006
:1031A00070B5002400263448006828B940F2EE7259
:1031B00032A137A0FDF780F8FEF760FF2E480068C7
:1031C000401E2D4908600846006800284FD1344849
:1031D000006800284BD024E03248C068C46804F17D
:1031E0001800FEF701FF201DFEF7FEFE94F82C10DC
:1031F000012088402C49096808432B490860E16A8E
:1032000001EB8101294A02EB8100211DFEF72AFF13
:103210002749E06A0968C96A884202D30120254922
:1032200008602048006808B9012000E0002000285C
:10323000D2D00CB1FEF7DAFC1F48056865B100BFBB
:10324000FFF738FE10B101201A4908606D1E002DED
:10325000F6D10020184908601648006838B10126E8
:10326000300716490860BFF34F8FBFF36F8FFEF72B
:1032700049FF304670BD0000700000202E2E5C46D5
:1032800072656552544F535C7461736B732E6300A7
:103290004572726F723A25732C25640D0A00000086
:1032A000480000205C04002050000020B4010020F1
:1032B000380000205C0000205800002004ED00E0F1
:1032C0001CB50024FEF7DCF80B48006858B10B4829
:1032D0001F2100234FF48272CDE9001008A10A4893
:1032E000FFF7A2FD04462CB940F2331207A10DA04E
:1032F000FCF7E2FF20461CBD7C000020800000207F
:10330000546D722053766300791D00082E2E5C46A2
:1033100072656552544F535C74696D6572732E63A8
:10332000000000004572726F723A25732C25640DFF
:103330000A0000002DE9FF4704460D4616461F46C9
:10334000DDF830804FF000092CB94FF4D37217A18B
:103350001CA0FCF7B1FF1F48006810B30095019650
:103360000294062D15DAFFF78FFD022808D10023FD
:103370004246694617480068FFF79CFB814610E00B
:1033800000231A46694613480068FFF793FB8146FD
:1033900007E000233A4669460E480068FFF76CFCD8
:1033A0008146484604B0BDE8F08700002E2E5C46FA
:1033B00072656552544F535C74696D6572732E6308
:1033C000000000004572726F723A25732C25640D5F
:1033D0000A0000007C000020F833000800000020F4
:1033E000AC0000006C010008A4340008AC00002010
:1033F000747400008801000800A24A040000000064
:103400000000000001020304060708090100000093
:1034100000000000000000000000000000000000AC
:10342000000000000000000000000000000000009C
:10343000000000000000000000000000000000008C
:10344000000000000000000000000000000000007C
:10345000000000000000000000000000000000006C
:10346000000000000000000000000000000000005C
:10347000000000000000000000000000000000004C
:10348000000000000000000000000000000000003C
:103490000000000000000000AAAAAAAA0000000084
:0434A0000000000028
:040000050800027578
:00000001FF
